{
  "contracts/Giveaways.sol": {
    "Giveaways": {
      "abi": [
        {
          "inputs": [
            {
              "internalType": "contract IPayment",
              "name": "_payment",
              "type": "address"
            }
          ],
          "stateMutability": "nonpayable",
          "type": "constructor"
        },
        {
          "inputs": [],
          "name": "ReentrancyGuardReentrantCall",
          "type": "error"
        },
        {
          "anonymous": false,
          "inputs": [
            {
              "indexed": false,
              "internalType": "uint64",
              "name": "id",
              "type": "uint64"
            },
            {
              "components": [
                {
                  "internalType": "address",
                  "name": "owner",
                  "type": "address"
                },
                {
                  "internalType": "contract IERC20",
                  "name": "token",
                  "type": "address"
                },
                {
                  "internalType": "uint256",
                  "name": "prize",
                  "type": "uint256"
                },
                {
                  "internalType": "uint8[]",
                  "name": "prizeType",
                  "type": "uint8[]"
                },
                {
                  "internalType": "uint256",
                  "name": "startTime",
                  "type": "uint256"
                },
                {
                  "internalType": "uint256",
                  "name": "endTime",
                  "type": "uint256"
                },
                {
                  "internalType": "uint256",
                  "name": "prizeTime",
                  "type": "uint256"
                },
                {
                  "internalType": "address[]",
                  "name": "users",
                  "type": "address[]"
                },
                {
                  "internalType": "address[]",
                  "name": "winners",
                  "type": "address[]"
                },
                {
                  "internalType": "bool",
                  "name": "active",
                  "type": "bool"
                }
              ],
              "indexed": false,
              "internalType": "struct Giveaways.Giveaway",
              "name": "data",
              "type": "tuple"
            }
          ],
          "name": "endGiveaways",
          "type": "event"
        },
        {
          "anonymous": false,
          "inputs": [
            {
              "indexed": false,
              "internalType": "address",
              "name": "user",
              "type": "address"
            },
            {
              "indexed": false,
              "internalType": "uint256",
              "name": "amount",
              "type": "uint256"
            },
            {
              "indexed": false,
              "internalType": "contract IERC20",
              "name": "token",
              "type": "address"
            }
          ],
          "name": "sendMoney",
          "type": "event"
        },
        {
          "stateMutability": "nonpayable",
          "type": "fallback"
        },
        {
          "inputs": [
            {
              "internalType": "uint64",
              "name": "_id",
              "type": "uint64"
            },
            {
              "internalType": "uint256",
              "name": "_prize",
              "type": "uint256"
            }
          ],
          "name": "addPrize",
          "outputs": [],
          "stateMutability": "payable",
          "type": "function"
        },
        {
          "inputs": [
            {
              "internalType": "uint64",
              "name": "_id",
              "type": "uint64"
            },
            {
              "internalType": "bool",
              "name": "_active",
              "type": "bool"
            }
          ],
          "name": "changeActive",
          "outputs": [],
          "stateMutability": "nonpayable",
          "type": "function"
        },
        {
          "inputs": [
            {
              "internalType": "uint256",
              "name": "_prize",
              "type": "uint256"
            },
            {
              "internalType": "contract IERC20",
              "name": "_token",
              "type": "address"
            },
            {
              "internalType": "uint8[]",
              "name": "_prizeType",
              "type": "uint8[]"
            },
            {
              "internalType": "uint256",
              "name": "_startTime",
              "type": "uint256"
            },
            {
              "internalType": "uint256",
              "name": "_endTime",
              "type": "uint256"
            },
            {
              "internalType": "uint256",
              "name": "_prizeTime",
              "type": "uint256"
            }
          ],
          "name": "createGiveaway",
          "outputs": [],
          "stateMutability": "payable",
          "type": "function"
        },
        {
          "inputs": [
            {
              "internalType": "uint64",
              "name": "_id",
              "type": "uint64"
            },
            {
              "internalType": "address[]",
              "name": "_winners",
              "type": "address[]"
            }
          ],
          "name": "endGiveaway",
          "outputs": [],
          "stateMutability": "nonpayable",
          "type": "function"
        },
        {
          "inputs": [
            {
              "internalType": "uint64",
              "name": "_id",
              "type": "uint64"
            }
          ],
          "name": "getGiveaway",
          "outputs": [
            {
              "components": [
                {
                  "internalType": "address",
                  "name": "owner",
                  "type": "address"
                },
                {
                  "internalType": "contract IERC20",
                  "name": "token",
                  "type": "address"
                },
                {
                  "internalType": "uint256",
                  "name": "prize",
                  "type": "uint256"
                },
                {
                  "internalType": "uint8[]",
                  "name": "prizeType",
                  "type": "uint8[]"
                },
                {
                  "internalType": "uint256",
                  "name": "startTime",
                  "type": "uint256"
                },
                {
                  "internalType": "uint256",
                  "name": "endTime",
                  "type": "uint256"
                },
                {
                  "internalType": "uint256",
                  "name": "prizeTime",
                  "type": "uint256"
                },
                {
                  "internalType": "address[]",
                  "name": "users",
                  "type": "address[]"
                },
                {
                  "internalType": "address[]",
                  "name": "winners",
                  "type": "address[]"
                },
                {
                  "internalType": "bool",
                  "name": "active",
                  "type": "bool"
                }
              ],
              "internalType": "struct Giveaways.Giveaway",
              "name": "_gw",
              "type": "tuple"
            }
          ],
          "stateMutability": "view",
          "type": "function"
        },
        {
          "inputs": [
            {
              "internalType": "uint64",
              "name": "_page",
              "type": "uint64"
            },
            {
              "internalType": "uint64",
              "name": "_amount",
              "type": "uint64"
            }
          ],
          "name": "getGiveaways",
          "outputs": [
            {
              "components": [
                {
                  "internalType": "address",
                  "name": "owner",
                  "type": "address"
                },
                {
                  "internalType": "contract IERC20",
                  "name": "token",
                  "type": "address"
                },
                {
                  "internalType": "uint256",
                  "name": "prize",
                  "type": "uint256"
                },
                {
                  "internalType": "uint8[]",
                  "name": "prizeType",
                  "type": "uint8[]"
                },
                {
                  "internalType": "uint256",
                  "name": "startTime",
                  "type": "uint256"
                },
                {
                  "internalType": "uint256",
                  "name": "endTime",
                  "type": "uint256"
                },
                {
                  "internalType": "uint256",
                  "name": "prizeTime",
                  "type": "uint256"
                },
                {
                  "internalType": "address[]",
                  "name": "users",
                  "type": "address[]"
                },
                {
                  "internalType": "address[]",
                  "name": "winners",
                  "type": "address[]"
                },
                {
                  "internalType": "bool",
                  "name": "active",
                  "type": "bool"
                }
              ],
              "internalType": "struct Giveaways.Giveaway[]",
              "name": "_gw",
              "type": "tuple[]"
            }
          ],
          "stateMutability": "view",
          "type": "function"
        },
        {
          "inputs": [
            {
              "internalType": "uint64",
              "name": "_id",
              "type": "uint64"
            }
          ],
          "name": "getWinners",
          "outputs": [
            {
              "internalType": "address[]",
              "name": "_winners",
              "type": "address[]"
            }
          ],
          "stateMutability": "view",
          "type": "function"
        },
        {
          "inputs": [],
          "name": "owner",
          "outputs": [
            {
              "internalType": "address payable",
              "name": "",
              "type": "address"
            }
          ],
          "stateMutability": "view",
          "type": "function"
        },
        {
          "inputs": [
            {
              "internalType": "uint64",
              "name": "_id",
              "type": "uint64"
            }
          ],
          "name": "participate",
          "outputs": [],
          "stateMutability": "nonpayable",
          "type": "function"
        },
        {
          "inputs": [
            {
              "internalType": "address[]",
              "name": "_users",
              "type": "address[]"
            },
            {
              "internalType": "uint256[]",
              "name": "_amount",
              "type": "uint256[]"
            },
            {
              "internalType": "contract IERC20",
              "name": "_token",
              "type": "address"
            }
          ],
          "name": "sendPrize",
          "outputs": [],
          "stateMutability": "nonpayable",
          "type": "function"
        },
        {
          "inputs": [
            {
              "internalType": "contract IERC20",
              "name": "_token",
              "type": "address"
            },
            {
              "internalType": "uint256",
              "name": "_amount",
              "type": "uint256"
            }
          ],
          "name": "withdraw",
          "outputs": [],
          "stateMutability": "nonpayable",
          "type": "function"
        },
        {
          "stateMutability": "payable",
          "type": "receive"
        }
      ],
      "evm": {
        "bytecode": {
          "linkReferences": {},
          "object": "608034609457601f611ea538819003918201601f19168301916001600160401b03831184841017609957808492602094604052833981010312609457516001600160a01b038116810360945760016000819055600280546001600160a01b031916331790558054600160401b600160e01b031916604092831b600160401b600160e01b031617905551611df590816100b08239f35b600080fd5b634e487b7160e01b600052604160045260246000fdfe60806040526004361015610022575b3615610020573461001b57005b600080fd5b005b60003560e01c80631dae1c8c14610e485780632d94913614610db65780635352937f14610d745780638d212a8914610bde5780638da5cb5b14610bb5578063c3f1276114610ab0578063ce1911ee14610a42578063d9b75a8c146103e5578063e399cbfd14610152578063f2849144146100eb5763f3fef3a30361000e573461001b57604036600319011261001b576004356001600160a01b038116810361001b57600254610020916001600160a01b03909116906100e2338314611c03565b60243590611ce0565b3461001b57604036600319011261001b57610104611065565b602435801515810361001b576100209161012960018060a01b03600254163314611c03565b60018060401b0316600052600360205260096040600020019060ff801983541691151516179055565b3461001b57606036600319011261001b576004356001600160401b03811161001b576101829036906004016111d9565b602435906001600160401b03821161001b573660238301121561001b578160040135916101ae836111c2565b926101bc604051948561119f565b8084526024602085019160051b8301019136831161001b57602401905b8282106103d55750506044359190506001600160a01b03821680830361001b5781518451036103905761021760018060a01b03600254163314611c03565b806102ac575060005b81518110156100205760019060008080806001600160a01b036102438689611869565b511661024f868b611869565b51905af161025b611ca1565b50610267575b01610220565b600080516020611da0833981519152828060a01b036102868386611869565b51166102928388611869565b51906102a48760405193849384611c7e565b0390a1610261565b929160005b8251811015610020576102fb9060206001600160a01b036102d28387611869565b51166102de8388611869565b5160405163a9059cbb60e01b815294859283929060048401611c63565b038160008a5af191821561038457600192610358575b50600080516020611da0833981519152828060a01b036103318387611869565b511661033d8388611869565b519061034f8660405193849384611c7e565b0390a1016102b1565b6103789060203d811161037d575b610370818361119f565b810190611c4b565b610311565b503d610366565b6040513d6000823e3d90fd5b60405162461bcd60e51b815260206004820152601e60248201527f617272617973206d757374206265207468652073616d65206c656e67746800006044820152606490fd5b81358152602091820191016101d9565b60c036600319011261001b576024356001600160a01b038116906004359082900361001b57604435916001600160401b03831161001b573660238401121561001b57826004013592610436846111c2565b90610444604051928361119f565b8482526024602083019560051b8201019036821161001b57602401945b818610610a2857505060249350606435926084359360a43591610482611d5d565b6001546040805163ab17f1eb60e01b8152600481018890529883928a91908290841c6001600160a01b03165afa978815610384576000986109f4575b508561099757505034955b81861115610944578583106108ff576104e3331515611c03565b156108c3578515610887576105076104ff61050f924290611c3e565b954290611c3e565b914290611c3e565b906040519461051d86611183565b3386526020808701958652604080880198895260608089019687526080890193845260a0890194855260c0890195865260e089018181526101008a0191825260016101208b0181815281546001600160401b039081166000908152600397889052959095209b518c546001600160a01b03199081166001600160a01b03928316178e559b51928d018054909c16921691909117909955995160028a0155955180519699969289019291821161075d57600160401b821161075d576020908354838555808410610839575b50019160005260206000208160051c9160005b8381106107f95750601f1981169003806107ad575b50509151600488015550505160058501555160068401555180519060078401906001600160401b03831161075d57600160401b831161075d576020908254848455808510610790575b500190600052602060002060005b8381106107735750509351805160088501955091506001600160401b03821161075d57600160401b821161075d576020908554838755808410610740575b500193600052602060002060005b828110610723576106d68560098651151591019060ff801983541691151516179055565b6001546001600160401b0380821690811461070d576001600160401b031990911660019182016001600160401b0316178155600055005b634e487b7160e01b600052601160045260246000fd5b85516001600160a01b0316818301556020909501946001016106b2565b610757908760005284846000209182019101611995565b866106a4565b634e487b7160e01b600052604160045260246000fd5b82516001600160a01b031681830155602090920191600101610666565b6107a7908460005285846000209182019101611995565b87610658565b9260009360005b8181106107c95750505001558780808061060f565b90919460206107ef6001928460ff8a5116919060ff809160031b9316831b921b19161790565b96019291016107b4565b6000805b602081106108125750838201556001016105fa565b865190969160019160209160ff60038b901b81811b199092169216901b17920196016107fd565b610865908560005283600020601f80870160051c8201928188168061086b575b500160051c0190611995565b8b6105e7565b600019850190815490600019908a0360031b1c16905538610859565b60405162461bcd60e51b8152602060048201526014602482015273063686f6f7365207072697a652061626f766520360641b6044820152606490fd5b60405162461bcd60e51b815260206004820152601460248201527321b0b713ba103ab9b2903a3434b9903a37b5b2b760611b6044820152606490fd5b60405162461bcd60e51b815260206004820152601e60248201527f5072697a652074696d65206d757374206265203e3d20656e642074696d6500006044820152606490fd5b60405162461bcd60e51b815260206004820152602560248201527f456e642074696d65206d757374206265206d6f7265207468616e2073746172746044820152642074696d6560d81b6064820152608490fd5b604097919751906323b872dd60e01b8252336004830152306024830152604482015260208160648160008a5af18015610384576109d5575b506104c9565b6109ed9060203d60201161037d57610370818361119f565b50876109cf565b9097506040813d604011610a20575b81610a106040938361119f565b8101031261001b575196886104be565b3d9150610a03565b853560ff8116810361001b57815260209586019501610461565b604036600319011261001b57610a56611065565b610a5e611d5d565b6001600160401b03166000908152600360205260409020600290610a83331515611c03565b8054610a99906001600160a01b03163314611c03565b01610aa76024358254611c3e565b90556001600055005b3461001b57602036600319011261001b57610ac9611065565b610ad1611247565b5060018060401b03166000526003602052610bb1604060002060ff600960405192610afb84611183565b80546001600160a01b0390811685526001820154166020850152600281015460408086019190915251610b3c81610b358160038601611294565b038261119f565b606085015260048101546080850152600581015460a0850152600681015460c0850152604051610b7381610b358160078601611826565b60e0850152604051610b8c81610b358160088601611826565b61010085015201541615156101208201526040519182916020835260208301906110b8565b0390f35b3461001b57600036600319011261001b576002546040516001600160a01b039091168152602090f35b3461001b57602036600319011261001b576001600160401b03610bff611065565b16806000526003602052604060002060ff60098201541615610d3657610c26331515611c03565b60008281526004602090815260408083203384529091529020546001600160401b0316610cf2576004810154421180610ce5575b15610ca757600701610c6c3382611893565b54600091825260046020908152604080842033855290915290912080546001600160401b0319166001600160401b0392909216919091179055005b60405162461bcd60e51b81526020600482015260166024820152756769766561776179206973206e6f742061637469766560501b6044820152606490fd5b5042600582015411610c5a565b60405162461bcd60e51b815260206004820152601c60248201527b165bdd48185c9948185b1c9958591e481c185c9d1a58da5c185d195960221b6044820152606490fd5b60405162461bcd60e51b81526020600482015260166024820152754769766561776179206973206e6f742061637469766560501b6044820152606490fd5b3461001b57604036600319011261001b57610d8d611065565b602435906001600160401b03821161001b57610db06100209236906004016111d9565b906119ac565b3461001b57602036600319011261001b576001600160401b03610dd7611065565b166000526003602052610b35610dfa600860406000200160405192838092611826565b60405180916020820160208352815180915260206040840192019060005b818110610e26575050500390f35b82516001600160a01b0316845285945060209384019390920191600101610e18565b3461001b57604036600319011261001b57610e61611065565b6024356001600160401b038116919082810361001b5790911561104f575b6001600160401b031680610e92816111c2565b92610ea0604051948561119f565b818452601f19610eaf836111c2565b0160005b8181106110315750506001600160401b039081169190910290811690810361070d575b6001600160401b03811682811015610fc95780610fb7916000526003602052604060002060ff600960405192610f0b84611183565b80546001600160a01b0390811685526001820154166020850152600281015460408086019190915251610f4581610b358160038601611294565b606085015260048101546080850152600581015460a0850152600681015460c0850152604051610f7c81610b358160078601611826565b60e0850152604051610f9581610b358160088601611826565b6101008501520154161515610120820152610fb08287611869565b5284611869565b506001016001600160401b0316610ed6565b836040518091602082016020835281518091526040830190602060408260051b8601019301916000905b82821061100257505050500390f35b919360019193955060206110218192603f198a820301865288516110b8565b9601920192018594939192610ff3565b60209192935061103f611247565b8282880101520190839291610eb3565b50506001546000906001600160401b0316610e7f565b600435906001600160401b038216820361001b57565b906020808351928381520192019060005b8181106110995750505090565b82516001600160a01b031684526020938401939092019160010161108c565b90610140810160018060a01b03835116825260018060a01b03602084015116602083015260408301516040830152606083015190610140606084015281518091526020610160840192019060005b81811061116a5750505061012061115f61114b82936080870151608087015260a087015160a087015260c087015160c087015260e087015186820360e088015261107b565b61010086015185820361010087015261107b565b930151151591015290565b825160ff16845260209384019390920191600101611106565b61014081019081106001600160401b0382111761075d57604052565b601f909101601f19168101906001600160401b0382119082101761075d57604052565b6001600160401b03811161075d5760051b60200190565b9080601f8301121561001b578135906111f1826111c2565b926111ff604051948561119f565b82845260208085019360051b82010191821161001b57602001915b8183106112275750505090565b82356001600160a01b038116810361001b5781526020928301920161121a565b6040519061125482611183565b6000610120838281528260208201528260408201526060808201528260808201528260a08201528260c0820152606060e082015260606101008201520152565b8054808352600091825260208083209301925b81601f840110611684575491818110611670575b818110611659575b818110611642575b81811061162b575b818110611615575b8181106115fe575b8181106115e7575b8181106115d0575b8181106115b9575b8181106115a2575b81811061158b575b818110611574575b81811061155d575b818110611546575b81811061152f575b818110611518575b818110611501575b8181106114ea575b8181106114d3575b8181106114bc575b8181106114a5575b81811061148e575b818110611477575b818110611460575b818110611449575b818110611432575b81811061141b575b818110611404575b8181106113ed575b8181106113d6575b8181106113bf575b106113b4575090565b60f81c815260200190565b92602060019160ff8560f01c1681520193016113ab565b92602060019160ff8560e81c1681520193016113a3565b92602060019160ff8560e01c16815201930161139b565b92602060019160ff8560d81c168152019301611393565b92602060019160ff8560d01c16815201930161138b565b92602060019160ff8560c81c168152019301611383565b92602060019160ff8560c01c16815201930161137b565b92602060019160ff8560b81c168152019301611373565b92602060019160ff8560b01c16815201930161136b565b92602060019160ff8560a81c168152019301611363565b92602060019160ff8560a01c16815201930161135b565b92602060019160ff8560981c168152019301611353565b92602060019160ff8560901c16815201930161134b565b92602060019160ff8560881c168152019301611343565b92602060019160ff8560801c16815201930161133b565b92602060019160ff8560781c168152019301611333565b92602060019160ff8560701c16815201930161132b565b92602060019160ff8560681c168152019301611323565b92602060019160ff8560601c16815201930161131b565b92602060019160ff8560581c168152019301611313565b92602060019160ff8560501c16815201930161130b565b92602060019160ff8560481c168152019301611303565b92602060019160ff8560401c1681520193016112fb565b92602060019160ff8560381c1681520193016112f3565b92602060019160ff8560301c1681520193016112eb565b92602060019160ff8560281c1681520193016112e3565b92602060019160ff85831c1681520193016112db565b92602060019160ff8560181c1681520193016112d3565b92602060019160ff8560101c1681520193016112cb565b92602060019160ff8560081c1681520193016112c3565b92602060019160ff851681520193016112bb565b926001610400602092865460ff8116825260ff8160081c168583015260ff8160101c16604083015260ff8160181c16606083015260ff81861c16608083015260ff8160281c1660a083015260ff8160301c1660c083015260ff8160381c1660e083015260ff8160401c1661010083015260ff8160481c1661012083015260ff8160501c1661014083015260ff8160581c1661016083015260ff8160601c1661018083015260ff8160681c166101a083015260ff8160701c166101c083015260ff8160781c166101e083015260ff8160801c1661020083015260ff8160881c1661022083015260ff8160901c1661024083015260ff8160981c1661026083015260ff8160a01c1661028083015260ff8160a81c166102a083015260ff8160b01c166102c083015260ff8160b81c166102e083015260ff8160c01c1661030083015260ff8160c81c1661032083015260ff8160d01c1661034083015260ff8160d81c1661036083015260ff8160e01c1661038083015260ff8160e81c166103a083015260ff8160f01c166103c083015260f81c6103e08201520194019201916112a7565b906020825491828152019160005260206000209060005b81811061184a5750505090565b82546001600160a01b031684526020909301926001928301920161183d565b805182101561187d5760209160051b010190565b634e487b7160e01b600052603260045260246000fd5b805490600160401b82101561075d576001820180825582101561187d576000908152602090200180546001600160a01b0319166001600160a01b03909216919091179055565b6001600160401b03909116815260406020820181905282546001600160a01b039081169183019190915260018301541660608201526002820154608082015261014060a082015261016060ff600961198961197361193e610180870160038901611294565b600488015460c0880152600588015460e08801526006880154610100880152868103603f190161012088015260078801611826565b858103603f190161014087015260088701611826565b94015416151591015290565b8181106119a0575050565b60008155600101611995565b91909160018060401b03811660005260036020526040600020906005820154421115611bc65760088201938454611b8d576002546001600160a01b03163303611b515760098301805460ff191690556007830154600384015490811115611a6e5750506001820154600283015483549495600080516020611d8083398151915295611a5a939192611a49926001600160a01b039283169216611ce0565b83546001600160a01b031690611893565b611a69604051928392836118d9565b0390a1565b815103611b15578051906001600160401b03821161075d57600160401b821161075d576020908654838855808410611af8575b50019460005260206000209460005b828110611adb57505050600080516020611d80833981519152929350611a69604051928392836118d9565b81516001600160a01b031681880155602090910190600101611ab0565b611b0f908860005284846000209182019101611995565b38611aa1565b60405162461bcd60e51b815260206004820152601460248201527315dc9bdb99c81dda5b9b995c9cc8185b5bdd5b9d60621b6044820152606490fd5b60405162461bcd60e51b81526020600482015260146024820152732cb7ba9030b932b713ba103a34329037bbb732b960611b6044820152606490fd5b60405162461bcd60e51b815260206004820152601160248201527011da5d99585dd85e481a5cc8195b991959607a1b6044820152606490fd5b60405162461bcd60e51b815260206004820152601560248201527411da5d99585dd85e481a5cc81b9bdd08195b991959605a1b6044820152606490fd5b15611c0a57565b60405162461bcd60e51b815260206004820152600c60248201526b2bb937b7339039b2b73232b960a11b6044820152606490fd5b9190820180921161070d57565b9081602091031261001b5751801515810361001b5790565b6001600160a01b039091168152602081019190915260400190565b6001600160a01b0391821681526020810192909252909116604082015260600190565b3d15611cdb573d906001600160401b03821161075d5760405191611ccf601f8201601f19166020018461119f565b82523d6000602084013e565b606090565b9091906001600160a01b031680611d0b5750600080809381935af1611d03611ca1565b501561001b57565b91611d3192602092600060405180968195829463a9059cbb60e01b845260048401611c63565b03925af1801561038457611d425750565b611d5a9060203d60201161037d57610370818361119f565b50565b600260005414611d6e576002600055565b633ee5aeb560e01b60005260046000fdfe04c28ec0338a332133e6498addd8448c2a3391e5266cc871da83916c27ee191d9a9c2f752930c6b65ffe6835d58a652f85b2e0d2ce30c65872c1598efeced2bda2646970667358221220d0c38d07df61636986288328384bff80ade332a6c92d5c72e8751480e0102cb264736f6c634300081c0033",
          "opcodes": "PUSH1 0x80 CALLVALUE PUSH1 0x94 JUMPI PUSH1 0x1F PUSH2 0x1EA5 CODESIZE DUP2 SWAP1 SUB SWAP2 DUP3 ADD PUSH1 0x1F NOT AND DUP4 ADD SWAP2 PUSH1 0x1 PUSH1 0x1 PUSH1 0x40 SHL SUB DUP4 GT DUP5 DUP5 LT OR PUSH1 0x99 JUMPI DUP1 DUP5 SWAP3 PUSH1 0x20 SWAP5 PUSH1 0x40 MSTORE DUP4 CODECOPY DUP2 ADD SUB SLT PUSH1 0x94 JUMPI MLOAD PUSH1 0x1 PUSH1 0x1 PUSH1 0xA0 SHL SUB DUP2 AND DUP2 SUB PUSH1 0x94 JUMPI PUSH1 0x1 PUSH1 0x0 DUP2 SWAP1 SSTORE PUSH1 0x2 DUP1 SLOAD PUSH1 0x1 PUSH1 0x1 PUSH1 0xA0 SHL SUB NOT AND CALLER OR SWAP1 SSTORE DUP1 SLOAD PUSH1 0x1 PUSH1 0x40 SHL PUSH1 0x1 PUSH1 0xE0 SHL SUB NOT AND PUSH1 0x40 SWAP3 DUP4 SHL PUSH1 0x1 PUSH1 0x40 SHL PUSH1 0x1 PUSH1 0xE0 SHL SUB AND OR SWAP1 SSTORE MLOAD PUSH2 0x1DF5 SWAP1 DUP2 PUSH2 0xB0 DUP3 CODECOPY RETURN JUMPDEST PUSH1 0x0 DUP1 REVERT JUMPDEST PUSH4 0x4E487B71 PUSH1 0xE0 SHL PUSH1 0x0 MSTORE PUSH1 0x41 PUSH1 0x4 MSTORE PUSH1 0x24 PUSH1 0x0 REVERT INVALID PUSH1 0x80 PUSH1 0x40 MSTORE PUSH1 0x4 CALLDATASIZE LT ISZERO PUSH2 0x22 JUMPI JUMPDEST CALLDATASIZE ISZERO PUSH2 0x20 JUMPI CALLVALUE PUSH2 0x1B JUMPI STOP JUMPDEST PUSH1 0x0 DUP1 REVERT JUMPDEST STOP JUMPDEST PUSH1 0x0 CALLDATALOAD PUSH1 0xE0 SHR DUP1 PUSH4 0x1DAE1C8C EQ PUSH2 0xE48 JUMPI DUP1 PUSH4 0x2D949136 EQ PUSH2 0xDB6 JUMPI DUP1 PUSH4 0x5352937F EQ PUSH2 0xD74 JUMPI DUP1 PUSH4 0x8D212A89 EQ PUSH2 0xBDE JUMPI DUP1 PUSH4 0x8DA5CB5B EQ PUSH2 0xBB5 JUMPI DUP1 PUSH4 0xC3F12761 EQ PUSH2 0xAB0 JUMPI DUP1 PUSH4 0xCE1911EE EQ PUSH2 0xA42 JUMPI DUP1 PUSH4 0xD9B75A8C EQ PUSH2 0x3E5 JUMPI DUP1 PUSH4 0xE399CBFD EQ PUSH2 0x152 JUMPI DUP1 PUSH4 0xF2849144 EQ PUSH2 0xEB JUMPI PUSH4 0xF3FEF3A3 SUB PUSH2 0xE JUMPI CALLVALUE PUSH2 0x1B JUMPI PUSH1 0x40 CALLDATASIZE PUSH1 0x3 NOT ADD SLT PUSH2 0x1B JUMPI PUSH1 0x4 CALLDATALOAD PUSH1 0x1 PUSH1 0x1 PUSH1 0xA0 SHL SUB DUP2 AND DUP2 SUB PUSH2 0x1B JUMPI PUSH1 0x2 SLOAD PUSH2 0x20 SWAP2 PUSH1 0x1 PUSH1 0x1 PUSH1 0xA0 SHL SUB SWAP1 SWAP2 AND SWAP1 PUSH2 0xE2 CALLER DUP4 EQ PUSH2 0x1C03 JUMP JUMPDEST PUSH1 0x24 CALLDATALOAD SWAP1 PUSH2 0x1CE0 JUMP JUMPDEST CALLVALUE PUSH2 0x1B JUMPI PUSH1 0x40 CALLDATASIZE PUSH1 0x3 NOT ADD SLT PUSH2 0x1B JUMPI PUSH2 0x104 PUSH2 0x1065 JUMP JUMPDEST PUSH1 0x24 CALLDATALOAD DUP1 ISZERO ISZERO DUP2 SUB PUSH2 0x1B JUMPI PUSH2 0x20 SWAP2 PUSH2 0x129 PUSH1 0x1 DUP1 PUSH1 0xA0 SHL SUB PUSH1 0x2 SLOAD AND CALLER EQ PUSH2 0x1C03 JUMP JUMPDEST PUSH1 0x1 DUP1 PUSH1 0x40 SHL SUB AND PUSH1 0x0 MSTORE PUSH1 0x3 PUSH1 0x20 MSTORE PUSH1 0x9 PUSH1 0x40 PUSH1 0x0 KECCAK256 ADD SWAP1 PUSH1 0xFF DUP1 NOT DUP4 SLOAD AND SWAP2 ISZERO ISZERO AND OR SWAP1 SSTORE JUMP JUMPDEST CALLVALUE PUSH2 0x1B JUMPI PUSH1 0x60 CALLDATASIZE PUSH1 0x3 NOT ADD SLT PUSH2 0x1B JUMPI PUSH1 0x4 CALLDATALOAD PUSH1 0x1 PUSH1 0x1 PUSH1 0x40 SHL SUB DUP2 GT PUSH2 0x1B JUMPI PUSH2 0x182 SWAP1 CALLDATASIZE SWAP1 PUSH1 0x4 ADD PUSH2 0x11D9 JUMP JUMPDEST PUSH1 0x24 CALLDATALOAD SWAP1 PUSH1 0x1 PUSH1 0x1 PUSH1 0x40 SHL SUB DUP3 GT PUSH2 0x1B JUMPI CALLDATASIZE PUSH1 0x23 DUP4 ADD SLT ISZERO PUSH2 0x1B JUMPI DUP2 PUSH1 0x4 ADD CALLDATALOAD SWAP2 PUSH2 0x1AE DUP4 PUSH2 0x11C2 JUMP JUMPDEST SWAP3 PUSH2 0x1BC PUSH1 0x40 MLOAD SWAP5 DUP6 PUSH2 0x119F JUMP JUMPDEST DUP1 DUP5 MSTORE PUSH1 0x24 PUSH1 0x20 DUP6 ADD SWAP2 PUSH1 0x5 SHL DUP4 ADD ADD SWAP2 CALLDATASIZE DUP4 GT PUSH2 0x1B JUMPI PUSH1 0x24 ADD SWAP1 JUMPDEST DUP3 DUP3 LT PUSH2 0x3D5 JUMPI POP POP PUSH1 0x44 CALLDATALOAD SWAP2 SWAP1 POP PUSH1 0x1 PUSH1 0x1 PUSH1 0xA0 SHL SUB DUP3 AND DUP1 DUP4 SUB PUSH2 0x1B JUMPI DUP2 MLOAD DUP5 MLOAD SUB PUSH2 0x390 JUMPI PUSH2 0x217 PUSH1 0x1 DUP1 PUSH1 0xA0 SHL SUB PUSH1 0x2 SLOAD AND CALLER EQ PUSH2 0x1C03 JUMP JUMPDEST DUP1 PUSH2 0x2AC JUMPI POP PUSH1 0x0 JUMPDEST DUP2 MLOAD DUP2 LT ISZERO PUSH2 0x20 JUMPI PUSH1 0x1 SWAP1 PUSH1 0x0 DUP1 DUP1 DUP1 PUSH1 0x1 PUSH1 0x1 PUSH1 0xA0 SHL SUB PUSH2 0x243 DUP7 DUP10 PUSH2 0x1869 JUMP JUMPDEST MLOAD AND PUSH2 0x24F DUP7 DUP12 PUSH2 0x1869 JUMP JUMPDEST MLOAD SWAP1 GAS CALL PUSH2 0x25B PUSH2 0x1CA1 JUMP JUMPDEST POP PUSH2 0x267 JUMPI JUMPDEST ADD PUSH2 0x220 JUMP JUMPDEST PUSH1 0x0 DUP1 MLOAD PUSH1 0x20 PUSH2 0x1DA0 DUP4 CODECOPY DUP2 MLOAD SWAP2 MSTORE DUP3 DUP1 PUSH1 0xA0 SHL SUB PUSH2 0x286 DUP4 DUP7 PUSH2 0x1869 JUMP JUMPDEST MLOAD AND PUSH2 0x292 DUP4 DUP9 PUSH2 0x1869 JUMP JUMPDEST MLOAD SWAP1 PUSH2 0x2A4 DUP8 PUSH1 0x40 MLOAD SWAP4 DUP5 SWAP4 DUP5 PUSH2 0x1C7E JUMP JUMPDEST SUB SWAP1 LOG1 PUSH2 0x261 JUMP JUMPDEST SWAP3 SWAP2 PUSH1 0x0 JUMPDEST DUP3 MLOAD DUP2 LT ISZERO PUSH2 0x20 JUMPI PUSH2 0x2FB SWAP1 PUSH1 0x20 PUSH1 0x1 PUSH1 0x1 PUSH1 0xA0 SHL SUB PUSH2 0x2D2 DUP4 DUP8 PUSH2 0x1869 JUMP JUMPDEST MLOAD AND PUSH2 0x2DE DUP4 DUP9 PUSH2 0x1869 JUMP JUMPDEST MLOAD PUSH1 0x40 MLOAD PUSH4 0xA9059CBB PUSH1 0xE0 SHL DUP2 MSTORE SWAP5 DUP6 SWAP3 DUP4 SWAP3 SWAP1 PUSH1 0x4 DUP5 ADD PUSH2 0x1C63 JUMP JUMPDEST SUB DUP2 PUSH1 0x0 DUP11 GAS CALL SWAP2 DUP3 ISZERO PUSH2 0x384 JUMPI PUSH1 0x1 SWAP3 PUSH2 0x358 JUMPI JUMPDEST POP PUSH1 0x0 DUP1 MLOAD PUSH1 0x20 PUSH2 0x1DA0 DUP4 CODECOPY DUP2 MLOAD SWAP2 MSTORE DUP3 DUP1 PUSH1 0xA0 SHL SUB PUSH2 0x331 DUP4 DUP8 PUSH2 0x1869 JUMP JUMPDEST MLOAD AND PUSH2 0x33D DUP4 DUP9 PUSH2 0x1869 JUMP JUMPDEST MLOAD SWAP1 PUSH2 0x34F DUP7 PUSH1 0x40 MLOAD SWAP4 DUP5 SWAP4 DUP5 PUSH2 0x1C7E JUMP JUMPDEST SUB SWAP1 LOG1 ADD PUSH2 0x2B1 JUMP JUMPDEST PUSH2 0x378 SWAP1 PUSH1 0x20 RETURNDATASIZE DUP2 GT PUSH2 0x37D JUMPI JUMPDEST PUSH2 0x370 DUP2 DUP4 PUSH2 0x119F JUMP JUMPDEST DUP2 ADD SWAP1 PUSH2 0x1C4B JUMP JUMPDEST PUSH2 0x311 JUMP JUMPDEST POP RETURNDATASIZE PUSH2 0x366 JUMP JUMPDEST PUSH1 0x40 MLOAD RETURNDATASIZE PUSH1 0x0 DUP3 RETURNDATACOPY RETURNDATASIZE SWAP1 REVERT JUMPDEST PUSH1 0x40 MLOAD PUSH3 0x461BCD PUSH1 0xE5 SHL DUP2 MSTORE PUSH1 0x20 PUSH1 0x4 DUP3 ADD MSTORE PUSH1 0x1E PUSH1 0x24 DUP3 ADD MSTORE PUSH32 0x617272617973206D757374206265207468652073616D65206C656E6774680000 PUSH1 0x44 DUP3 ADD MSTORE PUSH1 0x64 SWAP1 REVERT JUMPDEST DUP2 CALLDATALOAD DUP2 MSTORE PUSH1 0x20 SWAP2 DUP3 ADD SWAP2 ADD PUSH2 0x1D9 JUMP JUMPDEST PUSH1 0xC0 CALLDATASIZE PUSH1 0x3 NOT ADD SLT PUSH2 0x1B JUMPI PUSH1 0x24 CALLDATALOAD PUSH1 0x1 PUSH1 0x1 PUSH1 0xA0 SHL SUB DUP2 AND SWAP1 PUSH1 0x4 CALLDATALOAD SWAP1 DUP3 SWAP1 SUB PUSH2 0x1B JUMPI PUSH1 0x44 CALLDATALOAD SWAP2 PUSH1 0x1 PUSH1 0x1 PUSH1 0x40 SHL SUB DUP4 GT PUSH2 0x1B JUMPI CALLDATASIZE PUSH1 0x23 DUP5 ADD SLT ISZERO PUSH2 0x1B JUMPI DUP3 PUSH1 0x4 ADD CALLDATALOAD SWAP3 PUSH2 0x436 DUP5 PUSH2 0x11C2 JUMP JUMPDEST SWAP1 PUSH2 0x444 PUSH1 0x40 MLOAD SWAP3 DUP4 PUSH2 0x119F JUMP JUMPDEST DUP5 DUP3 MSTORE PUSH1 0x24 PUSH1 0x20 DUP4 ADD SWAP6 PUSH1 0x5 SHL DUP3 ADD ADD SWAP1 CALLDATASIZE DUP3 GT PUSH2 0x1B JUMPI PUSH1 0x24 ADD SWAP5 JUMPDEST DUP2 DUP7 LT PUSH2 0xA28 JUMPI POP POP PUSH1 0x24 SWAP4 POP PUSH1 0x64 CALLDATALOAD SWAP3 PUSH1 0x84 CALLDATALOAD SWAP4 PUSH1 0xA4 CALLDATALOAD SWAP2 PUSH2 0x482 PUSH2 0x1D5D JUMP JUMPDEST PUSH1 0x1 SLOAD PUSH1 0x40 DUP1 MLOAD PUSH4 0xAB17F1EB PUSH1 0xE0 SHL DUP2 MSTORE PUSH1 0x4 DUP2 ADD DUP9 SWAP1 MSTORE SWAP9 DUP4 SWAP3 DUP11 SWAP2 SWAP1 DUP3 SWAP1 DUP5 SHR PUSH1 0x1 PUSH1 0x1 PUSH1 0xA0 SHL SUB AND GAS STATICCALL SWAP8 DUP9 ISZERO PUSH2 0x384 JUMPI PUSH1 0x0 SWAP9 PUSH2 0x9F4 JUMPI JUMPDEST POP DUP6 PUSH2 0x997 JUMPI POP POP CALLVALUE SWAP6 JUMPDEST DUP2 DUP7 GT ISZERO PUSH2 0x944 JUMPI DUP6 DUP4 LT PUSH2 0x8FF JUMPI PUSH2 0x4E3 CALLER ISZERO ISZERO PUSH2 0x1C03 JUMP JUMPDEST ISZERO PUSH2 0x8C3 JUMPI DUP6 ISZERO PUSH2 0x887 JUMPI PUSH2 0x507 PUSH2 0x4FF PUSH2 0x50F SWAP3 TIMESTAMP SWAP1 PUSH2 0x1C3E JUMP JUMPDEST SWAP6 TIMESTAMP SWAP1 PUSH2 0x1C3E JUMP JUMPDEST SWAP2 TIMESTAMP SWAP1 PUSH2 0x1C3E JUMP JUMPDEST SWAP1 PUSH1 0x40 MLOAD SWAP5 PUSH2 0x51D DUP7 PUSH2 0x1183 JUMP JUMPDEST CALLER DUP7 MSTORE PUSH1 0x20 DUP1 DUP8 ADD SWAP6 DUP7 MSTORE PUSH1 0x40 DUP1 DUP9 ADD SWAP9 DUP10 MSTORE PUSH1 0x60 DUP1 DUP10 ADD SWAP7 DUP8 MSTORE PUSH1 0x80 DUP10 ADD SWAP4 DUP5 MSTORE PUSH1 0xA0 DUP10 ADD SWAP5 DUP6 MSTORE PUSH1 0xC0 DUP10 ADD SWAP6 DUP7 MSTORE PUSH1 0xE0 DUP10 ADD DUP2 DUP2 MSTORE PUSH2 0x100 DUP11 ADD SWAP2 DUP3 MSTORE PUSH1 0x1 PUSH2 0x120 DUP12 ADD DUP2 DUP2 MSTORE DUP2 SLOAD PUSH1 0x1 PUSH1 0x1 PUSH1 0x40 SHL SUB SWAP1 DUP2 AND PUSH1 0x0 SWAP1 DUP2 MSTORE PUSH1 0x3 SWAP8 DUP9 SWAP1 MSTORE SWAP6 SWAP1 SWAP6 KECCAK256 SWAP12 MLOAD DUP13 SLOAD PUSH1 0x1 PUSH1 0x1 PUSH1 0xA0 SHL SUB NOT SWAP1 DUP2 AND PUSH1 0x1 PUSH1 0x1 PUSH1 0xA0 SHL SUB SWAP3 DUP4 AND OR DUP15 SSTORE SWAP12 MLOAD SWAP3 DUP14 ADD DUP1 SLOAD SWAP1 SWAP13 AND SWAP3 AND SWAP2 SWAP1 SWAP2 OR SWAP1 SWAP10 SSTORE SWAP10 MLOAD PUSH1 0x2 DUP11 ADD SSTORE SWAP6 MLOAD DUP1 MLOAD SWAP7 SWAP10 SWAP7 SWAP3 DUP10 ADD SWAP3 SWAP2 DUP3 GT PUSH2 0x75D JUMPI PUSH1 0x1 PUSH1 0x40 SHL DUP3 GT PUSH2 0x75D JUMPI PUSH1 0x20 SWAP1 DUP4 SLOAD DUP4 DUP6 SSTORE DUP1 DUP5 LT PUSH2 0x839 JUMPI JUMPDEST POP ADD SWAP2 PUSH1 0x0 MSTORE PUSH1 0x20 PUSH1 0x0 KECCAK256 DUP2 PUSH1 0x5 SHR SWAP2 PUSH1 0x0 JUMPDEST DUP4 DUP2 LT PUSH2 0x7F9 JUMPI POP PUSH1 0x1F NOT DUP2 AND SWAP1 SUB DUP1 PUSH2 0x7AD JUMPI JUMPDEST POP POP SWAP2 MLOAD PUSH1 0x4 DUP9 ADD SSTORE POP POP MLOAD PUSH1 0x5 DUP6 ADD SSTORE MLOAD PUSH1 0x6 DUP5 ADD SSTORE MLOAD DUP1 MLOAD SWAP1 PUSH1 0x7 DUP5 ADD SWAP1 PUSH1 0x1 PUSH1 0x1 PUSH1 0x40 SHL SUB DUP4 GT PUSH2 0x75D JUMPI PUSH1 0x1 PUSH1 0x40 SHL DUP4 GT PUSH2 0x75D JUMPI PUSH1 0x20 SWAP1 DUP3 SLOAD DUP5 DUP5 SSTORE DUP1 DUP6 LT PUSH2 0x790 JUMPI JUMPDEST POP ADD SWAP1 PUSH1 0x0 MSTORE PUSH1 0x20 PUSH1 0x0 KECCAK256 PUSH1 0x0 JUMPDEST DUP4 DUP2 LT PUSH2 0x773 JUMPI POP POP SWAP4 MLOAD DUP1 MLOAD PUSH1 0x8 DUP6 ADD SWAP6 POP SWAP2 POP PUSH1 0x1 PUSH1 0x1 PUSH1 0x40 SHL SUB DUP3 GT PUSH2 0x75D JUMPI PUSH1 0x1 PUSH1 0x40 SHL DUP3 GT PUSH2 0x75D JUMPI PUSH1 0x20 SWAP1 DUP6 SLOAD DUP4 DUP8 SSTORE DUP1 DUP5 LT PUSH2 0x740 JUMPI JUMPDEST POP ADD SWAP4 PUSH1 0x0 MSTORE PUSH1 0x20 PUSH1 0x0 KECCAK256 PUSH1 0x0 JUMPDEST DUP3 DUP2 LT PUSH2 0x723 JUMPI PUSH2 0x6D6 DUP6 PUSH1 0x9 DUP7 MLOAD ISZERO ISZERO SWAP2 ADD SWAP1 PUSH1 0xFF DUP1 NOT DUP4 SLOAD AND SWAP2 ISZERO ISZERO AND OR SWAP1 SSTORE JUMP JUMPDEST PUSH1 0x1 SLOAD PUSH1 0x1 PUSH1 0x1 PUSH1 0x40 SHL SUB DUP1 DUP3 AND SWAP1 DUP2 EQ PUSH2 0x70D JUMPI PUSH1 0x1 PUSH1 0x1 PUSH1 0x40 SHL SUB NOT SWAP1 SWAP2 AND PUSH1 0x1 SWAP2 DUP3 ADD PUSH1 0x1 PUSH1 0x1 PUSH1 0x40 SHL SUB AND OR DUP2 SSTORE PUSH1 0x0 SSTORE STOP JUMPDEST PUSH4 0x4E487B71 PUSH1 0xE0 SHL PUSH1 0x0 MSTORE PUSH1 0x11 PUSH1 0x4 MSTORE PUSH1 0x24 PUSH1 0x0 REVERT JUMPDEST DUP6 MLOAD PUSH1 0x1 PUSH1 0x1 PUSH1 0xA0 SHL SUB AND DUP2 DUP4 ADD SSTORE PUSH1 0x20 SWAP1 SWAP6 ADD SWAP5 PUSH1 0x1 ADD PUSH2 0x6B2 JUMP JUMPDEST PUSH2 0x757 SWAP1 DUP8 PUSH1 0x0 MSTORE DUP5 DUP5 PUSH1 0x0 KECCAK256 SWAP2 DUP3 ADD SWAP2 ADD PUSH2 0x1995 JUMP JUMPDEST DUP7 PUSH2 0x6A4 JUMP JUMPDEST PUSH4 0x4E487B71 PUSH1 0xE0 SHL PUSH1 0x0 MSTORE PUSH1 0x41 PUSH1 0x4 MSTORE PUSH1 0x24 PUSH1 0x0 REVERT JUMPDEST DUP3 MLOAD PUSH1 0x1 PUSH1 0x1 PUSH1 0xA0 SHL SUB AND DUP2 DUP4 ADD SSTORE PUSH1 0x20 SWAP1 SWAP3 ADD SWAP2 PUSH1 0x1 ADD PUSH2 0x666 JUMP JUMPDEST PUSH2 0x7A7 SWAP1 DUP5 PUSH1 0x0 MSTORE DUP6 DUP5 PUSH1 0x0 KECCAK256 SWAP2 DUP3 ADD SWAP2 ADD PUSH2 0x1995 JUMP JUMPDEST DUP8 PUSH2 0x658 JUMP JUMPDEST SWAP3 PUSH1 0x0 SWAP4 PUSH1 0x0 JUMPDEST DUP2 DUP2 LT PUSH2 0x7C9 JUMPI POP POP POP ADD SSTORE DUP8 DUP1 DUP1 DUP1 PUSH2 0x60F JUMP JUMPDEST SWAP1 SWAP2 SWAP5 PUSH1 0x20 PUSH2 0x7EF PUSH1 0x1 SWAP3 DUP5 PUSH1 0xFF DUP11 MLOAD AND SWAP2 SWAP1 PUSH1 0xFF DUP1 SWAP2 PUSH1 0x3 SHL SWAP4 AND DUP4 SHL SWAP3 SHL NOT AND OR SWAP1 JUMP JUMPDEST SWAP7 ADD SWAP3 SWAP2 ADD PUSH2 0x7B4 JUMP JUMPDEST PUSH1 0x0 DUP1 JUMPDEST PUSH1 0x20 DUP2 LT PUSH2 0x812 JUMPI POP DUP4 DUP3 ADD SSTORE PUSH1 0x1 ADD PUSH2 0x5FA JUMP JUMPDEST DUP7 MLOAD SWAP1 SWAP7 SWAP2 PUSH1 0x1 SWAP2 PUSH1 0x20 SWAP2 PUSH1 0xFF PUSH1 0x3 DUP12 SWAP1 SHL DUP2 DUP2 SHL NOT SWAP1 SWAP3 AND SWAP3 AND SWAP1 SHL OR SWAP3 ADD SWAP7 ADD PUSH2 0x7FD JUMP JUMPDEST PUSH2 0x865 SWAP1 DUP6 PUSH1 0x0 MSTORE DUP4 PUSH1 0x0 KECCAK256 PUSH1 0x1F DUP1 DUP8 ADD PUSH1 0x5 SHR DUP3 ADD SWAP3 DUP2 DUP9 AND DUP1 PUSH2 0x86B JUMPI JUMPDEST POP ADD PUSH1 0x5 SHR ADD SWAP1 PUSH2 0x1995 JUMP JUMPDEST DUP12 PUSH2 0x5E7 JUMP JUMPDEST PUSH1 0x0 NOT DUP6 ADD SWAP1 DUP2 SLOAD SWAP1 PUSH1 0x0 NOT SWAP1 DUP11 SUB PUSH1 0x3 SHL SHR AND SWAP1 SSTORE CODESIZE PUSH2 0x859 JUMP JUMPDEST PUSH1 0x40 MLOAD PUSH3 0x461BCD PUSH1 0xE5 SHL DUP2 MSTORE PUSH1 0x20 PUSH1 0x4 DUP3 ADD MSTORE PUSH1 0x14 PUSH1 0x24 DUP3 ADD MSTORE PUSH20 0x63686F6F7365207072697A652061626F7665203 PUSH1 0x64 SHL PUSH1 0x44 DUP3 ADD MSTORE PUSH1 0x64 SWAP1 REVERT JUMPDEST PUSH1 0x40 MLOAD PUSH3 0x461BCD PUSH1 0xE5 SHL DUP2 MSTORE PUSH1 0x20 PUSH1 0x4 DUP3 ADD MSTORE PUSH1 0x14 PUSH1 0x24 DUP3 ADD MSTORE PUSH20 0x21B0B713BA103AB9B2903A3434B9903A37B5B2B7 PUSH1 0x61 SHL PUSH1 0x44 DUP3 ADD MSTORE PUSH1 0x64 SWAP1 REVERT JUMPDEST PUSH1 0x40 MLOAD PUSH3 0x461BCD PUSH1 0xE5 SHL DUP2 MSTORE PUSH1 0x20 PUSH1 0x4 DUP3 ADD MSTORE PUSH1 0x1E PUSH1 0x24 DUP3 ADD MSTORE PUSH32 0x5072697A652074696D65206D757374206265203E3D20656E642074696D650000 PUSH1 0x44 DUP3 ADD MSTORE PUSH1 0x64 SWAP1 REVERT JUMPDEST PUSH1 0x40 MLOAD PUSH3 0x461BCD PUSH1 0xE5 SHL DUP2 MSTORE PUSH1 0x20 PUSH1 0x4 DUP3 ADD MSTORE PUSH1 0x25 PUSH1 0x24 DUP3 ADD MSTORE PUSH32 0x456E642074696D65206D757374206265206D6F7265207468616E207374617274 PUSH1 0x44 DUP3 ADD MSTORE PUSH5 0x2074696D65 PUSH1 0xD8 SHL PUSH1 0x64 DUP3 ADD MSTORE PUSH1 0x84 SWAP1 REVERT JUMPDEST PUSH1 0x40 SWAP8 SWAP2 SWAP8 MLOAD SWAP1 PUSH4 0x23B872DD PUSH1 0xE0 SHL DUP3 MSTORE CALLER PUSH1 0x4 DUP4 ADD MSTORE ADDRESS PUSH1 0x24 DUP4 ADD MSTORE PUSH1 0x44 DUP3 ADD MSTORE PUSH1 0x20 DUP2 PUSH1 0x64 DUP2 PUSH1 0x0 DUP11 GAS CALL DUP1 ISZERO PUSH2 0x384 JUMPI PUSH2 0x9D5 JUMPI JUMPDEST POP PUSH2 0x4C9 JUMP JUMPDEST PUSH2 0x9ED SWAP1 PUSH1 0x20 RETURNDATASIZE PUSH1 0x20 GT PUSH2 0x37D JUMPI PUSH2 0x370 DUP2 DUP4 PUSH2 0x119F JUMP JUMPDEST POP DUP8 PUSH2 0x9CF JUMP JUMPDEST SWAP1 SWAP8 POP PUSH1 0x40 DUP2 RETURNDATASIZE PUSH1 0x40 GT PUSH2 0xA20 JUMPI JUMPDEST DUP2 PUSH2 0xA10 PUSH1 0x40 SWAP4 DUP4 PUSH2 0x119F JUMP JUMPDEST DUP2 ADD SUB SLT PUSH2 0x1B JUMPI MLOAD SWAP7 DUP9 PUSH2 0x4BE JUMP JUMPDEST RETURNDATASIZE SWAP2 POP PUSH2 0xA03 JUMP JUMPDEST DUP6 CALLDATALOAD PUSH1 0xFF DUP2 AND DUP2 SUB PUSH2 0x1B JUMPI DUP2 MSTORE PUSH1 0x20 SWAP6 DUP7 ADD SWAP6 ADD PUSH2 0x461 JUMP JUMPDEST PUSH1 0x40 CALLDATASIZE PUSH1 0x3 NOT ADD SLT PUSH2 0x1B JUMPI PUSH2 0xA56 PUSH2 0x1065 JUMP JUMPDEST PUSH2 0xA5E PUSH2 0x1D5D JUMP JUMPDEST PUSH1 0x1 PUSH1 0x1 PUSH1 0x40 SHL SUB AND PUSH1 0x0 SWAP1 DUP2 MSTORE PUSH1 0x3 PUSH1 0x20 MSTORE PUSH1 0x40 SWAP1 KECCAK256 PUSH1 0x2 SWAP1 PUSH2 0xA83 CALLER ISZERO ISZERO PUSH2 0x1C03 JUMP JUMPDEST DUP1 SLOAD PUSH2 0xA99 SWAP1 PUSH1 0x1 PUSH1 0x1 PUSH1 0xA0 SHL SUB AND CALLER EQ PUSH2 0x1C03 JUMP JUMPDEST ADD PUSH2 0xAA7 PUSH1 0x24 CALLDATALOAD DUP3 SLOAD PUSH2 0x1C3E JUMP JUMPDEST SWAP1 SSTORE PUSH1 0x1 PUSH1 0x0 SSTORE STOP JUMPDEST CALLVALUE PUSH2 0x1B JUMPI PUSH1 0x20 CALLDATASIZE PUSH1 0x3 NOT ADD SLT PUSH2 0x1B JUMPI PUSH2 0xAC9 PUSH2 0x1065 JUMP JUMPDEST PUSH2 0xAD1 PUSH2 0x1247 JUMP JUMPDEST POP PUSH1 0x1 DUP1 PUSH1 0x40 SHL SUB AND PUSH1 0x0 MSTORE PUSH1 0x3 PUSH1 0x20 MSTORE PUSH2 0xBB1 PUSH1 0x40 PUSH1 0x0 KECCAK256 PUSH1 0xFF PUSH1 0x9 PUSH1 0x40 MLOAD SWAP3 PUSH2 0xAFB DUP5 PUSH2 0x1183 JUMP JUMPDEST DUP1 SLOAD PUSH1 0x1 PUSH1 0x1 PUSH1 0xA0 SHL SUB SWAP1 DUP2 AND DUP6 MSTORE PUSH1 0x1 DUP3 ADD SLOAD AND PUSH1 0x20 DUP6 ADD MSTORE PUSH1 0x2 DUP2 ADD SLOAD PUSH1 0x40 DUP1 DUP7 ADD SWAP2 SWAP1 SWAP2 MSTORE MLOAD PUSH2 0xB3C DUP2 PUSH2 0xB35 DUP2 PUSH1 0x3 DUP7 ADD PUSH2 0x1294 JUMP JUMPDEST SUB DUP3 PUSH2 0x119F JUMP JUMPDEST PUSH1 0x60 DUP6 ADD MSTORE PUSH1 0x4 DUP2 ADD SLOAD PUSH1 0x80 DUP6 ADD MSTORE PUSH1 0x5 DUP2 ADD SLOAD PUSH1 0xA0 DUP6 ADD MSTORE PUSH1 0x6 DUP2 ADD SLOAD PUSH1 0xC0 DUP6 ADD MSTORE PUSH1 0x40 MLOAD PUSH2 0xB73 DUP2 PUSH2 0xB35 DUP2 PUSH1 0x7 DUP7 ADD PUSH2 0x1826 JUMP JUMPDEST PUSH1 0xE0 DUP6 ADD MSTORE PUSH1 0x40 MLOAD PUSH2 0xB8C DUP2 PUSH2 0xB35 DUP2 PUSH1 0x8 DUP7 ADD PUSH2 0x1826 JUMP JUMPDEST PUSH2 0x100 DUP6 ADD MSTORE ADD SLOAD AND ISZERO ISZERO PUSH2 0x120 DUP3 ADD MSTORE PUSH1 0x40 MLOAD SWAP2 DUP3 SWAP2 PUSH1 0x20 DUP4 MSTORE PUSH1 0x20 DUP4 ADD SWAP1 PUSH2 0x10B8 JUMP JUMPDEST SUB SWAP1 RETURN JUMPDEST CALLVALUE PUSH2 0x1B JUMPI PUSH1 0x0 CALLDATASIZE PUSH1 0x3 NOT ADD SLT PUSH2 0x1B JUMPI PUSH1 0x2 SLOAD PUSH1 0x40 MLOAD PUSH1 0x1 PUSH1 0x1 PUSH1 0xA0 SHL SUB SWAP1 SWAP2 AND DUP2 MSTORE PUSH1 0x20 SWAP1 RETURN JUMPDEST CALLVALUE PUSH2 0x1B JUMPI PUSH1 0x20 CALLDATASIZE PUSH1 0x3 NOT ADD SLT PUSH2 0x1B JUMPI PUSH1 0x1 PUSH1 0x1 PUSH1 0x40 SHL SUB PUSH2 0xBFF PUSH2 0x1065 JUMP JUMPDEST AND DUP1 PUSH1 0x0 MSTORE PUSH1 0x3 PUSH1 0x20 MSTORE PUSH1 0x40 PUSH1 0x0 KECCAK256 PUSH1 0xFF PUSH1 0x9 DUP3 ADD SLOAD AND ISZERO PUSH2 0xD36 JUMPI PUSH2 0xC26 CALLER ISZERO ISZERO PUSH2 0x1C03 JUMP JUMPDEST PUSH1 0x0 DUP3 DUP2 MSTORE PUSH1 0x4 PUSH1 0x20 SWAP1 DUP2 MSTORE PUSH1 0x40 DUP1 DUP4 KECCAK256 CALLER DUP5 MSTORE SWAP1 SWAP2 MSTORE SWAP1 KECCAK256 SLOAD PUSH1 0x1 PUSH1 0x1 PUSH1 0x40 SHL SUB AND PUSH2 0xCF2 JUMPI PUSH1 0x4 DUP2 ADD SLOAD TIMESTAMP GT DUP1 PUSH2 0xCE5 JUMPI JUMPDEST ISZERO PUSH2 0xCA7 JUMPI PUSH1 0x7 ADD PUSH2 0xC6C CALLER DUP3 PUSH2 0x1893 JUMP JUMPDEST SLOAD PUSH1 0x0 SWAP2 DUP3 MSTORE PUSH1 0x4 PUSH1 0x20 SWAP1 DUP2 MSTORE PUSH1 0x40 DUP1 DUP5 KECCAK256 CALLER DUP6 MSTORE SWAP1 SWAP2 MSTORE SWAP1 SWAP2 KECCAK256 DUP1 SLOAD PUSH1 0x1 PUSH1 0x1 PUSH1 0x40 SHL SUB NOT AND PUSH1 0x1 PUSH1 0x1 PUSH1 0x40 SHL SUB SWAP3 SWAP1 SWAP3 AND SWAP2 SWAP1 SWAP2 OR SWAP1 SSTORE STOP JUMPDEST PUSH1 0x40 MLOAD PUSH3 0x461BCD PUSH1 0xE5 SHL DUP2 MSTORE PUSH1 0x20 PUSH1 0x4 DUP3 ADD MSTORE PUSH1 0x16 PUSH1 0x24 DUP3 ADD MSTORE PUSH22 0x6769766561776179206973206E6F7420616374697665 PUSH1 0x50 SHL PUSH1 0x44 DUP3 ADD MSTORE PUSH1 0x64 SWAP1 REVERT JUMPDEST POP TIMESTAMP PUSH1 0x5 DUP3 ADD SLOAD GT PUSH2 0xC5A JUMP JUMPDEST PUSH1 0x40 MLOAD PUSH3 0x461BCD PUSH1 0xE5 SHL DUP2 MSTORE PUSH1 0x20 PUSH1 0x4 DUP3 ADD MSTORE PUSH1 0x1C PUSH1 0x24 DUP3 ADD MSTORE PUSH28 0x165BDD48185C9948185B1C9958591E481C185C9D1A58DA5C185D1959 PUSH1 0x22 SHL PUSH1 0x44 DUP3 ADD MSTORE PUSH1 0x64 SWAP1 REVERT JUMPDEST PUSH1 0x40 MLOAD PUSH3 0x461BCD PUSH1 0xE5 SHL DUP2 MSTORE PUSH1 0x20 PUSH1 0x4 DUP3 ADD MSTORE PUSH1 0x16 PUSH1 0x24 DUP3 ADD MSTORE PUSH22 0x4769766561776179206973206E6F7420616374697665 PUSH1 0x50 SHL PUSH1 0x44 DUP3 ADD MSTORE PUSH1 0x64 SWAP1 REVERT JUMPDEST CALLVALUE PUSH2 0x1B JUMPI PUSH1 0x40 CALLDATASIZE PUSH1 0x3 NOT ADD SLT PUSH2 0x1B JUMPI PUSH2 0xD8D PUSH2 0x1065 JUMP JUMPDEST PUSH1 0x24 CALLDATALOAD SWAP1 PUSH1 0x1 PUSH1 0x1 PUSH1 0x40 SHL SUB DUP3 GT PUSH2 0x1B JUMPI PUSH2 0xDB0 PUSH2 0x20 SWAP3 CALLDATASIZE SWAP1 PUSH1 0x4 ADD PUSH2 0x11D9 JUMP JUMPDEST SWAP1 PUSH2 0x19AC JUMP JUMPDEST CALLVALUE PUSH2 0x1B JUMPI PUSH1 0x20 CALLDATASIZE PUSH1 0x3 NOT ADD SLT PUSH2 0x1B JUMPI PUSH1 0x1 PUSH1 0x1 PUSH1 0x40 SHL SUB PUSH2 0xDD7 PUSH2 0x1065 JUMP JUMPDEST AND PUSH1 0x0 MSTORE PUSH1 0x3 PUSH1 0x20 MSTORE PUSH2 0xB35 PUSH2 0xDFA PUSH1 0x8 PUSH1 0x40 PUSH1 0x0 KECCAK256 ADD PUSH1 0x40 MLOAD SWAP3 DUP4 DUP1 SWAP3 PUSH2 0x1826 JUMP JUMPDEST PUSH1 0x40 MLOAD DUP1 SWAP2 PUSH1 0x20 DUP3 ADD PUSH1 0x20 DUP4 MSTORE DUP2 MLOAD DUP1 SWAP2 MSTORE PUSH1 0x20 PUSH1 0x40 DUP5 ADD SWAP3 ADD SWAP1 PUSH1 0x0 JUMPDEST DUP2 DUP2 LT PUSH2 0xE26 JUMPI POP POP POP SUB SWAP1 RETURN JUMPDEST DUP3 MLOAD PUSH1 0x1 PUSH1 0x1 PUSH1 0xA0 SHL SUB AND DUP5 MSTORE DUP6 SWAP5 POP PUSH1 0x20 SWAP4 DUP5 ADD SWAP4 SWAP1 SWAP3 ADD SWAP2 PUSH1 0x1 ADD PUSH2 0xE18 JUMP JUMPDEST CALLVALUE PUSH2 0x1B JUMPI PUSH1 0x40 CALLDATASIZE PUSH1 0x3 NOT ADD SLT PUSH2 0x1B JUMPI PUSH2 0xE61 PUSH2 0x1065 JUMP JUMPDEST PUSH1 0x24 CALLDATALOAD PUSH1 0x1 PUSH1 0x1 PUSH1 0x40 SHL SUB DUP2 AND SWAP2 SWAP1 DUP3 DUP2 SUB PUSH2 0x1B JUMPI SWAP1 SWAP2 ISZERO PUSH2 0x104F JUMPI JUMPDEST PUSH1 0x1 PUSH1 0x1 PUSH1 0x40 SHL SUB AND DUP1 PUSH2 0xE92 DUP2 PUSH2 0x11C2 JUMP JUMPDEST SWAP3 PUSH2 0xEA0 PUSH1 0x40 MLOAD SWAP5 DUP6 PUSH2 0x119F JUMP JUMPDEST DUP2 DUP5 MSTORE PUSH1 0x1F NOT PUSH2 0xEAF DUP4 PUSH2 0x11C2 JUMP JUMPDEST ADD PUSH1 0x0 JUMPDEST DUP2 DUP2 LT PUSH2 0x1031 JUMPI POP POP PUSH1 0x1 PUSH1 0x1 PUSH1 0x40 SHL SUB SWAP1 DUP2 AND SWAP2 SWAP1 SWAP2 MUL SWAP1 DUP2 AND SWAP1 DUP2 SUB PUSH2 0x70D JUMPI JUMPDEST PUSH1 0x1 PUSH1 0x1 PUSH1 0x40 SHL SUB DUP2 AND DUP3 DUP2 LT ISZERO PUSH2 0xFC9 JUMPI DUP1 PUSH2 0xFB7 SWAP2 PUSH1 0x0 MSTORE PUSH1 0x3 PUSH1 0x20 MSTORE PUSH1 0x40 PUSH1 0x0 KECCAK256 PUSH1 0xFF PUSH1 0x9 PUSH1 0x40 MLOAD SWAP3 PUSH2 0xF0B DUP5 PUSH2 0x1183 JUMP JUMPDEST DUP1 SLOAD PUSH1 0x1 PUSH1 0x1 PUSH1 0xA0 SHL SUB SWAP1 DUP2 AND DUP6 MSTORE PUSH1 0x1 DUP3 ADD SLOAD AND PUSH1 0x20 DUP6 ADD MSTORE PUSH1 0x2 DUP2 ADD SLOAD PUSH1 0x40 DUP1 DUP7 ADD SWAP2 SWAP1 SWAP2 MSTORE MLOAD PUSH2 0xF45 DUP2 PUSH2 0xB35 DUP2 PUSH1 0x3 DUP7 ADD PUSH2 0x1294 JUMP JUMPDEST PUSH1 0x60 DUP6 ADD MSTORE PUSH1 0x4 DUP2 ADD SLOAD PUSH1 0x80 DUP6 ADD MSTORE PUSH1 0x5 DUP2 ADD SLOAD PUSH1 0xA0 DUP6 ADD MSTORE PUSH1 0x6 DUP2 ADD SLOAD PUSH1 0xC0 DUP6 ADD MSTORE PUSH1 0x40 MLOAD PUSH2 0xF7C DUP2 PUSH2 0xB35 DUP2 PUSH1 0x7 DUP7 ADD PUSH2 0x1826 JUMP JUMPDEST PUSH1 0xE0 DUP6 ADD MSTORE PUSH1 0x40 MLOAD PUSH2 0xF95 DUP2 PUSH2 0xB35 DUP2 PUSH1 0x8 DUP7 ADD PUSH2 0x1826 JUMP JUMPDEST PUSH2 0x100 DUP6 ADD MSTORE ADD SLOAD AND ISZERO ISZERO PUSH2 0x120 DUP3 ADD MSTORE PUSH2 0xFB0 DUP3 DUP8 PUSH2 0x1869 JUMP JUMPDEST MSTORE DUP5 PUSH2 0x1869 JUMP JUMPDEST POP PUSH1 0x1 ADD PUSH1 0x1 PUSH1 0x1 PUSH1 0x40 SHL SUB AND PUSH2 0xED6 JUMP JUMPDEST DUP4 PUSH1 0x40 MLOAD DUP1 SWAP2 PUSH1 0x20 DUP3 ADD PUSH1 0x20 DUP4 MSTORE DUP2 MLOAD DUP1 SWAP2 MSTORE PUSH1 0x40 DUP4 ADD SWAP1 PUSH1 0x20 PUSH1 0x40 DUP3 PUSH1 0x5 SHL DUP7 ADD ADD SWAP4 ADD SWAP2 PUSH1 0x0 SWAP1 JUMPDEST DUP3 DUP3 LT PUSH2 0x1002 JUMPI POP POP POP POP SUB SWAP1 RETURN JUMPDEST SWAP2 SWAP4 PUSH1 0x1 SWAP2 SWAP4 SWAP6 POP PUSH1 0x20 PUSH2 0x1021 DUP2 SWAP3 PUSH1 0x3F NOT DUP11 DUP3 SUB ADD DUP7 MSTORE DUP9 MLOAD PUSH2 0x10B8 JUMP JUMPDEST SWAP7 ADD SWAP3 ADD SWAP3 ADD DUP6 SWAP5 SWAP4 SWAP2 SWAP3 PUSH2 0xFF3 JUMP JUMPDEST PUSH1 0x20 SWAP2 SWAP3 SWAP4 POP PUSH2 0x103F PUSH2 0x1247 JUMP JUMPDEST DUP3 DUP3 DUP9 ADD ADD MSTORE ADD SWAP1 DUP4 SWAP3 SWAP2 PUSH2 0xEB3 JUMP JUMPDEST POP POP PUSH1 0x1 SLOAD PUSH1 0x0 SWAP1 PUSH1 0x1 PUSH1 0x1 PUSH1 0x40 SHL SUB AND PUSH2 0xE7F JUMP JUMPDEST PUSH1 0x4 CALLDATALOAD SWAP1 PUSH1 0x1 PUSH1 0x1 PUSH1 0x40 SHL SUB DUP3 AND DUP3 SUB PUSH2 0x1B JUMPI JUMP JUMPDEST SWAP1 PUSH1 0x20 DUP1 DUP4 MLOAD SWAP3 DUP4 DUP2 MSTORE ADD SWAP3 ADD SWAP1 PUSH1 0x0 JUMPDEST DUP2 DUP2 LT PUSH2 0x1099 JUMPI POP POP POP SWAP1 JUMP JUMPDEST DUP3 MLOAD PUSH1 0x1 PUSH1 0x1 PUSH1 0xA0 SHL SUB AND DUP5 MSTORE PUSH1 0x20 SWAP4 DUP5 ADD SWAP4 SWAP1 SWAP3 ADD SWAP2 PUSH1 0x1 ADD PUSH2 0x108C JUMP JUMPDEST SWAP1 PUSH2 0x140 DUP2 ADD PUSH1 0x1 DUP1 PUSH1 0xA0 SHL SUB DUP4 MLOAD AND DUP3 MSTORE PUSH1 0x1 DUP1 PUSH1 0xA0 SHL SUB PUSH1 0x20 DUP5 ADD MLOAD AND PUSH1 0x20 DUP4 ADD MSTORE PUSH1 0x40 DUP4 ADD MLOAD PUSH1 0x40 DUP4 ADD MSTORE PUSH1 0x60 DUP4 ADD MLOAD SWAP1 PUSH2 0x140 PUSH1 0x60 DUP5 ADD MSTORE DUP2 MLOAD DUP1 SWAP2 MSTORE PUSH1 0x20 PUSH2 0x160 DUP5 ADD SWAP3 ADD SWAP1 PUSH1 0x0 JUMPDEST DUP2 DUP2 LT PUSH2 0x116A JUMPI POP POP POP PUSH2 0x120 PUSH2 0x115F PUSH2 0x114B DUP3 SWAP4 PUSH1 0x80 DUP8 ADD MLOAD PUSH1 0x80 DUP8 ADD MSTORE PUSH1 0xA0 DUP8 ADD MLOAD PUSH1 0xA0 DUP8 ADD MSTORE PUSH1 0xC0 DUP8 ADD MLOAD PUSH1 0xC0 DUP8 ADD MSTORE PUSH1 0xE0 DUP8 ADD MLOAD DUP7 DUP3 SUB PUSH1 0xE0 DUP9 ADD MSTORE PUSH2 0x107B JUMP JUMPDEST PUSH2 0x100 DUP7 ADD MLOAD DUP6 DUP3 SUB PUSH2 0x100 DUP8 ADD MSTORE PUSH2 0x107B JUMP JUMPDEST SWAP4 ADD MLOAD ISZERO ISZERO SWAP2 ADD MSTORE SWAP1 JUMP JUMPDEST DUP3 MLOAD PUSH1 0xFF AND DUP5 MSTORE PUSH1 0x20 SWAP4 DUP5 ADD SWAP4 SWAP1 SWAP3 ADD SWAP2 PUSH1 0x1 ADD PUSH2 0x1106 JUMP JUMPDEST PUSH2 0x140 DUP2 ADD SWAP1 DUP2 LT PUSH1 0x1 PUSH1 0x1 PUSH1 0x40 SHL SUB DUP3 GT OR PUSH2 0x75D JUMPI PUSH1 0x40 MSTORE JUMP JUMPDEST PUSH1 0x1F SWAP1 SWAP2 ADD PUSH1 0x1F NOT AND DUP2 ADD SWAP1 PUSH1 0x1 PUSH1 0x1 PUSH1 0x40 SHL SUB DUP3 GT SWAP1 DUP3 LT OR PUSH2 0x75D JUMPI PUSH1 0x40 MSTORE JUMP JUMPDEST PUSH1 0x1 PUSH1 0x1 PUSH1 0x40 SHL SUB DUP2 GT PUSH2 0x75D JUMPI PUSH1 0x5 SHL PUSH1 0x20 ADD SWAP1 JUMP JUMPDEST SWAP1 DUP1 PUSH1 0x1F DUP4 ADD SLT ISZERO PUSH2 0x1B JUMPI DUP2 CALLDATALOAD SWAP1 PUSH2 0x11F1 DUP3 PUSH2 0x11C2 JUMP JUMPDEST SWAP3 PUSH2 0x11FF PUSH1 0x40 MLOAD SWAP5 DUP6 PUSH2 0x119F JUMP JUMPDEST DUP3 DUP5 MSTORE PUSH1 0x20 DUP1 DUP6 ADD SWAP4 PUSH1 0x5 SHL DUP3 ADD ADD SWAP2 DUP3 GT PUSH2 0x1B JUMPI PUSH1 0x20 ADD SWAP2 JUMPDEST DUP2 DUP4 LT PUSH2 0x1227 JUMPI POP POP POP SWAP1 JUMP JUMPDEST DUP3 CALLDATALOAD PUSH1 0x1 PUSH1 0x1 PUSH1 0xA0 SHL SUB DUP2 AND DUP2 SUB PUSH2 0x1B JUMPI DUP2 MSTORE PUSH1 0x20 SWAP3 DUP4 ADD SWAP3 ADD PUSH2 0x121A JUMP JUMPDEST PUSH1 0x40 MLOAD SWAP1 PUSH2 0x1254 DUP3 PUSH2 0x1183 JUMP JUMPDEST PUSH1 0x0 PUSH2 0x120 DUP4 DUP3 DUP2 MSTORE DUP3 PUSH1 0x20 DUP3 ADD MSTORE DUP3 PUSH1 0x40 DUP3 ADD MSTORE PUSH1 0x60 DUP1 DUP3 ADD MSTORE DUP3 PUSH1 0x80 DUP3 ADD MSTORE DUP3 PUSH1 0xA0 DUP3 ADD MSTORE DUP3 PUSH1 0xC0 DUP3 ADD MSTORE PUSH1 0x60 PUSH1 0xE0 DUP3 ADD MSTORE PUSH1 0x60 PUSH2 0x100 DUP3 ADD MSTORE ADD MSTORE JUMP JUMPDEST DUP1 SLOAD DUP1 DUP4 MSTORE PUSH1 0x0 SWAP2 DUP3 MSTORE PUSH1 0x20 DUP1 DUP4 KECCAK256 SWAP4 ADD SWAP3 JUMPDEST DUP2 PUSH1 0x1F DUP5 ADD LT PUSH2 0x1684 JUMPI SLOAD SWAP2 DUP2 DUP2 LT PUSH2 0x1670 JUMPI JUMPDEST DUP2 DUP2 LT PUSH2 0x1659 JUMPI JUMPDEST DUP2 DUP2 LT PUSH2 0x1642 JUMPI JUMPDEST DUP2 DUP2 LT PUSH2 0x162B JUMPI JUMPDEST DUP2 DUP2 LT PUSH2 0x1615 JUMPI JUMPDEST DUP2 DUP2 LT PUSH2 0x15FE JUMPI JUMPDEST DUP2 DUP2 LT PUSH2 0x15E7 JUMPI JUMPDEST DUP2 DUP2 LT PUSH2 0x15D0 JUMPI JUMPDEST DUP2 DUP2 LT PUSH2 0x15B9 JUMPI JUMPDEST DUP2 DUP2 LT PUSH2 0x15A2 JUMPI JUMPDEST DUP2 DUP2 LT PUSH2 0x158B JUMPI JUMPDEST DUP2 DUP2 LT PUSH2 0x1574 JUMPI JUMPDEST DUP2 DUP2 LT PUSH2 0x155D JUMPI JUMPDEST DUP2 DUP2 LT PUSH2 0x1546 JUMPI JUMPDEST DUP2 DUP2 LT PUSH2 0x152F JUMPI JUMPDEST DUP2 DUP2 LT PUSH2 0x1518 JUMPI JUMPDEST DUP2 DUP2 LT PUSH2 0x1501 JUMPI JUMPDEST DUP2 DUP2 LT PUSH2 0x14EA JUMPI JUMPDEST DUP2 DUP2 LT PUSH2 0x14D3 JUMPI JUMPDEST DUP2 DUP2 LT PUSH2 0x14BC JUMPI JUMPDEST DUP2 DUP2 LT PUSH2 0x14A5 JUMPI JUMPDEST DUP2 DUP2 LT PUSH2 0x148E JUMPI JUMPDEST DUP2 DUP2 LT PUSH2 0x1477 JUMPI JUMPDEST DUP2 DUP2 LT PUSH2 0x1460 JUMPI JUMPDEST DUP2 DUP2 LT PUSH2 0x1449 JUMPI JUMPDEST DUP2 DUP2 LT PUSH2 0x1432 JUMPI JUMPDEST DUP2 DUP2 LT PUSH2 0x141B JUMPI JUMPDEST DUP2 DUP2 LT PUSH2 0x1404 JUMPI JUMPDEST DUP2 DUP2 LT PUSH2 0x13ED JUMPI JUMPDEST DUP2 DUP2 LT PUSH2 0x13D6 JUMPI JUMPDEST DUP2 DUP2 LT PUSH2 0x13BF JUMPI JUMPDEST LT PUSH2 0x13B4 JUMPI POP SWAP1 JUMP JUMPDEST PUSH1 0xF8 SHR DUP2 MSTORE PUSH1 0x20 ADD SWAP1 JUMP JUMPDEST SWAP3 PUSH1 0x20 PUSH1 0x1 SWAP2 PUSH1 0xFF DUP6 PUSH1 0xF0 SHR AND DUP2 MSTORE ADD SWAP4 ADD PUSH2 0x13AB JUMP JUMPDEST SWAP3 PUSH1 0x20 PUSH1 0x1 SWAP2 PUSH1 0xFF DUP6 PUSH1 0xE8 SHR AND DUP2 MSTORE ADD SWAP4 ADD PUSH2 0x13A3 JUMP JUMPDEST SWAP3 PUSH1 0x20 PUSH1 0x1 SWAP2 PUSH1 0xFF DUP6 PUSH1 0xE0 SHR AND DUP2 MSTORE ADD SWAP4 ADD PUSH2 0x139B JUMP JUMPDEST SWAP3 PUSH1 0x20 PUSH1 0x1 SWAP2 PUSH1 0xFF DUP6 PUSH1 0xD8 SHR AND DUP2 MSTORE ADD SWAP4 ADD PUSH2 0x1393 JUMP JUMPDEST SWAP3 PUSH1 0x20 PUSH1 0x1 SWAP2 PUSH1 0xFF DUP6 PUSH1 0xD0 SHR AND DUP2 MSTORE ADD SWAP4 ADD PUSH2 0x138B JUMP JUMPDEST SWAP3 PUSH1 0x20 PUSH1 0x1 SWAP2 PUSH1 0xFF DUP6 PUSH1 0xC8 SHR AND DUP2 MSTORE ADD SWAP4 ADD PUSH2 0x1383 JUMP JUMPDEST SWAP3 PUSH1 0x20 PUSH1 0x1 SWAP2 PUSH1 0xFF DUP6 PUSH1 0xC0 SHR AND DUP2 MSTORE ADD SWAP4 ADD PUSH2 0x137B JUMP JUMPDEST SWAP3 PUSH1 0x20 PUSH1 0x1 SWAP2 PUSH1 0xFF DUP6 PUSH1 0xB8 SHR AND DUP2 MSTORE ADD SWAP4 ADD PUSH2 0x1373 JUMP JUMPDEST SWAP3 PUSH1 0x20 PUSH1 0x1 SWAP2 PUSH1 0xFF DUP6 PUSH1 0xB0 SHR AND DUP2 MSTORE ADD SWAP4 ADD PUSH2 0x136B JUMP JUMPDEST SWAP3 PUSH1 0x20 PUSH1 0x1 SWAP2 PUSH1 0xFF DUP6 PUSH1 0xA8 SHR AND DUP2 MSTORE ADD SWAP4 ADD PUSH2 0x1363 JUMP JUMPDEST SWAP3 PUSH1 0x20 PUSH1 0x1 SWAP2 PUSH1 0xFF DUP6 PUSH1 0xA0 SHR AND DUP2 MSTORE ADD SWAP4 ADD PUSH2 0x135B JUMP JUMPDEST SWAP3 PUSH1 0x20 PUSH1 0x1 SWAP2 PUSH1 0xFF DUP6 PUSH1 0x98 SHR AND DUP2 MSTORE ADD SWAP4 ADD PUSH2 0x1353 JUMP JUMPDEST SWAP3 PUSH1 0x20 PUSH1 0x1 SWAP2 PUSH1 0xFF DUP6 PUSH1 0x90 SHR AND DUP2 MSTORE ADD SWAP4 ADD PUSH2 0x134B JUMP JUMPDEST SWAP3 PUSH1 0x20 PUSH1 0x1 SWAP2 PUSH1 0xFF DUP6 PUSH1 0x88 SHR AND DUP2 MSTORE ADD SWAP4 ADD PUSH2 0x1343 JUMP JUMPDEST SWAP3 PUSH1 0x20 PUSH1 0x1 SWAP2 PUSH1 0xFF DUP6 PUSH1 0x80 SHR AND DUP2 MSTORE ADD SWAP4 ADD PUSH2 0x133B JUMP JUMPDEST SWAP3 PUSH1 0x20 PUSH1 0x1 SWAP2 PUSH1 0xFF DUP6 PUSH1 0x78 SHR AND DUP2 MSTORE ADD SWAP4 ADD PUSH2 0x1333 JUMP JUMPDEST SWAP3 PUSH1 0x20 PUSH1 0x1 SWAP2 PUSH1 0xFF DUP6 PUSH1 0x70 SHR AND DUP2 MSTORE ADD SWAP4 ADD PUSH2 0x132B JUMP JUMPDEST SWAP3 PUSH1 0x20 PUSH1 0x1 SWAP2 PUSH1 0xFF DUP6 PUSH1 0x68 SHR AND DUP2 MSTORE ADD SWAP4 ADD PUSH2 0x1323 JUMP JUMPDEST SWAP3 PUSH1 0x20 PUSH1 0x1 SWAP2 PUSH1 0xFF DUP6 PUSH1 0x60 SHR AND DUP2 MSTORE ADD SWAP4 ADD PUSH2 0x131B JUMP JUMPDEST SWAP3 PUSH1 0x20 PUSH1 0x1 SWAP2 PUSH1 0xFF DUP6 PUSH1 0x58 SHR AND DUP2 MSTORE ADD SWAP4 ADD PUSH2 0x1313 JUMP JUMPDEST SWAP3 PUSH1 0x20 PUSH1 0x1 SWAP2 PUSH1 0xFF DUP6 PUSH1 0x50 SHR AND DUP2 MSTORE ADD SWAP4 ADD PUSH2 0x130B JUMP JUMPDEST SWAP3 PUSH1 0x20 PUSH1 0x1 SWAP2 PUSH1 0xFF DUP6 PUSH1 0x48 SHR AND DUP2 MSTORE ADD SWAP4 ADD PUSH2 0x1303 JUMP JUMPDEST SWAP3 PUSH1 0x20 PUSH1 0x1 SWAP2 PUSH1 0xFF DUP6 PUSH1 0x40 SHR AND DUP2 MSTORE ADD SWAP4 ADD PUSH2 0x12FB JUMP JUMPDEST SWAP3 PUSH1 0x20 PUSH1 0x1 SWAP2 PUSH1 0xFF DUP6 PUSH1 0x38 SHR AND DUP2 MSTORE ADD SWAP4 ADD PUSH2 0x12F3 JUMP JUMPDEST SWAP3 PUSH1 0x20 PUSH1 0x1 SWAP2 PUSH1 0xFF DUP6 PUSH1 0x30 SHR AND DUP2 MSTORE ADD SWAP4 ADD PUSH2 0x12EB JUMP JUMPDEST SWAP3 PUSH1 0x20 PUSH1 0x1 SWAP2 PUSH1 0xFF DUP6 PUSH1 0x28 SHR AND DUP2 MSTORE ADD SWAP4 ADD PUSH2 0x12E3 JUMP JUMPDEST SWAP3 PUSH1 0x20 PUSH1 0x1 SWAP2 PUSH1 0xFF DUP6 DUP4 SHR AND DUP2 MSTORE ADD SWAP4 ADD PUSH2 0x12DB JUMP JUMPDEST SWAP3 PUSH1 0x20 PUSH1 0x1 SWAP2 PUSH1 0xFF DUP6 PUSH1 0x18 SHR AND DUP2 MSTORE ADD SWAP4 ADD PUSH2 0x12D3 JUMP JUMPDEST SWAP3 PUSH1 0x20 PUSH1 0x1 SWAP2 PUSH1 0xFF DUP6 PUSH1 0x10 SHR AND DUP2 MSTORE ADD SWAP4 ADD PUSH2 0x12CB JUMP JUMPDEST SWAP3 PUSH1 0x20 PUSH1 0x1 SWAP2 PUSH1 0xFF DUP6 PUSH1 0x8 SHR AND DUP2 MSTORE ADD SWAP4 ADD PUSH2 0x12C3 JUMP JUMPDEST SWAP3 PUSH1 0x20 PUSH1 0x1 SWAP2 PUSH1 0xFF DUP6 AND DUP2 MSTORE ADD SWAP4 ADD PUSH2 0x12BB JUMP JUMPDEST SWAP3 PUSH1 0x1 PUSH2 0x400 PUSH1 0x20 SWAP3 DUP7 SLOAD PUSH1 0xFF DUP2 AND DUP3 MSTORE PUSH1 0xFF DUP2 PUSH1 0x8 SHR AND DUP6 DUP4 ADD MSTORE PUSH1 0xFF DUP2 PUSH1 0x10 SHR AND PUSH1 0x40 DUP4 ADD MSTORE PUSH1 0xFF DUP2 PUSH1 0x18 SHR AND PUSH1 0x60 DUP4 ADD MSTORE PUSH1 0xFF DUP2 DUP7 SHR AND PUSH1 0x80 DUP4 ADD MSTORE PUSH1 0xFF DUP2 PUSH1 0x28 SHR AND PUSH1 0xA0 DUP4 ADD MSTORE PUSH1 0xFF DUP2 PUSH1 0x30 SHR AND PUSH1 0xC0 DUP4 ADD MSTORE PUSH1 0xFF DUP2 PUSH1 0x38 SHR AND PUSH1 0xE0 DUP4 ADD MSTORE PUSH1 0xFF DUP2 PUSH1 0x40 SHR AND PUSH2 0x100 DUP4 ADD MSTORE PUSH1 0xFF DUP2 PUSH1 0x48 SHR AND PUSH2 0x120 DUP4 ADD MSTORE PUSH1 0xFF DUP2 PUSH1 0x50 SHR AND PUSH2 0x140 DUP4 ADD MSTORE PUSH1 0xFF DUP2 PUSH1 0x58 SHR AND PUSH2 0x160 DUP4 ADD MSTORE PUSH1 0xFF DUP2 PUSH1 0x60 SHR AND PUSH2 0x180 DUP4 ADD MSTORE PUSH1 0xFF DUP2 PUSH1 0x68 SHR AND PUSH2 0x1A0 DUP4 ADD MSTORE PUSH1 0xFF DUP2 PUSH1 0x70 SHR AND PUSH2 0x1C0 DUP4 ADD MSTORE PUSH1 0xFF DUP2 PUSH1 0x78 SHR AND PUSH2 0x1E0 DUP4 ADD MSTORE PUSH1 0xFF DUP2 PUSH1 0x80 SHR AND PUSH2 0x200 DUP4 ADD MSTORE PUSH1 0xFF DUP2 PUSH1 0x88 SHR AND PUSH2 0x220 DUP4 ADD MSTORE PUSH1 0xFF DUP2 PUSH1 0x90 SHR AND PUSH2 0x240 DUP4 ADD MSTORE PUSH1 0xFF DUP2 PUSH1 0x98 SHR AND PUSH2 0x260 DUP4 ADD MSTORE PUSH1 0xFF DUP2 PUSH1 0xA0 SHR AND PUSH2 0x280 DUP4 ADD MSTORE PUSH1 0xFF DUP2 PUSH1 0xA8 SHR AND PUSH2 0x2A0 DUP4 ADD MSTORE PUSH1 0xFF DUP2 PUSH1 0xB0 SHR AND PUSH2 0x2C0 DUP4 ADD MSTORE PUSH1 0xFF DUP2 PUSH1 0xB8 SHR AND PUSH2 0x2E0 DUP4 ADD MSTORE PUSH1 0xFF DUP2 PUSH1 0xC0 SHR AND PUSH2 0x300 DUP4 ADD MSTORE PUSH1 0xFF DUP2 PUSH1 0xC8 SHR AND PUSH2 0x320 DUP4 ADD MSTORE PUSH1 0xFF DUP2 PUSH1 0xD0 SHR AND PUSH2 0x340 DUP4 ADD MSTORE PUSH1 0xFF DUP2 PUSH1 0xD8 SHR AND PUSH2 0x360 DUP4 ADD MSTORE PUSH1 0xFF DUP2 PUSH1 0xE0 SHR AND PUSH2 0x380 DUP4 ADD MSTORE PUSH1 0xFF DUP2 PUSH1 0xE8 SHR AND PUSH2 0x3A0 DUP4 ADD MSTORE PUSH1 0xFF DUP2 PUSH1 0xF0 SHR AND PUSH2 0x3C0 DUP4 ADD MSTORE PUSH1 0xF8 SHR PUSH2 0x3E0 DUP3 ADD MSTORE ADD SWAP5 ADD SWAP3 ADD SWAP2 PUSH2 0x12A7 JUMP JUMPDEST SWAP1 PUSH1 0x20 DUP3 SLOAD SWAP2 DUP3 DUP2 MSTORE ADD SWAP2 PUSH1 0x0 MSTORE PUSH1 0x20 PUSH1 0x0 KECCAK256 SWAP1 PUSH1 0x0 JUMPDEST DUP2 DUP2 LT PUSH2 0x184A JUMPI POP POP POP SWAP1 JUMP JUMPDEST DUP3 SLOAD PUSH1 0x1 PUSH1 0x1 PUSH1 0xA0 SHL SUB AND DUP5 MSTORE PUSH1 0x20 SWAP1 SWAP4 ADD SWAP3 PUSH1 0x1 SWAP3 DUP4 ADD SWAP3 ADD PUSH2 0x183D JUMP JUMPDEST DUP1 MLOAD DUP3 LT ISZERO PUSH2 0x187D JUMPI PUSH1 0x20 SWAP2 PUSH1 0x5 SHL ADD ADD SWAP1 JUMP JUMPDEST PUSH4 0x4E487B71 PUSH1 0xE0 SHL PUSH1 0x0 MSTORE PUSH1 0x32 PUSH1 0x4 MSTORE PUSH1 0x24 PUSH1 0x0 REVERT JUMPDEST DUP1 SLOAD SWAP1 PUSH1 0x1 PUSH1 0x40 SHL DUP3 LT ISZERO PUSH2 0x75D JUMPI PUSH1 0x1 DUP3 ADD DUP1 DUP3 SSTORE DUP3 LT ISZERO PUSH2 0x187D JUMPI PUSH1 0x0 SWAP1 DUP2 MSTORE PUSH1 0x20 SWAP1 KECCAK256 ADD DUP1 SLOAD PUSH1 0x1 PUSH1 0x1 PUSH1 0xA0 SHL SUB NOT AND PUSH1 0x1 PUSH1 0x1 PUSH1 0xA0 SHL SUB SWAP1 SWAP3 AND SWAP2 SWAP1 SWAP2 OR SWAP1 SSTORE JUMP JUMPDEST PUSH1 0x1 PUSH1 0x1 PUSH1 0x40 SHL SUB SWAP1 SWAP2 AND DUP2 MSTORE PUSH1 0x40 PUSH1 0x20 DUP3 ADD DUP2 SWAP1 MSTORE DUP3 SLOAD PUSH1 0x1 PUSH1 0x1 PUSH1 0xA0 SHL SUB SWAP1 DUP2 AND SWAP2 DUP4 ADD SWAP2 SWAP1 SWAP2 MSTORE PUSH1 0x1 DUP4 ADD SLOAD AND PUSH1 0x60 DUP3 ADD MSTORE PUSH1 0x2 DUP3 ADD SLOAD PUSH1 0x80 DUP3 ADD MSTORE PUSH2 0x140 PUSH1 0xA0 DUP3 ADD MSTORE PUSH2 0x160 PUSH1 0xFF PUSH1 0x9 PUSH2 0x1989 PUSH2 0x1973 PUSH2 0x193E PUSH2 0x180 DUP8 ADD PUSH1 0x3 DUP10 ADD PUSH2 0x1294 JUMP JUMPDEST PUSH1 0x4 DUP9 ADD SLOAD PUSH1 0xC0 DUP9 ADD MSTORE PUSH1 0x5 DUP9 ADD SLOAD PUSH1 0xE0 DUP9 ADD MSTORE PUSH1 0x6 DUP9 ADD SLOAD PUSH2 0x100 DUP9 ADD MSTORE DUP7 DUP2 SUB PUSH1 0x3F NOT ADD PUSH2 0x120 DUP9 ADD MSTORE PUSH1 0x7 DUP9 ADD PUSH2 0x1826 JUMP JUMPDEST DUP6 DUP2 SUB PUSH1 0x3F NOT ADD PUSH2 0x140 DUP8 ADD MSTORE PUSH1 0x8 DUP8 ADD PUSH2 0x1826 JUMP JUMPDEST SWAP5 ADD SLOAD AND ISZERO ISZERO SWAP2 ADD MSTORE SWAP1 JUMP JUMPDEST DUP2 DUP2 LT PUSH2 0x19A0 JUMPI POP POP JUMP JUMPDEST PUSH1 0x0 DUP2 SSTORE PUSH1 0x1 ADD PUSH2 0x1995 JUMP JUMPDEST SWAP2 SWAP1 SWAP2 PUSH1 0x1 DUP1 PUSH1 0x40 SHL SUB DUP2 AND PUSH1 0x0 MSTORE PUSH1 0x3 PUSH1 0x20 MSTORE PUSH1 0x40 PUSH1 0x0 KECCAK256 SWAP1 PUSH1 0x5 DUP3 ADD SLOAD TIMESTAMP GT ISZERO PUSH2 0x1BC6 JUMPI PUSH1 0x8 DUP3 ADD SWAP4 DUP5 SLOAD PUSH2 0x1B8D JUMPI PUSH1 0x2 SLOAD PUSH1 0x1 PUSH1 0x1 PUSH1 0xA0 SHL SUB AND CALLER SUB PUSH2 0x1B51 JUMPI PUSH1 0x9 DUP4 ADD DUP1 SLOAD PUSH1 0xFF NOT AND SWAP1 SSTORE PUSH1 0x7 DUP4 ADD SLOAD PUSH1 0x3 DUP5 ADD SLOAD SWAP1 DUP2 GT ISZERO PUSH2 0x1A6E JUMPI POP POP PUSH1 0x1 DUP3 ADD SLOAD PUSH1 0x2 DUP4 ADD SLOAD DUP4 SLOAD SWAP5 SWAP6 PUSH1 0x0 DUP1 MLOAD PUSH1 0x20 PUSH2 0x1D80 DUP4 CODECOPY DUP2 MLOAD SWAP2 MSTORE SWAP6 PUSH2 0x1A5A SWAP4 SWAP2 SWAP3 PUSH2 0x1A49 SWAP3 PUSH1 0x1 PUSH1 0x1 PUSH1 0xA0 SHL SUB SWAP3 DUP4 AND SWAP3 AND PUSH2 0x1CE0 JUMP JUMPDEST DUP4 SLOAD PUSH1 0x1 PUSH1 0x1 PUSH1 0xA0 SHL SUB AND SWAP1 PUSH2 0x1893 JUMP JUMPDEST PUSH2 0x1A69 PUSH1 0x40 MLOAD SWAP3 DUP4 SWAP3 DUP4 PUSH2 0x18D9 JUMP JUMPDEST SUB SWAP1 LOG1 JUMP JUMPDEST DUP2 MLOAD SUB PUSH2 0x1B15 JUMPI DUP1 MLOAD SWAP1 PUSH1 0x1 PUSH1 0x1 PUSH1 0x40 SHL SUB DUP3 GT PUSH2 0x75D JUMPI PUSH1 0x1 PUSH1 0x40 SHL DUP3 GT PUSH2 0x75D JUMPI PUSH1 0x20 SWAP1 DUP7 SLOAD DUP4 DUP9 SSTORE DUP1 DUP5 LT PUSH2 0x1AF8 JUMPI JUMPDEST POP ADD SWAP5 PUSH1 0x0 MSTORE PUSH1 0x20 PUSH1 0x0 KECCAK256 SWAP5 PUSH1 0x0 JUMPDEST DUP3 DUP2 LT PUSH2 0x1ADB JUMPI POP POP POP PUSH1 0x0 DUP1 MLOAD PUSH1 0x20 PUSH2 0x1D80 DUP4 CODECOPY DUP2 MLOAD SWAP2 MSTORE SWAP3 SWAP4 POP PUSH2 0x1A69 PUSH1 0x40 MLOAD SWAP3 DUP4 SWAP3 DUP4 PUSH2 0x18D9 JUMP JUMPDEST DUP2 MLOAD PUSH1 0x1 PUSH1 0x1 PUSH1 0xA0 SHL SUB AND DUP2 DUP9 ADD SSTORE PUSH1 0x20 SWAP1 SWAP2 ADD SWAP1 PUSH1 0x1 ADD PUSH2 0x1AB0 JUMP JUMPDEST PUSH2 0x1B0F SWAP1 DUP9 PUSH1 0x0 MSTORE DUP5 DUP5 PUSH1 0x0 KECCAK256 SWAP2 DUP3 ADD SWAP2 ADD PUSH2 0x1995 JUMP JUMPDEST CODESIZE PUSH2 0x1AA1 JUMP JUMPDEST PUSH1 0x40 MLOAD PUSH3 0x461BCD PUSH1 0xE5 SHL DUP2 MSTORE PUSH1 0x20 PUSH1 0x4 DUP3 ADD MSTORE PUSH1 0x14 PUSH1 0x24 DUP3 ADD MSTORE PUSH20 0x15DC9BDB99C81DDA5B9B995C9CC8185B5BDD5B9D PUSH1 0x62 SHL PUSH1 0x44 DUP3 ADD MSTORE PUSH1 0x64 SWAP1 REVERT JUMPDEST PUSH1 0x40 MLOAD PUSH3 0x461BCD PUSH1 0xE5 SHL DUP2 MSTORE PUSH1 0x20 PUSH1 0x4 DUP3 ADD MSTORE PUSH1 0x14 PUSH1 0x24 DUP3 ADD MSTORE PUSH20 0x2CB7BA9030B932B713BA103A34329037BBB732B9 PUSH1 0x61 SHL PUSH1 0x44 DUP3 ADD MSTORE PUSH1 0x64 SWAP1 REVERT JUMPDEST PUSH1 0x40 MLOAD PUSH3 0x461BCD PUSH1 0xE5 SHL DUP2 MSTORE PUSH1 0x20 PUSH1 0x4 DUP3 ADD MSTORE PUSH1 0x11 PUSH1 0x24 DUP3 ADD MSTORE PUSH17 0x11DA5D99585DD85E481A5CC8195B991959 PUSH1 0x7A SHL PUSH1 0x44 DUP3 ADD MSTORE PUSH1 0x64 SWAP1 REVERT JUMPDEST PUSH1 0x40 MLOAD PUSH3 0x461BCD PUSH1 0xE5 SHL DUP2 MSTORE PUSH1 0x20 PUSH1 0x4 DUP3 ADD MSTORE PUSH1 0x15 PUSH1 0x24 DUP3 ADD MSTORE PUSH21 0x11DA5D99585DD85E481A5CC81B9BDD08195B991959 PUSH1 0x5A SHL PUSH1 0x44 DUP3 ADD MSTORE PUSH1 0x64 SWAP1 REVERT JUMPDEST ISZERO PUSH2 0x1C0A JUMPI JUMP JUMPDEST PUSH1 0x40 MLOAD PUSH3 0x461BCD PUSH1 0xE5 SHL DUP2 MSTORE PUSH1 0x20 PUSH1 0x4 DUP3 ADD MSTORE PUSH1 0xC PUSH1 0x24 DUP3 ADD MSTORE PUSH12 0x2BB937B7339039B2B73232B9 PUSH1 0xA1 SHL PUSH1 0x44 DUP3 ADD MSTORE PUSH1 0x64 SWAP1 REVERT JUMPDEST SWAP2 SWAP1 DUP3 ADD DUP1 SWAP3 GT PUSH2 0x70D JUMPI JUMP JUMPDEST SWAP1 DUP2 PUSH1 0x20 SWAP2 SUB SLT PUSH2 0x1B JUMPI MLOAD DUP1 ISZERO ISZERO DUP2 SUB PUSH2 0x1B JUMPI SWAP1 JUMP JUMPDEST PUSH1 0x1 PUSH1 0x1 PUSH1 0xA0 SHL SUB SWAP1 SWAP2 AND DUP2 MSTORE PUSH1 0x20 DUP2 ADD SWAP2 SWAP1 SWAP2 MSTORE PUSH1 0x40 ADD SWAP1 JUMP JUMPDEST PUSH1 0x1 PUSH1 0x1 PUSH1 0xA0 SHL SUB SWAP2 DUP3 AND DUP2 MSTORE PUSH1 0x20 DUP2 ADD SWAP3 SWAP1 SWAP3 MSTORE SWAP1 SWAP2 AND PUSH1 0x40 DUP3 ADD MSTORE PUSH1 0x60 ADD SWAP1 JUMP JUMPDEST RETURNDATASIZE ISZERO PUSH2 0x1CDB JUMPI RETURNDATASIZE SWAP1 PUSH1 0x1 PUSH1 0x1 PUSH1 0x40 SHL SUB DUP3 GT PUSH2 0x75D JUMPI PUSH1 0x40 MLOAD SWAP2 PUSH2 0x1CCF PUSH1 0x1F DUP3 ADD PUSH1 0x1F NOT AND PUSH1 0x20 ADD DUP5 PUSH2 0x119F JUMP JUMPDEST DUP3 MSTORE RETURNDATASIZE PUSH1 0x0 PUSH1 0x20 DUP5 ADD RETURNDATACOPY JUMP JUMPDEST PUSH1 0x60 SWAP1 JUMP JUMPDEST SWAP1 SWAP2 SWAP1 PUSH1 0x1 PUSH1 0x1 PUSH1 0xA0 SHL SUB AND DUP1 PUSH2 0x1D0B JUMPI POP PUSH1 0x0 DUP1 DUP1 SWAP4 DUP2 SWAP4 GAS CALL PUSH2 0x1D03 PUSH2 0x1CA1 JUMP JUMPDEST POP ISZERO PUSH2 0x1B JUMPI JUMP JUMPDEST SWAP2 PUSH2 0x1D31 SWAP3 PUSH1 0x20 SWAP3 PUSH1 0x0 PUSH1 0x40 MLOAD DUP1 SWAP7 DUP2 SWAP6 DUP3 SWAP5 PUSH4 0xA9059CBB PUSH1 0xE0 SHL DUP5 MSTORE PUSH1 0x4 DUP5 ADD PUSH2 0x1C63 JUMP JUMPDEST SUB SWAP3 GAS CALL DUP1 ISZERO PUSH2 0x384 JUMPI PUSH2 0x1D42 JUMPI POP JUMP JUMPDEST PUSH2 0x1D5A SWAP1 PUSH1 0x20 RETURNDATASIZE PUSH1 0x20 GT PUSH2 0x37D JUMPI PUSH2 0x370 DUP2 DUP4 PUSH2 0x119F JUMP JUMPDEST POP JUMP JUMPDEST PUSH1 0x2 PUSH1 0x0 SLOAD EQ PUSH2 0x1D6E JUMPI PUSH1 0x2 PUSH1 0x0 SSTORE JUMP JUMPDEST PUSH4 0x3EE5AEB5 PUSH1 0xE0 SHL PUSH1 0x0 MSTORE PUSH1 0x4 PUSH1 0x0 REVERT INVALID DIV 0xC2 DUP15 0xC0 CALLER DUP11 CALLER 0x21 CALLER 0xE6 BLOBHASH DUP11 0xDD 0xD8 PREVRANDAO DUP13 0x2A CALLER SWAP2 0xE5 0x26 PUSH13 0xC871DA83916C27EE191D9A9C2F PUSH22 0x2930C6B65FFE6835D58A652F85B2E0D2CE30C65872C1 MSIZE DUP15 INVALID 0xCE 0xD2 0xBD LOG2 PUSH5 0x6970667358 0x22 SLT KECCAK256 0xD0 0xC3 DUP14 SMOD 0xDF PUSH2 0x6369 DUP7 0x28 DUP4 0x28 CODESIZE 0x4B SELFDESTRUCT DUP1 0xAD 0xE3 ORIGIN 0xA6 0xC9 0x2D TLOAD PUSH19 0xE8751480E0102CB264736F6C634300081C0033 "
        },
        "methodIdentifiers": {
          "addPrize(uint64,uint256)": "ce1911ee",
          "changeActive(uint64,bool)": "f2849144",
          "createGiveaway(uint256,address,uint8[],uint256,uint256,uint256)": "d9b75a8c",
          "endGiveaway(uint64,address[])": "5352937f",
          "getGiveaway(uint64)": "c3f12761",
          "getGiveaways(uint64,uint64)": "1dae1c8c",
          "getWinners(uint64)": "2d949136",
          "owner()": "8da5cb5b",
          "participate(uint64)": "8d212a89",
          "sendPrize(address[],uint256[],address)": "e399cbfd",
          "withdraw(address,uint256)": "f3fef3a3"
        }
      }
    }
  }
}