{
  "contracts/Payment.sol": {
    "Payments": {
      "abi": [
        {
          "inputs": [],
          "stateMutability": "nonpayable",
          "type": "constructor"
        },
        {
          "inputs": [],
          "name": "ReentrancyGuardReentrantCall",
          "type": "error"
        },
        {
          "anonymous": false,
          "inputs": [
            {
              "indexed": false,
              "internalType": "address",
              "name": "user",
              "type": "address"
            },
            {
              "indexed": false,
              "internalType": "uint8",
              "name": "amount",
              "type": "uint8"
            },
            {
              "indexed": false,
              "internalType": "uint256",
              "name": "price",
              "type": "uint256"
            },
            {
              "indexed": false,
              "internalType": "contract IERC20",
              "name": "token",
              "type": "address"
            },
            {
              "indexed": false,
              "internalType": "uint256",
              "name": "id",
              "type": "uint256"
            }
          ],
          "name": "newAiToken",
          "type": "event"
        },
        {
          "anonymous": false,
          "inputs": [
            {
              "indexed": false,
              "internalType": "address",
              "name": "from",
              "type": "address"
            },
            {
              "indexed": false,
              "internalType": "address",
              "name": "to",
              "type": "address"
            },
            {
              "indexed": false,
              "internalType": "uint256",
              "name": "amount",
              "type": "uint256"
            },
            {
              "indexed": false,
              "internalType": "contract IERC20",
              "name": "token",
              "type": "address"
            },
            {
              "indexed": false,
              "internalType": "uint256",
              "name": "id",
              "type": "uint256"
            }
          ],
          "name": "newDonation",
          "type": "event"
        },
        {
          "anonymous": false,
          "inputs": [
            {
              "indexed": false,
              "internalType": "address",
              "name": "user",
              "type": "address"
            },
            {
              "indexed": false,
              "internalType": "address",
              "name": "seller",
              "type": "address"
            },
            {
              "indexed": false,
              "internalType": "uint16",
              "name": "itemId",
              "type": "uint16"
            },
            {
              "indexed": false,
              "internalType": "uint256",
              "name": "price",
              "type": "uint256"
            },
            {
              "indexed": false,
              "internalType": "contract IERC20",
              "name": "token",
              "type": "address"
            },
            {
              "indexed": false,
              "internalType": "uint256",
              "name": "id",
              "type": "uint256"
            }
          ],
          "name": "newItem",
          "type": "event"
        },
        {
          "anonymous": false,
          "inputs": [
            {
              "indexed": false,
              "internalType": "address",
              "name": "user",
              "type": "address"
            },
            {
              "indexed": false,
              "internalType": "uint8",
              "name": "month",
              "type": "uint8"
            },
            {
              "indexed": false,
              "internalType": "uint256",
              "name": "price",
              "type": "uint256"
            },
            {
              "indexed": false,
              "internalType": "contract IERC20",
              "name": "token",
              "type": "address"
            },
            {
              "indexed": false,
              "internalType": "uint256",
              "name": "id",
              "type": "uint256"
            }
          ],
          "name": "newPremium",
          "type": "event"
        },
        {
          "anonymous": false,
          "inputs": [
            {
              "indexed": false,
              "internalType": "address",
              "name": "user",
              "type": "address"
            },
            {
              "indexed": false,
              "internalType": "address",
              "name": "subscribeTo",
              "type": "address"
            },
            {
              "indexed": false,
              "internalType": "uint8",
              "name": "month",
              "type": "uint8"
            },
            {
              "indexed": false,
              "internalType": "uint8",
              "name": "level",
              "type": "uint8"
            },
            {
              "indexed": false,
              "internalType": "uint256",
              "name": "price",
              "type": "uint256"
            },
            {
              "indexed": false,
              "internalType": "contract IERC20",
              "name": "token",
              "type": "address"
            },
            {
              "indexed": false,
              "internalType": "uint256",
              "name": "id",
              "type": "uint256"
            }
          ],
          "name": "newSubToUser",
          "type": "event"
        },
        {
          "stateMutability": "nonpayable",
          "type": "fallback"
        },
        {
          "inputs": [
            {
              "internalType": "address",
              "name": "_to",
              "type": "address"
            },
            {
              "internalType": "uint8",
              "name": "_amount",
              "type": "uint8"
            },
            {
              "internalType": "contract IERC20",
              "name": "_token",
              "type": "address"
            }
          ],
          "name": "buyAiToken",
          "outputs": [],
          "stateMutability": "payable",
          "type": "function"
        },
        {
          "inputs": [
            {
              "internalType": "address",
              "name": "_to",
              "type": "address"
            },
            {
              "internalType": "address",
              "name": "_seller",
              "type": "address"
            },
            {
              "internalType": "uint16",
              "name": "_itemId",
              "type": "uint16"
            },
            {
              "internalType": "contract IERC20",
              "name": "_token",
              "type": "address"
            }
          ],
          "name": "buyItem",
          "outputs": [],
          "stateMutability": "payable",
          "type": "function"
        },
        {
          "inputs": [
            {
              "internalType": "address",
              "name": "_to",
              "type": "address"
            },
            {
              "internalType": "uint8",
              "name": "_month",
              "type": "uint8"
            },
            {
              "internalType": "contract IERC20",
              "name": "_token",
              "type": "address"
            }
          ],
          "name": "buyPremium",
          "outputs": [],
          "stateMutability": "payable",
          "type": "function"
        },
        {
          "inputs": [
            {
              "internalType": "address",
              "name": "_to",
              "type": "address"
            },
            {
              "internalType": "address",
              "name": "_user",
              "type": "address"
            },
            {
              "internalType": "uint8",
              "name": "_month",
              "type": "uint8"
            },
            {
              "internalType": "uint8",
              "name": "_level",
              "type": "uint8"
            },
            {
              "internalType": "contract IERC20",
              "name": "_token",
              "type": "address"
            }
          ],
          "name": "buySubToUser",
          "outputs": [],
          "stateMutability": "payable",
          "type": "function"
        },
        {
          "inputs": [
            {
              "internalType": "address",
              "name": "_owner",
              "type": "address"
            }
          ],
          "name": "chagneOwner",
          "outputs": [],
          "stateMutability": "nonpayable",
          "type": "function"
        },
        {
          "inputs": [
            {
              "internalType": "uint16",
              "name": "_fee",
              "type": "uint16"
            }
          ],
          "name": "changeFee",
          "outputs": [],
          "stateMutability": "nonpayable",
          "type": "function"
        },
        {
          "inputs": [
            {
              "internalType": "contract IERC20",
              "name": "_token",
              "type": "address"
            },
            {
              "internalType": "uint16",
              "name": "_id",
              "type": "uint16"
            },
            {
              "internalType": "uint256",
              "name": "_price",
              "type": "uint256"
            }
          ],
          "name": "changeItemPrice",
          "outputs": [],
          "stateMutability": "nonpayable",
          "type": "function"
        },
        {
          "inputs": [
            {
              "internalType": "address",
              "name": "_user",
              "type": "address"
            },
            {
              "internalType": "uint16",
              "name": "_fee",
              "type": "uint16"
            }
          ],
          "name": "changePersonalFee",
          "outputs": [],
          "stateMutability": "nonpayable",
          "type": "function"
        },
        {
          "inputs": [
            {
              "internalType": "contract IERC20",
              "name": "_token",
              "type": "address"
            },
            {
              "internalType": "uint256",
              "name": "_premiumPrice",
              "type": "uint256"
            },
            {
              "internalType": "uint256",
              "name": "_aiPrice",
              "type": "uint256"
            }
          ],
          "name": "changeTokenPrices",
          "outputs": [],
          "stateMutability": "nonpayable",
          "type": "function"
        },
        {
          "inputs": [
            {
              "internalType": "contract IERC20",
              "name": "_token",
              "type": "address"
            },
            {
              "internalType": "uint8",
              "name": "_level",
              "type": "uint8"
            },
            {
              "internalType": "uint256",
              "name": "_price",
              "type": "uint256"
            }
          ],
          "name": "changeUserSubPrice",
          "outputs": [],
          "stateMutability": "nonpayable",
          "type": "function"
        },
        {
          "inputs": [
            {
              "internalType": "address",
              "name": "_user",
              "type": "address"
            },
            {
              "internalType": "uint256",
              "name": "_amount",
              "type": "uint256"
            },
            {
              "internalType": "contract IERC20",
              "name": "_token",
              "type": "address"
            }
          ],
          "name": "donation",
          "outputs": [],
          "stateMutability": "payable",
          "type": "function"
        },
        {
          "inputs": [
            {
              "internalType": "contract IERC20",
              "name": "_token",
              "type": "address"
            }
          ],
          "name": "getTokenPrices",
          "outputs": [
            {
              "internalType": "uint256",
              "name": "_premiumPrice",
              "type": "uint256"
            },
            {
              "internalType": "uint256",
              "name": "_aiPrice",
              "type": "uint256"
            }
          ],
          "stateMutability": "view",
          "type": "function"
        },
        {
          "inputs": [
            {
              "internalType": "address",
              "name": "_user",
              "type": "address"
            },
            {
              "internalType": "uint8",
              "name": "_level",
              "type": "uint8"
            },
            {
              "internalType": "contract IERC20",
              "name": "_token",
              "type": "address"
            }
          ],
          "name": "getUserLevelPrice",
          "outputs": [
            {
              "internalType": "uint256",
              "name": "_subLevelPrice",
              "type": "uint256"
            }
          ],
          "stateMutability": "view",
          "type": "function"
        },
        {
          "inputs": [],
          "name": "owner",
          "outputs": [
            {
              "internalType": "address payable",
              "name": "",
              "type": "address"
            }
          ],
          "stateMutability": "view",
          "type": "function"
        },
        {
          "inputs": [
            {
              "internalType": "address",
              "name": "",
              "type": "address"
            }
          ],
          "name": "personalFee",
          "outputs": [
            {
              "internalType": "uint16",
              "name": "",
              "type": "uint16"
            }
          ],
          "stateMutability": "view",
          "type": "function"
        },
        {
          "inputs": [
            {
              "internalType": "contract IERC20",
              "name": "_token",
              "type": "address"
            },
            {
              "internalType": "uint256",
              "name": "_amount",
              "type": "uint256"
            }
          ],
          "name": "withdraw",
          "outputs": [],
          "stateMutability": "nonpayable",
          "type": "function"
        },
        {
          "stateMutability": "payable",
          "type": "receive"
        }
      ],
      "evm": {
        "bytecode": {
          "linkReferences": {},
          "object": "60808060405234603c5760016000556002805462010000600160b01b0319163360101b62010000600160b01b0316179055610fa790816100428239f35b600080fdfe60806040526004361015610022575b3615610020573461001b57005b600080fd5b005b60003560e01c806310aa9d3414610bbd5780631c61ed9214610ac657806331829ff1146108ad5780633407facd14610867578063392f0403146107fa578063402af311146107975780634b5ad09e1461073d5780636d558bb2146105585780637849e367146104d757806387311b9a1461043a5780638da5cb5b1461040d578063ab17f1eb146103c1578063cc6533dd14610383578063ded97a9d14610212578063f0aecbc8146101b45763f3fef3a30361000e573461001b57604036600319011261001b576100f0610c3d565b6002546024359160109190911c6001600160a01b031690610112338314610d93565b6001600160a01b0316908161014d57505060025460009182918291829160101c6001600160a01b03165af1610145610e7e565b501561001b57005b916044602092936000604051958694859363a9059cbb60e01b8552600485015260248401525af180156101a85761018057005b6100209060203d6020116101a1575b6101998183610e2d565b810190610e66565b503d61018f565b6040513d6000823e3d90fd5b3461001b57606036600319011261001b576101cd610c3d565b6101e560018060a01b0360025460101c163314610d93565b6001600160a01b031660009081526004602090815260408083206024359055600390915290206044359055005b606036600319011261001b57610340610229610c3d565b7fb349e4993cef149e70b6e1c4b249cbf8571c7df1605d213ad5152c245e9e24dc610252610c69565b61025a610c53565b92610263610ebd565b61033860ff8316600181148015610379575b801561036f575b8015610365575b801561035b575b61029390610d08565b6102d860018060a01b038716918260005260046020526102b96040600020541515610d4b565b6102c4331515610d93565b826000526004602052604060002054610dce565b901561034a575b6002546102fa9060101c6001600160a01b0316338389610edf565b600154604080516001600160a01b03958616815260ff90961660208701528501919091529190941660608301526080820181905292819060a0820190565b0390a1610ce3565b6001908155600055005b61035681341015610de1565b6102df565b50600c811461028a565b5060098114610283565b506006811461027c565b5060038114610275565b3461001b57602036600319011261001b576001600160a01b036103a4610c3d565b166000526005602052602061ffff60406000205416604051908152f35b3461001b57602036600319011261001b5760406001600160a01b036103e4610c3d565b168060005260046020528160002054906000526003602052816000205482519182526020820152f35b3461001b57600036600319011261001b5760025460405160109190911c6001600160a01b03168152602090f35b606036600319011261001b57610340610451610c3d565b7f1aa13d83d0941f18b84ec5bd2489673b21a33087534ea39f9c2f69d8ffebf26561047a610c69565b610482610c53565b9261048b610ebd565b61033860018060a01b0385168060005260036020526104b06040600020541515610d4b565b6104bb331515610d93565b8060005260036020526102d860406000205460ff861690610dce565b3461001b57606036600319011261001b576104f0610c3d565b6104f8610c8f565b6001600160a01b03821660009081526004602052604090205461051c901515610ca0565b33600052600660205261ffff6040600020911660005260205260406000209060018060a01b031660005260205260406000206044359055600080f35b608036600319011261001b5761056c610c3d565b610574610c79565b6044359161ffff831680930361001b57606435926001600160a01b0384169081850361001b576105a2610ebd565b60018060a01b0384169384600052600660205260406000208260005260205260406000208360005260205260406000205495836000526004602052604060002054151580610734575b6105f490610ca0565b33600052600560205261ffff6040600020541615600014610715576103e861062561ffff80600254165b1689610dce565b049184156106bb575b9261068960c0959361034099936106727ff75bfe060373b450661e4e6eb654aad71847df6d54c2e9818b7ab96462ee101e99973361066c8589610e20565b84610edf565b60025460101c6001600160a01b0316913391610edf565b600154966040519460018060a01b0316855260208501526040840152606083015260808201528360a0820152a1610ce3565b9690939194928134106106d35792949193909661062e565b60405162461bcd60e51b815260206004820152601a6024820152794e6f7420656e6f7567682065746820746f20627579206974656d60301b6044820152606490fd5b3360005260056020526103e861062561ffff806040600020541661061e565b508615156105eb565b3461001b57602036600319011261001b57610756610c3d565b6002549061077233601084901c6001600160a01b031614610d93565b62010000600160b01b031990911660109190911b62010000600160b01b031617600255005b3461001b57604036600319011261001b576107b0610c3d565b6107b8610c8f565b906107d160018060a01b0360025460101c163314610d93565b60018060a01b0316600052600560205261ffff6040600020911661ffff19825416179055600080f35b3461001b57606036600319011261001b57610813610c3d565b61081b610c69565b610823610c53565b9160018060a01b0316600052600760205260ff6040600020911660005260205260406000209060018060a01b03166000526020526020604060002054604051908152f35b3461001b57602036600319011261001b5760043561ffff811680910361001b576002546108a233601083901c6001600160a01b031614610d93565b61ffff191617600255005b60a036600319011261001b576108c1610c3d565b6108c9610c79565b60443560ff811680910361001b576064359060ff821680920361001b57608435936001600160a01b03851680860361001b57610340957f1b011d73e7df1d8680c86a339410375bb01ae38e38411fc30c0912d61e2a4aa89460e09461092c610ebd565b600181148015610abc575b8015610ab2575b8015610aa8575b8015610a9e575b61095590610d08565b610a1d60018060a01b03891698896000526007602052604060002084600052602052604060002086600052602052604060002054151580610a87575b61099a90610d4b565b6109a5331515610d93565b8960005260076020526040600020846000526020526040600020866000526020526109d583604060002054610dce565b9433600052600560205261ffff6040600020541615600014610a65576106726103e8610a0961ffff80600254161689610dce565b04928815610a54575b3361066c858a610e20565b600154976040519560018060a01b03168652602086015260408501526060840152608083015260a08201528360c0820152a1610ce3565b610a6088341015610de1565b610a12565b3360005260056020526106726103e8610a0961ffff806040600020541661061e565b506000868152600460205260409020541515610991565b50600c811461094c565b5060098114610945565b506006811461093e565b5060038114610937565b606036600319011261001b57610ada610c3d565b610ae2610c53565b90610aeb610ebd565b6001600160a01b03821660008181526004602052604090205460243592919015610b8157610340938115610b79575b9160a091610b4c827f5a2f1ad79d3b13290e448ad9be056a7e0663f2109e69b98665aa82cc884cb73b95873391610edf565b6001549460405192338452600180861b0316602084015260408301526060820152836080820152a1610ce3565b349350610b1a565b60405162461bcd60e51b815260206004820152601460248201527331b0b713ba103ab9b2903a3434b9903a37b5b2b760611b6044820152606490fd5b3461001b57606036600319011261001b57610bd6610c3d565b610bde610c69565b6001600160a01b038216600090815260046020526040902054610c02901515610ca0565b33600052600760205260ff6040600020911660005260205260406000209060018060a01b031660005260205260406000206044359055600080f35b600435906001600160a01b038216820361001b57565b604435906001600160a01b038216820361001b57565b6024359060ff8216820361001b57565b602435906001600160a01b038216820361001b57565b6024359061ffff8216820361001b57565b15610ca757565b60405162461bcd60e51b815260206004820152601460248201527321b0b713ba103ab9b2903a3434b9903a37b5b2b760611b6044820152606490fd5b6000198114610cf25760010190565b634e487b7160e01b600052601160045260246000fd5b15610d0f57565b60405162461bcd60e51b8152602060048201526014602482015273086d0dedee6ca40c6dee4e4cac6e840dadedce8d60631b6044820152606490fd5b15610d5257565b60405162461bcd60e51b815260206004820152601960248201527821b0b713ba103830bc903bb4ba34103a3434b9903a37b5b2b760391b6044820152606490fd5b15610d9a57565b60405162461bcd60e51b815260206004820152600c60248201526b2bb937b7339039b2b73232b960a11b6044820152606490fd5b81810292918115918404141715610cf257565b15610de857565b60405162461bcd60e51b815260206004820152601060248201526f15dc9bdb99c8195d1a08185b5bdd5b9d60821b6044820152606490fd5b91908203918211610cf257565b601f909101601f19168101906001600160401b03821190821017610e5057604052565b634e487b7160e01b600052604160045260246000fd5b9081602091031261001b5751801515810361001b5790565b3d15610eb8573d906001600160401b038211610e505760405191610eac601f8201601f191660200184610e2d565b82523d6000602084013e565b606090565b600260005414610ece576002600055565b633ee5aeb560e01b60005260046000fd5b909291906001600160a01b031680610f0c575050600080809381935af1610f04610e7e565b501561001b57565b6040516323b872dd60e01b81526001600160a01b0392831660048201529190921660248201526044810192909252602090829060649082906000905af180156101a857610f565750565b610f6e9060203d6020116101a1576101998183610e2d565b5056fea26469706673582212209690ab42ca69dc01686dc29c08bb4ced4d92e21b15589494528c202cbcf3470164736f6c634300081c0033",
          "opcodes": "PUSH1 0x80 DUP1 PUSH1 0x40 MSTORE CALLVALUE PUSH1 0x3C JUMPI PUSH1 0x1 PUSH1 0x0 SSTORE PUSH1 0x2 DUP1 SLOAD PUSH3 0x10000 PUSH1 0x1 PUSH1 0xB0 SHL SUB NOT AND CALLER PUSH1 0x10 SHL PUSH3 0x10000 PUSH1 0x1 PUSH1 0xB0 SHL SUB AND OR SWAP1 SSTORE PUSH2 0xFA7 SWAP1 DUP2 PUSH2 0x42 DUP3 CODECOPY RETURN JUMPDEST PUSH1 0x0 DUP1 REVERT INVALID PUSH1 0x80 PUSH1 0x40 MSTORE PUSH1 0x4 CALLDATASIZE LT ISZERO PUSH2 0x22 JUMPI JUMPDEST CALLDATASIZE ISZERO PUSH2 0x20 JUMPI CALLVALUE PUSH2 0x1B JUMPI STOP JUMPDEST PUSH1 0x0 DUP1 REVERT JUMPDEST STOP JUMPDEST PUSH1 0x0 CALLDATALOAD PUSH1 0xE0 SHR DUP1 PUSH4 0x10AA9D34 EQ PUSH2 0xBBD JUMPI DUP1 PUSH4 0x1C61ED92 EQ PUSH2 0xAC6 JUMPI DUP1 PUSH4 0x31829FF1 EQ PUSH2 0x8AD JUMPI DUP1 PUSH4 0x3407FACD EQ PUSH2 0x867 JUMPI DUP1 PUSH4 0x392F0403 EQ PUSH2 0x7FA JUMPI DUP1 PUSH4 0x402AF311 EQ PUSH2 0x797 JUMPI DUP1 PUSH4 0x4B5AD09E EQ PUSH2 0x73D JUMPI DUP1 PUSH4 0x6D558BB2 EQ PUSH2 0x558 JUMPI DUP1 PUSH4 0x7849E367 EQ PUSH2 0x4D7 JUMPI DUP1 PUSH4 0x87311B9A EQ PUSH2 0x43A JUMPI DUP1 PUSH4 0x8DA5CB5B EQ PUSH2 0x40D JUMPI DUP1 PUSH4 0xAB17F1EB EQ PUSH2 0x3C1 JUMPI DUP1 PUSH4 0xCC6533DD EQ PUSH2 0x383 JUMPI DUP1 PUSH4 0xDED97A9D EQ PUSH2 0x212 JUMPI DUP1 PUSH4 0xF0AECBC8 EQ PUSH2 0x1B4 JUMPI PUSH4 0xF3FEF3A3 SUB PUSH2 0xE JUMPI CALLVALUE PUSH2 0x1B JUMPI PUSH1 0x40 CALLDATASIZE PUSH1 0x3 NOT ADD SLT PUSH2 0x1B JUMPI PUSH2 0xF0 PUSH2 0xC3D JUMP JUMPDEST PUSH1 0x2 SLOAD PUSH1 0x24 CALLDATALOAD SWAP2 PUSH1 0x10 SWAP2 SWAP1 SWAP2 SHR PUSH1 0x1 PUSH1 0x1 PUSH1 0xA0 SHL SUB AND SWAP1 PUSH2 0x112 CALLER DUP4 EQ PUSH2 0xD93 JUMP JUMPDEST PUSH1 0x1 PUSH1 0x1 PUSH1 0xA0 SHL SUB AND SWAP1 DUP2 PUSH2 0x14D JUMPI POP POP PUSH1 0x2 SLOAD PUSH1 0x0 SWAP2 DUP3 SWAP2 DUP3 SWAP2 DUP3 SWAP2 PUSH1 0x10 SHR PUSH1 0x1 PUSH1 0x1 PUSH1 0xA0 SHL SUB AND GAS CALL PUSH2 0x145 PUSH2 0xE7E JUMP JUMPDEST POP ISZERO PUSH2 0x1B JUMPI STOP JUMPDEST SWAP2 PUSH1 0x44 PUSH1 0x20 SWAP3 SWAP4 PUSH1 0x0 PUSH1 0x40 MLOAD SWAP6 DUP7 SWAP5 DUP6 SWAP4 PUSH4 0xA9059CBB PUSH1 0xE0 SHL DUP6 MSTORE PUSH1 0x4 DUP6 ADD MSTORE PUSH1 0x24 DUP5 ADD MSTORE GAS CALL DUP1 ISZERO PUSH2 0x1A8 JUMPI PUSH2 0x180 JUMPI STOP JUMPDEST PUSH2 0x20 SWAP1 PUSH1 0x20 RETURNDATASIZE PUSH1 0x20 GT PUSH2 0x1A1 JUMPI JUMPDEST PUSH2 0x199 DUP2 DUP4 PUSH2 0xE2D JUMP JUMPDEST DUP2 ADD SWAP1 PUSH2 0xE66 JUMP JUMPDEST POP RETURNDATASIZE PUSH2 0x18F JUMP JUMPDEST PUSH1 0x40 MLOAD RETURNDATASIZE PUSH1 0x0 DUP3 RETURNDATACOPY RETURNDATASIZE SWAP1 REVERT JUMPDEST CALLVALUE PUSH2 0x1B JUMPI PUSH1 0x60 CALLDATASIZE PUSH1 0x3 NOT ADD SLT PUSH2 0x1B JUMPI PUSH2 0x1CD PUSH2 0xC3D JUMP JUMPDEST PUSH2 0x1E5 PUSH1 0x1 DUP1 PUSH1 0xA0 SHL SUB PUSH1 0x2 SLOAD PUSH1 0x10 SHR AND CALLER EQ PUSH2 0xD93 JUMP JUMPDEST PUSH1 0x1 PUSH1 0x1 PUSH1 0xA0 SHL SUB AND PUSH1 0x0 SWAP1 DUP2 MSTORE PUSH1 0x4 PUSH1 0x20 SWAP1 DUP2 MSTORE PUSH1 0x40 DUP1 DUP4 KECCAK256 PUSH1 0x24 CALLDATALOAD SWAP1 SSTORE PUSH1 0x3 SWAP1 SWAP2 MSTORE SWAP1 KECCAK256 PUSH1 0x44 CALLDATALOAD SWAP1 SSTORE STOP JUMPDEST PUSH1 0x60 CALLDATASIZE PUSH1 0x3 NOT ADD SLT PUSH2 0x1B JUMPI PUSH2 0x340 PUSH2 0x229 PUSH2 0xC3D JUMP JUMPDEST PUSH32 0xB349E4993CEF149E70B6E1C4B249CBF8571C7DF1605D213AD5152C245E9E24DC PUSH2 0x252 PUSH2 0xC69 JUMP JUMPDEST PUSH2 0x25A PUSH2 0xC53 JUMP JUMPDEST SWAP3 PUSH2 0x263 PUSH2 0xEBD JUMP JUMPDEST PUSH2 0x338 PUSH1 0xFF DUP4 AND PUSH1 0x1 DUP2 EQ DUP1 ISZERO PUSH2 0x379 JUMPI JUMPDEST DUP1 ISZERO PUSH2 0x36F JUMPI JUMPDEST DUP1 ISZERO PUSH2 0x365 JUMPI JUMPDEST DUP1 ISZERO PUSH2 0x35B JUMPI JUMPDEST PUSH2 0x293 SWAP1 PUSH2 0xD08 JUMP JUMPDEST PUSH2 0x2D8 PUSH1 0x1 DUP1 PUSH1 0xA0 SHL SUB DUP8 AND SWAP2 DUP3 PUSH1 0x0 MSTORE PUSH1 0x4 PUSH1 0x20 MSTORE PUSH2 0x2B9 PUSH1 0x40 PUSH1 0x0 KECCAK256 SLOAD ISZERO ISZERO PUSH2 0xD4B JUMP JUMPDEST PUSH2 0x2C4 CALLER ISZERO ISZERO PUSH2 0xD93 JUMP JUMPDEST DUP3 PUSH1 0x0 MSTORE PUSH1 0x4 PUSH1 0x20 MSTORE PUSH1 0x40 PUSH1 0x0 KECCAK256 SLOAD PUSH2 0xDCE JUMP JUMPDEST SWAP1 ISZERO PUSH2 0x34A JUMPI JUMPDEST PUSH1 0x2 SLOAD PUSH2 0x2FA SWAP1 PUSH1 0x10 SHR PUSH1 0x1 PUSH1 0x1 PUSH1 0xA0 SHL SUB AND CALLER DUP4 DUP10 PUSH2 0xEDF JUMP JUMPDEST PUSH1 0x1 SLOAD PUSH1 0x40 DUP1 MLOAD PUSH1 0x1 PUSH1 0x1 PUSH1 0xA0 SHL SUB SWAP6 DUP7 AND DUP2 MSTORE PUSH1 0xFF SWAP1 SWAP7 AND PUSH1 0x20 DUP8 ADD MSTORE DUP6 ADD SWAP2 SWAP1 SWAP2 MSTORE SWAP2 SWAP1 SWAP5 AND PUSH1 0x60 DUP4 ADD MSTORE PUSH1 0x80 DUP3 ADD DUP2 SWAP1 MSTORE SWAP3 DUP2 SWAP1 PUSH1 0xA0 DUP3 ADD SWAP1 JUMP JUMPDEST SUB SWAP1 LOG1 PUSH2 0xCE3 JUMP JUMPDEST PUSH1 0x1 SWAP1 DUP2 SSTORE PUSH1 0x0 SSTORE STOP JUMPDEST PUSH2 0x356 DUP2 CALLVALUE LT ISZERO PUSH2 0xDE1 JUMP JUMPDEST PUSH2 0x2DF JUMP JUMPDEST POP PUSH1 0xC DUP2 EQ PUSH2 0x28A JUMP JUMPDEST POP PUSH1 0x9 DUP2 EQ PUSH2 0x283 JUMP JUMPDEST POP PUSH1 0x6 DUP2 EQ PUSH2 0x27C JUMP JUMPDEST POP PUSH1 0x3 DUP2 EQ PUSH2 0x275 JUMP JUMPDEST CALLVALUE PUSH2 0x1B JUMPI PUSH1 0x20 CALLDATASIZE PUSH1 0x3 NOT ADD SLT PUSH2 0x1B JUMPI PUSH1 0x1 PUSH1 0x1 PUSH1 0xA0 SHL SUB PUSH2 0x3A4 PUSH2 0xC3D JUMP JUMPDEST AND PUSH1 0x0 MSTORE PUSH1 0x5 PUSH1 0x20 MSTORE PUSH1 0x20 PUSH2 0xFFFF PUSH1 0x40 PUSH1 0x0 KECCAK256 SLOAD AND PUSH1 0x40 MLOAD SWAP1 DUP2 MSTORE RETURN JUMPDEST CALLVALUE PUSH2 0x1B JUMPI PUSH1 0x20 CALLDATASIZE PUSH1 0x3 NOT ADD SLT PUSH2 0x1B JUMPI PUSH1 0x40 PUSH1 0x1 PUSH1 0x1 PUSH1 0xA0 SHL SUB PUSH2 0x3E4 PUSH2 0xC3D JUMP JUMPDEST AND DUP1 PUSH1 0x0 MSTORE PUSH1 0x4 PUSH1 0x20 MSTORE DUP2 PUSH1 0x0 KECCAK256 SLOAD SWAP1 PUSH1 0x0 MSTORE PUSH1 0x3 PUSH1 0x20 MSTORE DUP2 PUSH1 0x0 KECCAK256 SLOAD DUP3 MLOAD SWAP2 DUP3 MSTORE PUSH1 0x20 DUP3 ADD MSTORE RETURN JUMPDEST CALLVALUE PUSH2 0x1B JUMPI PUSH1 0x0 CALLDATASIZE PUSH1 0x3 NOT ADD SLT PUSH2 0x1B JUMPI PUSH1 0x2 SLOAD PUSH1 0x40 MLOAD PUSH1 0x10 SWAP2 SWAP1 SWAP2 SHR PUSH1 0x1 PUSH1 0x1 PUSH1 0xA0 SHL SUB AND DUP2 MSTORE PUSH1 0x20 SWAP1 RETURN JUMPDEST PUSH1 0x60 CALLDATASIZE PUSH1 0x3 NOT ADD SLT PUSH2 0x1B JUMPI PUSH2 0x340 PUSH2 0x451 PUSH2 0xC3D JUMP JUMPDEST PUSH32 0x1AA13D83D0941F18B84EC5BD2489673B21A33087534EA39F9C2F69D8FFEBF265 PUSH2 0x47A PUSH2 0xC69 JUMP JUMPDEST PUSH2 0x482 PUSH2 0xC53 JUMP JUMPDEST SWAP3 PUSH2 0x48B PUSH2 0xEBD JUMP JUMPDEST PUSH2 0x338 PUSH1 0x1 DUP1 PUSH1 0xA0 SHL SUB DUP6 AND DUP1 PUSH1 0x0 MSTORE PUSH1 0x3 PUSH1 0x20 MSTORE PUSH2 0x4B0 PUSH1 0x40 PUSH1 0x0 KECCAK256 SLOAD ISZERO ISZERO PUSH2 0xD4B JUMP JUMPDEST PUSH2 0x4BB CALLER ISZERO ISZERO PUSH2 0xD93 JUMP JUMPDEST DUP1 PUSH1 0x0 MSTORE PUSH1 0x3 PUSH1 0x20 MSTORE PUSH2 0x2D8 PUSH1 0x40 PUSH1 0x0 KECCAK256 SLOAD PUSH1 0xFF DUP7 AND SWAP1 PUSH2 0xDCE JUMP JUMPDEST CALLVALUE PUSH2 0x1B JUMPI PUSH1 0x60 CALLDATASIZE PUSH1 0x3 NOT ADD SLT PUSH2 0x1B JUMPI PUSH2 0x4F0 PUSH2 0xC3D JUMP JUMPDEST PUSH2 0x4F8 PUSH2 0xC8F JUMP JUMPDEST PUSH1 0x1 PUSH1 0x1 PUSH1 0xA0 SHL SUB DUP3 AND PUSH1 0x0 SWAP1 DUP2 MSTORE PUSH1 0x4 PUSH1 0x20 MSTORE PUSH1 0x40 SWAP1 KECCAK256 SLOAD PUSH2 0x51C SWAP1 ISZERO ISZERO PUSH2 0xCA0 JUMP JUMPDEST CALLER PUSH1 0x0 MSTORE PUSH1 0x6 PUSH1 0x20 MSTORE PUSH2 0xFFFF PUSH1 0x40 PUSH1 0x0 KECCAK256 SWAP2 AND PUSH1 0x0 MSTORE PUSH1 0x20 MSTORE PUSH1 0x40 PUSH1 0x0 KECCAK256 SWAP1 PUSH1 0x1 DUP1 PUSH1 0xA0 SHL SUB AND PUSH1 0x0 MSTORE PUSH1 0x20 MSTORE PUSH1 0x40 PUSH1 0x0 KECCAK256 PUSH1 0x44 CALLDATALOAD SWAP1 SSTORE PUSH1 0x0 DUP1 RETURN JUMPDEST PUSH1 0x80 CALLDATASIZE PUSH1 0x3 NOT ADD SLT PUSH2 0x1B JUMPI PUSH2 0x56C PUSH2 0xC3D JUMP JUMPDEST PUSH2 0x574 PUSH2 0xC79 JUMP JUMPDEST PUSH1 0x44 CALLDATALOAD SWAP2 PUSH2 0xFFFF DUP4 AND DUP1 SWAP4 SUB PUSH2 0x1B JUMPI PUSH1 0x64 CALLDATALOAD SWAP3 PUSH1 0x1 PUSH1 0x1 PUSH1 0xA0 SHL SUB DUP5 AND SWAP1 DUP2 DUP6 SUB PUSH2 0x1B JUMPI PUSH2 0x5A2 PUSH2 0xEBD JUMP JUMPDEST PUSH1 0x1 DUP1 PUSH1 0xA0 SHL SUB DUP5 AND SWAP4 DUP5 PUSH1 0x0 MSTORE PUSH1 0x6 PUSH1 0x20 MSTORE PUSH1 0x40 PUSH1 0x0 KECCAK256 DUP3 PUSH1 0x0 MSTORE PUSH1 0x20 MSTORE PUSH1 0x40 PUSH1 0x0 KECCAK256 DUP4 PUSH1 0x0 MSTORE PUSH1 0x20 MSTORE PUSH1 0x40 PUSH1 0x0 KECCAK256 SLOAD SWAP6 DUP4 PUSH1 0x0 MSTORE PUSH1 0x4 PUSH1 0x20 MSTORE PUSH1 0x40 PUSH1 0x0 KECCAK256 SLOAD ISZERO ISZERO DUP1 PUSH2 0x734 JUMPI JUMPDEST PUSH2 0x5F4 SWAP1 PUSH2 0xCA0 JUMP JUMPDEST CALLER PUSH1 0x0 MSTORE PUSH1 0x5 PUSH1 0x20 MSTORE PUSH2 0xFFFF PUSH1 0x40 PUSH1 0x0 KECCAK256 SLOAD AND ISZERO PUSH1 0x0 EQ PUSH2 0x715 JUMPI PUSH2 0x3E8 PUSH2 0x625 PUSH2 0xFFFF DUP1 PUSH1 0x2 SLOAD AND JUMPDEST AND DUP10 PUSH2 0xDCE JUMP JUMPDEST DIV SWAP2 DUP5 ISZERO PUSH2 0x6BB JUMPI JUMPDEST SWAP3 PUSH2 0x689 PUSH1 0xC0 SWAP6 SWAP4 PUSH2 0x340 SWAP10 SWAP4 PUSH2 0x672 PUSH32 0xF75BFE060373B450661E4E6EB654AAD71847DF6D54C2E9818B7AB96462EE101E SWAP10 SWAP8 CALLER PUSH2 0x66C DUP6 DUP10 PUSH2 0xE20 JUMP JUMPDEST DUP5 PUSH2 0xEDF JUMP JUMPDEST PUSH1 0x2 SLOAD PUSH1 0x10 SHR PUSH1 0x1 PUSH1 0x1 PUSH1 0xA0 SHL SUB AND SWAP2 CALLER SWAP2 PUSH2 0xEDF JUMP JUMPDEST PUSH1 0x1 SLOAD SWAP7 PUSH1 0x40 MLOAD SWAP5 PUSH1 0x1 DUP1 PUSH1 0xA0 SHL SUB AND DUP6 MSTORE PUSH1 0x20 DUP6 ADD MSTORE PUSH1 0x40 DUP5 ADD MSTORE PUSH1 0x60 DUP4 ADD MSTORE PUSH1 0x80 DUP3 ADD MSTORE DUP4 PUSH1 0xA0 DUP3 ADD MSTORE LOG1 PUSH2 0xCE3 JUMP JUMPDEST SWAP7 SWAP1 SWAP4 SWAP2 SWAP5 SWAP3 DUP2 CALLVALUE LT PUSH2 0x6D3 JUMPI SWAP3 SWAP5 SWAP2 SWAP4 SWAP1 SWAP7 PUSH2 0x62E JUMP JUMPDEST PUSH1 0x40 MLOAD PUSH3 0x461BCD PUSH1 0xE5 SHL DUP2 MSTORE PUSH1 0x20 PUSH1 0x4 DUP3 ADD MSTORE PUSH1 0x1A PUSH1 0x24 DUP3 ADD MSTORE PUSH26 0x4E6F7420656E6F7567682065746820746F20627579206974656D PUSH1 0x30 SHL PUSH1 0x44 DUP3 ADD MSTORE PUSH1 0x64 SWAP1 REVERT JUMPDEST CALLER PUSH1 0x0 MSTORE PUSH1 0x5 PUSH1 0x20 MSTORE PUSH2 0x3E8 PUSH2 0x625 PUSH2 0xFFFF DUP1 PUSH1 0x40 PUSH1 0x0 KECCAK256 SLOAD AND PUSH2 0x61E JUMP JUMPDEST POP DUP7 ISZERO ISZERO PUSH2 0x5EB JUMP JUMPDEST CALLVALUE PUSH2 0x1B JUMPI PUSH1 0x20 CALLDATASIZE PUSH1 0x3 NOT ADD SLT PUSH2 0x1B JUMPI PUSH2 0x756 PUSH2 0xC3D JUMP JUMPDEST PUSH1 0x2 SLOAD SWAP1 PUSH2 0x772 CALLER PUSH1 0x10 DUP5 SWAP1 SHR PUSH1 0x1 PUSH1 0x1 PUSH1 0xA0 SHL SUB AND EQ PUSH2 0xD93 JUMP JUMPDEST PUSH3 0x10000 PUSH1 0x1 PUSH1 0xB0 SHL SUB NOT SWAP1 SWAP2 AND PUSH1 0x10 SWAP2 SWAP1 SWAP2 SHL PUSH3 0x10000 PUSH1 0x1 PUSH1 0xB0 SHL SUB AND OR PUSH1 0x2 SSTORE STOP JUMPDEST CALLVALUE PUSH2 0x1B JUMPI PUSH1 0x40 CALLDATASIZE PUSH1 0x3 NOT ADD SLT PUSH2 0x1B JUMPI PUSH2 0x7B0 PUSH2 0xC3D JUMP JUMPDEST PUSH2 0x7B8 PUSH2 0xC8F JUMP JUMPDEST SWAP1 PUSH2 0x7D1 PUSH1 0x1 DUP1 PUSH1 0xA0 SHL SUB PUSH1 0x2 SLOAD PUSH1 0x10 SHR AND CALLER EQ PUSH2 0xD93 JUMP JUMPDEST PUSH1 0x1 DUP1 PUSH1 0xA0 SHL SUB AND PUSH1 0x0 MSTORE PUSH1 0x5 PUSH1 0x20 MSTORE PUSH2 0xFFFF PUSH1 0x40 PUSH1 0x0 KECCAK256 SWAP2 AND PUSH2 0xFFFF NOT DUP3 SLOAD AND OR SWAP1 SSTORE PUSH1 0x0 DUP1 RETURN JUMPDEST CALLVALUE PUSH2 0x1B JUMPI PUSH1 0x60 CALLDATASIZE PUSH1 0x3 NOT ADD SLT PUSH2 0x1B JUMPI PUSH2 0x813 PUSH2 0xC3D JUMP JUMPDEST PUSH2 0x81B PUSH2 0xC69 JUMP JUMPDEST PUSH2 0x823 PUSH2 0xC53 JUMP JUMPDEST SWAP2 PUSH1 0x1 DUP1 PUSH1 0xA0 SHL SUB AND PUSH1 0x0 MSTORE PUSH1 0x7 PUSH1 0x20 MSTORE PUSH1 0xFF PUSH1 0x40 PUSH1 0x0 KECCAK256 SWAP2 AND PUSH1 0x0 MSTORE PUSH1 0x20 MSTORE PUSH1 0x40 PUSH1 0x0 KECCAK256 SWAP1 PUSH1 0x1 DUP1 PUSH1 0xA0 SHL SUB AND PUSH1 0x0 MSTORE PUSH1 0x20 MSTORE PUSH1 0x20 PUSH1 0x40 PUSH1 0x0 KECCAK256 SLOAD PUSH1 0x40 MLOAD SWAP1 DUP2 MSTORE RETURN JUMPDEST CALLVALUE PUSH2 0x1B JUMPI PUSH1 0x20 CALLDATASIZE PUSH1 0x3 NOT ADD SLT PUSH2 0x1B JUMPI PUSH1 0x4 CALLDATALOAD PUSH2 0xFFFF DUP2 AND DUP1 SWAP2 SUB PUSH2 0x1B JUMPI PUSH1 0x2 SLOAD PUSH2 0x8A2 CALLER PUSH1 0x10 DUP4 SWAP1 SHR PUSH1 0x1 PUSH1 0x1 PUSH1 0xA0 SHL SUB AND EQ PUSH2 0xD93 JUMP JUMPDEST PUSH2 0xFFFF NOT AND OR PUSH1 0x2 SSTORE STOP JUMPDEST PUSH1 0xA0 CALLDATASIZE PUSH1 0x3 NOT ADD SLT PUSH2 0x1B JUMPI PUSH2 0x8C1 PUSH2 0xC3D JUMP JUMPDEST PUSH2 0x8C9 PUSH2 0xC79 JUMP JUMPDEST PUSH1 0x44 CALLDATALOAD PUSH1 0xFF DUP2 AND DUP1 SWAP2 SUB PUSH2 0x1B JUMPI PUSH1 0x64 CALLDATALOAD SWAP1 PUSH1 0xFF DUP3 AND DUP1 SWAP3 SUB PUSH2 0x1B JUMPI PUSH1 0x84 CALLDATALOAD SWAP4 PUSH1 0x1 PUSH1 0x1 PUSH1 0xA0 SHL SUB DUP6 AND DUP1 DUP7 SUB PUSH2 0x1B JUMPI PUSH2 0x340 SWAP6 PUSH32 0x1B011D73E7DF1D8680C86A339410375BB01AE38E38411FC30C0912D61E2A4AA8 SWAP5 PUSH1 0xE0 SWAP5 PUSH2 0x92C PUSH2 0xEBD JUMP JUMPDEST PUSH1 0x1 DUP2 EQ DUP1 ISZERO PUSH2 0xABC JUMPI JUMPDEST DUP1 ISZERO PUSH2 0xAB2 JUMPI JUMPDEST DUP1 ISZERO PUSH2 0xAA8 JUMPI JUMPDEST DUP1 ISZERO PUSH2 0xA9E JUMPI JUMPDEST PUSH2 0x955 SWAP1 PUSH2 0xD08 JUMP JUMPDEST PUSH2 0xA1D PUSH1 0x1 DUP1 PUSH1 0xA0 SHL SUB DUP10 AND SWAP9 DUP10 PUSH1 0x0 MSTORE PUSH1 0x7 PUSH1 0x20 MSTORE PUSH1 0x40 PUSH1 0x0 KECCAK256 DUP5 PUSH1 0x0 MSTORE PUSH1 0x20 MSTORE PUSH1 0x40 PUSH1 0x0 KECCAK256 DUP7 PUSH1 0x0 MSTORE PUSH1 0x20 MSTORE PUSH1 0x40 PUSH1 0x0 KECCAK256 SLOAD ISZERO ISZERO DUP1 PUSH2 0xA87 JUMPI JUMPDEST PUSH2 0x99A SWAP1 PUSH2 0xD4B JUMP JUMPDEST PUSH2 0x9A5 CALLER ISZERO ISZERO PUSH2 0xD93 JUMP JUMPDEST DUP10 PUSH1 0x0 MSTORE PUSH1 0x7 PUSH1 0x20 MSTORE PUSH1 0x40 PUSH1 0x0 KECCAK256 DUP5 PUSH1 0x0 MSTORE PUSH1 0x20 MSTORE PUSH1 0x40 PUSH1 0x0 KECCAK256 DUP7 PUSH1 0x0 MSTORE PUSH1 0x20 MSTORE PUSH2 0x9D5 DUP4 PUSH1 0x40 PUSH1 0x0 KECCAK256 SLOAD PUSH2 0xDCE JUMP JUMPDEST SWAP5 CALLER PUSH1 0x0 MSTORE PUSH1 0x5 PUSH1 0x20 MSTORE PUSH2 0xFFFF PUSH1 0x40 PUSH1 0x0 KECCAK256 SLOAD AND ISZERO PUSH1 0x0 EQ PUSH2 0xA65 JUMPI PUSH2 0x672 PUSH2 0x3E8 PUSH2 0xA09 PUSH2 0xFFFF DUP1 PUSH1 0x2 SLOAD AND AND DUP10 PUSH2 0xDCE JUMP JUMPDEST DIV SWAP3 DUP9 ISZERO PUSH2 0xA54 JUMPI JUMPDEST CALLER PUSH2 0x66C DUP6 DUP11 PUSH2 0xE20 JUMP JUMPDEST PUSH1 0x1 SLOAD SWAP8 PUSH1 0x40 MLOAD SWAP6 PUSH1 0x1 DUP1 PUSH1 0xA0 SHL SUB AND DUP7 MSTORE PUSH1 0x20 DUP7 ADD MSTORE PUSH1 0x40 DUP6 ADD MSTORE PUSH1 0x60 DUP5 ADD MSTORE PUSH1 0x80 DUP4 ADD MSTORE PUSH1 0xA0 DUP3 ADD MSTORE DUP4 PUSH1 0xC0 DUP3 ADD MSTORE LOG1 PUSH2 0xCE3 JUMP JUMPDEST PUSH2 0xA60 DUP9 CALLVALUE LT ISZERO PUSH2 0xDE1 JUMP JUMPDEST PUSH2 0xA12 JUMP JUMPDEST CALLER PUSH1 0x0 MSTORE PUSH1 0x5 PUSH1 0x20 MSTORE PUSH2 0x672 PUSH2 0x3E8 PUSH2 0xA09 PUSH2 0xFFFF DUP1 PUSH1 0x40 PUSH1 0x0 KECCAK256 SLOAD AND PUSH2 0x61E JUMP JUMPDEST POP PUSH1 0x0 DUP7 DUP2 MSTORE PUSH1 0x4 PUSH1 0x20 MSTORE PUSH1 0x40 SWAP1 KECCAK256 SLOAD ISZERO ISZERO PUSH2 0x991 JUMP JUMPDEST POP PUSH1 0xC DUP2 EQ PUSH2 0x94C JUMP JUMPDEST POP PUSH1 0x9 DUP2 EQ PUSH2 0x945 JUMP JUMPDEST POP PUSH1 0x6 DUP2 EQ PUSH2 0x93E JUMP JUMPDEST POP PUSH1 0x3 DUP2 EQ PUSH2 0x937 JUMP JUMPDEST PUSH1 0x60 CALLDATASIZE PUSH1 0x3 NOT ADD SLT PUSH2 0x1B JUMPI PUSH2 0xADA PUSH2 0xC3D JUMP JUMPDEST PUSH2 0xAE2 PUSH2 0xC53 JUMP JUMPDEST SWAP1 PUSH2 0xAEB PUSH2 0xEBD JUMP JUMPDEST PUSH1 0x1 PUSH1 0x1 PUSH1 0xA0 SHL SUB DUP3 AND PUSH1 0x0 DUP2 DUP2 MSTORE PUSH1 0x4 PUSH1 0x20 MSTORE PUSH1 0x40 SWAP1 KECCAK256 SLOAD PUSH1 0x24 CALLDATALOAD SWAP3 SWAP2 SWAP1 ISZERO PUSH2 0xB81 JUMPI PUSH2 0x340 SWAP4 DUP2 ISZERO PUSH2 0xB79 JUMPI JUMPDEST SWAP2 PUSH1 0xA0 SWAP2 PUSH2 0xB4C DUP3 PUSH32 0x5A2F1AD79D3B13290E448AD9BE056A7E0663F2109E69B98665AA82CC884CB73B SWAP6 DUP8 CALLER SWAP2 PUSH2 0xEDF JUMP JUMPDEST PUSH1 0x1 SLOAD SWAP5 PUSH1 0x40 MLOAD SWAP3 CALLER DUP5 MSTORE PUSH1 0x1 DUP1 DUP7 SHL SUB AND PUSH1 0x20 DUP5 ADD MSTORE PUSH1 0x40 DUP4 ADD MSTORE PUSH1 0x60 DUP3 ADD MSTORE DUP4 PUSH1 0x80 DUP3 ADD MSTORE LOG1 PUSH2 0xCE3 JUMP JUMPDEST CALLVALUE SWAP4 POP PUSH2 0xB1A JUMP JUMPDEST PUSH1 0x40 MLOAD PUSH3 0x461BCD PUSH1 0xE5 SHL DUP2 MSTORE PUSH1 0x20 PUSH1 0x4 DUP3 ADD MSTORE PUSH1 0x14 PUSH1 0x24 DUP3 ADD MSTORE PUSH20 0x31B0B713BA103AB9B2903A3434B9903A37B5B2B7 PUSH1 0x61 SHL PUSH1 0x44 DUP3 ADD MSTORE PUSH1 0x64 SWAP1 REVERT JUMPDEST CALLVALUE PUSH2 0x1B JUMPI PUSH1 0x60 CALLDATASIZE PUSH1 0x3 NOT ADD SLT PUSH2 0x1B JUMPI PUSH2 0xBD6 PUSH2 0xC3D JUMP JUMPDEST PUSH2 0xBDE PUSH2 0xC69 JUMP JUMPDEST PUSH1 0x1 PUSH1 0x1 PUSH1 0xA0 SHL SUB DUP3 AND PUSH1 0x0 SWAP1 DUP2 MSTORE PUSH1 0x4 PUSH1 0x20 MSTORE PUSH1 0x40 SWAP1 KECCAK256 SLOAD PUSH2 0xC02 SWAP1 ISZERO ISZERO PUSH2 0xCA0 JUMP JUMPDEST CALLER PUSH1 0x0 MSTORE PUSH1 0x7 PUSH1 0x20 MSTORE PUSH1 0xFF PUSH1 0x40 PUSH1 0x0 KECCAK256 SWAP2 AND PUSH1 0x0 MSTORE PUSH1 0x20 MSTORE PUSH1 0x40 PUSH1 0x0 KECCAK256 SWAP1 PUSH1 0x1 DUP1 PUSH1 0xA0 SHL SUB AND PUSH1 0x0 MSTORE PUSH1 0x20 MSTORE PUSH1 0x40 PUSH1 0x0 KECCAK256 PUSH1 0x44 CALLDATALOAD SWAP1 SSTORE PUSH1 0x0 DUP1 RETURN JUMPDEST PUSH1 0x4 CALLDATALOAD SWAP1 PUSH1 0x1 PUSH1 0x1 PUSH1 0xA0 SHL SUB DUP3 AND DUP3 SUB PUSH2 0x1B JUMPI JUMP JUMPDEST PUSH1 0x44 CALLDATALOAD SWAP1 PUSH1 0x1 PUSH1 0x1 PUSH1 0xA0 SHL SUB DUP3 AND DUP3 SUB PUSH2 0x1B JUMPI JUMP JUMPDEST PUSH1 0x24 CALLDATALOAD SWAP1 PUSH1 0xFF DUP3 AND DUP3 SUB PUSH2 0x1B JUMPI JUMP JUMPDEST PUSH1 0x24 CALLDATALOAD SWAP1 PUSH1 0x1 PUSH1 0x1 PUSH1 0xA0 SHL SUB DUP3 AND DUP3 SUB PUSH2 0x1B JUMPI JUMP JUMPDEST PUSH1 0x24 CALLDATALOAD SWAP1 PUSH2 0xFFFF DUP3 AND DUP3 SUB PUSH2 0x1B JUMPI JUMP JUMPDEST ISZERO PUSH2 0xCA7 JUMPI JUMP JUMPDEST PUSH1 0x40 MLOAD PUSH3 0x461BCD PUSH1 0xE5 SHL DUP2 MSTORE PUSH1 0x20 PUSH1 0x4 DUP3 ADD MSTORE PUSH1 0x14 PUSH1 0x24 DUP3 ADD MSTORE PUSH20 0x21B0B713BA103AB9B2903A3434B9903A37B5B2B7 PUSH1 0x61 SHL PUSH1 0x44 DUP3 ADD MSTORE PUSH1 0x64 SWAP1 REVERT JUMPDEST PUSH1 0x0 NOT DUP2 EQ PUSH2 0xCF2 JUMPI PUSH1 0x1 ADD SWAP1 JUMP JUMPDEST PUSH4 0x4E487B71 PUSH1 0xE0 SHL PUSH1 0x0 MSTORE PUSH1 0x11 PUSH1 0x4 MSTORE PUSH1 0x24 PUSH1 0x0 REVERT JUMPDEST ISZERO PUSH2 0xD0F JUMPI JUMP JUMPDEST PUSH1 0x40 MLOAD PUSH3 0x461BCD PUSH1 0xE5 SHL DUP2 MSTORE PUSH1 0x20 PUSH1 0x4 DUP3 ADD MSTORE PUSH1 0x14 PUSH1 0x24 DUP3 ADD MSTORE PUSH20 0x86D0DEDEE6CA40C6DEE4E4CAC6E840DADEDCE8D PUSH1 0x63 SHL PUSH1 0x44 DUP3 ADD MSTORE PUSH1 0x64 SWAP1 REVERT JUMPDEST ISZERO PUSH2 0xD52 JUMPI JUMP JUMPDEST PUSH1 0x40 MLOAD PUSH3 0x461BCD PUSH1 0xE5 SHL DUP2 MSTORE PUSH1 0x20 PUSH1 0x4 DUP3 ADD MSTORE PUSH1 0x19 PUSH1 0x24 DUP3 ADD MSTORE PUSH25 0x21B0B713BA103830BC903BB4BA34103A3434B9903A37B5B2B7 PUSH1 0x39 SHL PUSH1 0x44 DUP3 ADD MSTORE PUSH1 0x64 SWAP1 REVERT JUMPDEST ISZERO PUSH2 0xD9A JUMPI JUMP JUMPDEST PUSH1 0x40 MLOAD PUSH3 0x461BCD PUSH1 0xE5 SHL DUP2 MSTORE PUSH1 0x20 PUSH1 0x4 DUP3 ADD MSTORE PUSH1 0xC PUSH1 0x24 DUP3 ADD MSTORE PUSH12 0x2BB937B7339039B2B73232B9 PUSH1 0xA1 SHL PUSH1 0x44 DUP3 ADD MSTORE PUSH1 0x64 SWAP1 REVERT JUMPDEST DUP2 DUP2 MUL SWAP3 SWAP2 DUP2 ISZERO SWAP2 DUP5 DIV EQ OR ISZERO PUSH2 0xCF2 JUMPI JUMP JUMPDEST ISZERO PUSH2 0xDE8 JUMPI JUMP JUMPDEST PUSH1 0x40 MLOAD PUSH3 0x461BCD PUSH1 0xE5 SHL DUP2 MSTORE PUSH1 0x20 PUSH1 0x4 DUP3 ADD MSTORE PUSH1 0x10 PUSH1 0x24 DUP3 ADD MSTORE PUSH16 0x15DC9BDB99C8195D1A08185B5BDD5B9D PUSH1 0x82 SHL PUSH1 0x44 DUP3 ADD MSTORE PUSH1 0x64 SWAP1 REVERT JUMPDEST SWAP2 SWAP1 DUP3 SUB SWAP2 DUP3 GT PUSH2 0xCF2 JUMPI JUMP JUMPDEST PUSH1 0x1F SWAP1 SWAP2 ADD PUSH1 0x1F NOT AND DUP2 ADD SWAP1 PUSH1 0x1 PUSH1 0x1 PUSH1 0x40 SHL SUB DUP3 GT SWAP1 DUP3 LT OR PUSH2 0xE50 JUMPI PUSH1 0x40 MSTORE JUMP JUMPDEST PUSH4 0x4E487B71 PUSH1 0xE0 SHL PUSH1 0x0 MSTORE PUSH1 0x41 PUSH1 0x4 MSTORE PUSH1 0x24 PUSH1 0x0 REVERT JUMPDEST SWAP1 DUP2 PUSH1 0x20 SWAP2 SUB SLT PUSH2 0x1B JUMPI MLOAD DUP1 ISZERO ISZERO DUP2 SUB PUSH2 0x1B JUMPI SWAP1 JUMP JUMPDEST RETURNDATASIZE ISZERO PUSH2 0xEB8 JUMPI RETURNDATASIZE SWAP1 PUSH1 0x1 PUSH1 0x1 PUSH1 0x40 SHL SUB DUP3 GT PUSH2 0xE50 JUMPI PUSH1 0x40 MLOAD SWAP2 PUSH2 0xEAC PUSH1 0x1F DUP3 ADD PUSH1 0x1F NOT AND PUSH1 0x20 ADD DUP5 PUSH2 0xE2D JUMP JUMPDEST DUP3 MSTORE RETURNDATASIZE PUSH1 0x0 PUSH1 0x20 DUP5 ADD RETURNDATACOPY JUMP JUMPDEST PUSH1 0x60 SWAP1 JUMP JUMPDEST PUSH1 0x2 PUSH1 0x0 SLOAD EQ PUSH2 0xECE JUMPI PUSH1 0x2 PUSH1 0x0 SSTORE JUMP JUMPDEST PUSH4 0x3EE5AEB5 PUSH1 0xE0 SHL PUSH1 0x0 MSTORE PUSH1 0x4 PUSH1 0x0 REVERT JUMPDEST SWAP1 SWAP3 SWAP2 SWAP1 PUSH1 0x1 PUSH1 0x1 PUSH1 0xA0 SHL SUB AND DUP1 PUSH2 0xF0C JUMPI POP POP PUSH1 0x0 DUP1 DUP1 SWAP4 DUP2 SWAP4 GAS CALL PUSH2 0xF04 PUSH2 0xE7E JUMP JUMPDEST POP ISZERO PUSH2 0x1B JUMPI JUMP JUMPDEST PUSH1 0x40 MLOAD PUSH4 0x23B872DD PUSH1 0xE0 SHL DUP2 MSTORE PUSH1 0x1 PUSH1 0x1 PUSH1 0xA0 SHL SUB SWAP3 DUP4 AND PUSH1 0x4 DUP3 ADD MSTORE SWAP2 SWAP1 SWAP3 AND PUSH1 0x24 DUP3 ADD MSTORE PUSH1 0x44 DUP2 ADD SWAP3 SWAP1 SWAP3 MSTORE PUSH1 0x20 SWAP1 DUP3 SWAP1 PUSH1 0x64 SWAP1 DUP3 SWAP1 PUSH1 0x0 SWAP1 GAS CALL DUP1 ISZERO PUSH2 0x1A8 JUMPI PUSH2 0xF56 JUMPI POP JUMP JUMPDEST PUSH2 0xF6E SWAP1 PUSH1 0x20 RETURNDATASIZE PUSH1 0x20 GT PUSH2 0x1A1 JUMPI PUSH2 0x199 DUP2 DUP4 PUSH2 0xE2D JUMP JUMPDEST POP JUMP INVALID LOG2 PUSH5 0x6970667358 0x22 SLT KECCAK256 SWAP7 SWAP1 0xAB TIMESTAMP 0xCA PUSH10 0xDC01686DC29C08BB4CED 0x4D SWAP3 0xE2 SHL ISZERO PC SWAP5 SWAP5 MSTORE DUP13 KECCAK256 0x2C 0xBC RETURN SELFBALANCE ADD PUSH5 0x736F6C6343 STOP ADDMOD SHR STOP CALLER "
        },
        "methodIdentifiers": {
          "buyAiToken(address,uint8,address)": "87311b9a",
          "buyItem(address,address,uint16,address)": "6d558bb2",
          "buyPremium(address,uint8,address)": "ded97a9d",
          "buySubToUser(address,address,uint8,uint8,address)": "31829ff1",
          "chagneOwner(address)": "4b5ad09e",
          "changeFee(uint16)": "3407facd",
          "changeItemPrice(address,uint16,uint256)": "7849e367",
          "changePersonalFee(address,uint16)": "402af311",
          "changeTokenPrices(address,uint256,uint256)": "f0aecbc8",
          "changeUserSubPrice(address,uint8,uint256)": "10aa9d34",
          "donation(address,uint256,address)": "1c61ed92",
          "getTokenPrices(address)": "ab17f1eb",
          "getUserLevelPrice(address,uint8,address)": "392f0403",
          "owner()": "8da5cb5b",
          "personalFee(address)": "cc6533dd",
          "withdraw(address,uint256)": "f3fef3a3"
        }
      }
    }
  }
}