{
  "_format": "hh-sol-artifact-1",
  "contractName": "Giveaways",
  "sourceName": "contracts/Giveaways.sol",
  "abi": [
    {
      "inputs": [
        {
          "internalType": "contract IPayment",
          "name": "_payment",
          "type": "address"
        }
      ],
      "stateMutability": "nonpayable",
      "type": "constructor"
    },
    {
      "inputs": [],
      "name": "ReentrancyGuardReentrantCall",
      "type": "error"
    },
    {
      "anonymous": false,
      "inputs": [
        {
          "indexed": false,
          "internalType": "uint64",
          "name": "id",
          "type": "uint64"
        },
        {
          "components": [
            {
              "internalType": "address",
              "name": "owner",
              "type": "address"
            },
            {
              "internalType": "contract IERC20",
              "name": "token",
              "type": "address"
            },
            {
              "internalType": "uint256",
              "name": "prize",
              "type": "uint256"
            },
            {
              "internalType": "uint8[]",
              "name": "prizeType",
              "type": "uint8[]"
            },
            {
              "internalType": "uint256",
              "name": "startTime",
              "type": "uint256"
            },
            {
              "internalType": "uint256",
              "name": "endTime",
              "type": "uint256"
            },
            {
              "internalType": "uint256",
              "name": "prizeTime",
              "type": "uint256"
            },
            {
              "internalType": "address[]",
              "name": "users",
              "type": "address[]"
            },
            {
              "internalType": "address[]",
              "name": "winners",
              "type": "address[]"
            },
            {
              "internalType": "bool",
              "name": "active",
              "type": "bool"
            }
          ],
          "indexed": false,
          "internalType": "struct Giveaways.Giveaway",
          "name": "data",
          "type": "tuple"
        }
      ],
      "name": "endGiveaways",
      "type": "event"
    },
    {
      "anonymous": false,
      "inputs": [
        {
          "indexed": false,
          "internalType": "address",
          "name": "user",
          "type": "address"
        },
        {
          "indexed": false,
          "internalType": "uint256",
          "name": "amount",
          "type": "uint256"
        },
        {
          "indexed": false,
          "internalType": "contract IERC20",
          "name": "token",
          "type": "address"
        }
      ],
      "name": "sendMoney",
      "type": "event"
    },
    {
      "stateMutability": "nonpayable",
      "type": "fallback"
    },
    {
      "inputs": [
        {
          "internalType": "uint64",
          "name": "_id",
          "type": "uint64"
        },
        {
          "internalType": "uint256",
          "name": "_prize",
          "type": "uint256"
        }
      ],
      "name": "addPrize",
      "outputs": [],
      "stateMutability": "payable",
      "type": "function"
    },
    {
      "inputs": [
        {
          "internalType": "uint64",
          "name": "_id",
          "type": "uint64"
        },
        {
          "internalType": "bool",
          "name": "_active",
          "type": "bool"
        }
      ],
      "name": "changeActive",
      "outputs": [],
      "stateMutability": "nonpayable",
      "type": "function"
    },
    {
      "inputs": [
        {
          "internalType": "uint256",
          "name": "_prize",
          "type": "uint256"
        },
        {
          "internalType": "contract IERC20",
          "name": "_token",
          "type": "address"
        },
        {
          "internalType": "uint8[]",
          "name": "_prizeType",
          "type": "uint8[]"
        },
        {
          "internalType": "uint256",
          "name": "_startTime",
          "type": "uint256"
        },
        {
          "internalType": "uint256",
          "name": "_endTime",
          "type": "uint256"
        },
        {
          "internalType": "uint256",
          "name": "_prizeTime",
          "type": "uint256"
        }
      ],
      "name": "createGiveaway",
      "outputs": [],
      "stateMutability": "payable",
      "type": "function"
    },
    {
      "inputs": [
        {
          "internalType": "uint64",
          "name": "_id",
          "type": "uint64"
        },
        {
          "internalType": "address[]",
          "name": "_winners",
          "type": "address[]"
        }
      ],
      "name": "endGiveaway",
      "outputs": [],
      "stateMutability": "nonpayable",
      "type": "function"
    },
    {
      "inputs": [
        {
          "internalType": "uint64",
          "name": "_id",
          "type": "uint64"
        }
      ],
      "name": "getGiveaway",
      "outputs": [
        {
          "components": [
            {
              "internalType": "address",
              "name": "owner",
              "type": "address"
            },
            {
              "internalType": "contract IERC20",
              "name": "token",
              "type": "address"
            },
            {
              "internalType": "uint256",
              "name": "prize",
              "type": "uint256"
            },
            {
              "internalType": "uint8[]",
              "name": "prizeType",
              "type": "uint8[]"
            },
            {
              "internalType": "uint256",
              "name": "startTime",
              "type": "uint256"
            },
            {
              "internalType": "uint256",
              "name": "endTime",
              "type": "uint256"
            },
            {
              "internalType": "uint256",
              "name": "prizeTime",
              "type": "uint256"
            },
            {
              "internalType": "address[]",
              "name": "users",
              "type": "address[]"
            },
            {
              "internalType": "address[]",
              "name": "winners",
              "type": "address[]"
            },
            {
              "internalType": "bool",
              "name": "active",
              "type": "bool"
            }
          ],
          "internalType": "struct Giveaways.Giveaway",
          "name": "_gw",
          "type": "tuple"
        }
      ],
      "stateMutability": "view",
      "type": "function"
    },
    {
      "inputs": [
        {
          "internalType": "uint64",
          "name": "_page",
          "type": "uint64"
        },
        {
          "internalType": "uint64",
          "name": "_amount",
          "type": "uint64"
        }
      ],
      "name": "getGiveaways",
      "outputs": [
        {
          "components": [
            {
              "internalType": "address",
              "name": "owner",
              "type": "address"
            },
            {
              "internalType": "contract IERC20",
              "name": "token",
              "type": "address"
            },
            {
              "internalType": "uint256",
              "name": "prize",
              "type": "uint256"
            },
            {
              "internalType": "uint8[]",
              "name": "prizeType",
              "type": "uint8[]"
            },
            {
              "internalType": "uint256",
              "name": "startTime",
              "type": "uint256"
            },
            {
              "internalType": "uint256",
              "name": "endTime",
              "type": "uint256"
            },
            {
              "internalType": "uint256",
              "name": "prizeTime",
              "type": "uint256"
            },
            {
              "internalType": "address[]",
              "name": "users",
              "type": "address[]"
            },
            {
              "internalType": "address[]",
              "name": "winners",
              "type": "address[]"
            },
            {
              "internalType": "bool",
              "name": "active",
              "type": "bool"
            }
          ],
          "internalType": "struct Giveaways.Giveaway[]",
          "name": "_gw",
          "type": "tuple[]"
        }
      ],
      "stateMutability": "view",
      "type": "function"
    },
    {
      "inputs": [
        {
          "internalType": "uint64",
          "name": "_id",
          "type": "uint64"
        }
      ],
      "name": "getWinners",
      "outputs": [
        {
          "internalType": "address[]",
          "name": "_winners",
          "type": "address[]"
        }
      ],
      "stateMutability": "view",
      "type": "function"
    },
    {
      "inputs": [],
      "name": "owner",
      "outputs": [
        {
          "internalType": "address payable",
          "name": "",
          "type": "address"
        }
      ],
      "stateMutability": "view",
      "type": "function"
    },
    {
      "inputs": [
        {
          "internalType": "uint64",
          "name": "_id",
          "type": "uint64"
        }
      ],
      "name": "participate",
      "outputs": [],
      "stateMutability": "nonpayable",
      "type": "function"
    },
    {
      "inputs": [
        {
          "internalType": "address[]",
          "name": "_users",
          "type": "address[]"
        },
        {
          "internalType": "uint256[]",
          "name": "_amount",
          "type": "uint256[]"
        },
        {
          "internalType": "contract IERC20",
          "name": "_token",
          "type": "address"
        }
      ],
      "name": "sendPrize",
      "outputs": [],
      "stateMutability": "nonpayable",
      "type": "function"
    },
    {
      "inputs": [
        {
          "internalType": "contract IERC20",
          "name": "_token",
          "type": "address"
        },
        {
          "internalType": "uint256",
          "name": "_amount",
          "type": "uint256"
        }
      ],
      "name": "withdraw",
      "outputs": [],
      "stateMutability": "nonpayable",
      "type": "function"
    },
    {
      "stateMutability": "payable",
      "type": "receive"
    }
  ],
  "bytecode": "0x608034609457601f611ea538819003918201601f19168301916001600160401b03831184841017609957808492602094604052833981010312609457516001600160a01b038116810360945760016000819055600280546001600160a01b031916331790558054600160401b600160e01b031916604092831b600160401b600160e01b031617905551611df590816100b08239f35b600080fd5b634e487b7160e01b600052604160045260246000fdfe60806040526004361015610022575b3615610020573461001b57005b600080fd5b005b60003560e01c80631dae1c8c14610e485780632d94913614610db65780635352937f14610d745780638d212a8914610bde5780638da5cb5b14610bb5578063c3f1276114610ab0578063ce1911ee14610a42578063d9b75a8c146103e5578063e399cbfd14610152578063f2849144146100eb5763f3fef3a30361000e573461001b57604036600319011261001b576004356001600160a01b038116810361001b57600254610020916001600160a01b03909116906100e2338314611c03565b60243590611ce0565b3461001b57604036600319011261001b57610104611065565b602435801515810361001b576100209161012960018060a01b03600254163314611c03565b60018060401b0316600052600360205260096040600020019060ff801983541691151516179055565b3461001b57606036600319011261001b576004356001600160401b03811161001b576101829036906004016111d9565b602435906001600160401b03821161001b573660238301121561001b578160040135916101ae836111c2565b926101bc604051948561119f565b8084526024602085019160051b8301019136831161001b57602401905b8282106103d55750506044359190506001600160a01b03821680830361001b5781518451036103905761021760018060a01b03600254163314611c03565b806102ac575060005b81518110156100205760019060008080806001600160a01b036102438689611869565b511661024f868b611869565b51905af161025b611ca1565b50610267575b01610220565b600080516020611da0833981519152828060a01b036102868386611869565b51166102928388611869565b51906102a48760405193849384611c7e565b0390a1610261565b929160005b8251811015610020576102fb9060206001600160a01b036102d28387611869565b51166102de8388611869565b5160405163a9059cbb60e01b815294859283929060048401611c63565b038160008a5af191821561038457600192610358575b50600080516020611da0833981519152828060a01b036103318387611869565b511661033d8388611869565b519061034f8660405193849384611c7e565b0390a1016102b1565b6103789060203d811161037d575b610370818361119f565b810190611c4b565b610311565b503d610366565b6040513d6000823e3d90fd5b60405162461bcd60e51b815260206004820152601e60248201527f617272617973206d757374206265207468652073616d65206c656e67746800006044820152606490fd5b81358152602091820191016101d9565b60c036600319011261001b576024356001600160a01b038116906004359082900361001b57604435916001600160401b03831161001b573660238401121561001b57826004013592610436846111c2565b90610444604051928361119f565b8482526024602083019560051b8201019036821161001b57602401945b818610610a2857505060249350606435926084359360a43591610482611d5d565b6001546040805163ab17f1eb60e01b8152600481018890529883928a91908290841c6001600160a01b03165afa978815610384576000986109f4575b508561099757505034955b81861115610944578583106108ff576104e3331515611c03565b156108c3578515610887576105076104ff61050f924290611c3e565b954290611c3e565b914290611c3e565b906040519461051d86611183565b3386526020808701958652604080880198895260608089019687526080890193845260a0890194855260c0890195865260e089018181526101008a0191825260016101208b0181815281546001600160401b039081166000908152600397889052959095209b518c546001600160a01b03199081166001600160a01b03928316178e559b51928d018054909c16921691909117909955995160028a0155955180519699969289019291821161075d57600160401b821161075d576020908354838555808410610839575b50019160005260206000208160051c9160005b8381106107f95750601f1981169003806107ad575b50509151600488015550505160058501555160068401555180519060078401906001600160401b03831161075d57600160401b831161075d576020908254848455808510610790575b500190600052602060002060005b8381106107735750509351805160088501955091506001600160401b03821161075d57600160401b821161075d576020908554838755808410610740575b500193600052602060002060005b828110610723576106d68560098651151591019060ff801983541691151516179055565b6001546001600160401b0380821690811461070d576001600160401b031990911660019182016001600160401b0316178155600055005b634e487b7160e01b600052601160045260246000fd5b85516001600160a01b0316818301556020909501946001016106b2565b610757908760005284846000209182019101611995565b866106a4565b634e487b7160e01b600052604160045260246000fd5b82516001600160a01b031681830155602090920191600101610666565b6107a7908460005285846000209182019101611995565b87610658565b9260009360005b8181106107c95750505001558780808061060f565b90919460206107ef6001928460ff8a5116919060ff809160031b9316831b921b19161790565b96019291016107b4565b6000805b602081106108125750838201556001016105fa565b865190969160019160209160ff60038b901b81811b199092169216901b17920196016107fd565b610865908560005283600020601f80870160051c8201928188168061086b575b500160051c0190611995565b8b6105e7565b600019850190815490600019908a0360031b1c16905538610859565b60405162461bcd60e51b8152602060048201526014602482015273063686f6f7365207072697a652061626f766520360641b6044820152606490fd5b60405162461bcd60e51b815260206004820152601460248201527321b0b713ba103ab9b2903a3434b9903a37b5b2b760611b6044820152606490fd5b60405162461bcd60e51b815260206004820152601e60248201527f5072697a652074696d65206d757374206265203e3d20656e642074696d6500006044820152606490fd5b60405162461bcd60e51b815260206004820152602560248201527f456e642074696d65206d757374206265206d6f7265207468616e2073746172746044820152642074696d6560d81b6064820152608490fd5b604097919751906323b872dd60e01b8252336004830152306024830152604482015260208160648160008a5af18015610384576109d5575b506104c9565b6109ed9060203d60201161037d57610370818361119f565b50876109cf565b9097506040813d604011610a20575b81610a106040938361119f565b8101031261001b575196886104be565b3d9150610a03565b853560ff8116810361001b57815260209586019501610461565b604036600319011261001b57610a56611065565b610a5e611d5d565b6001600160401b03166000908152600360205260409020600290610a83331515611c03565b8054610a99906001600160a01b03163314611c03565b01610aa76024358254611c3e565b90556001600055005b3461001b57602036600319011261001b57610ac9611065565b610ad1611247565b5060018060401b03166000526003602052610bb1604060002060ff600960405192610afb84611183565b80546001600160a01b0390811685526001820154166020850152600281015460408086019190915251610b3c81610b358160038601611294565b038261119f565b606085015260048101546080850152600581015460a0850152600681015460c0850152604051610b7381610b358160078601611826565b60e0850152604051610b8c81610b358160088601611826565b61010085015201541615156101208201526040519182916020835260208301906110b8565b0390f35b3461001b57600036600319011261001b576002546040516001600160a01b039091168152602090f35b3461001b57602036600319011261001b576001600160401b03610bff611065565b16806000526003602052604060002060ff60098201541615610d3657610c26331515611c03565b60008281526004602090815260408083203384529091529020546001600160401b0316610cf2576004810154421180610ce5575b15610ca757600701610c6c3382611893565b54600091825260046020908152604080842033855290915290912080546001600160401b0319166001600160401b0392909216919091179055005b60405162461bcd60e51b81526020600482015260166024820152756769766561776179206973206e6f742061637469766560501b6044820152606490fd5b5042600582015411610c5a565b60405162461bcd60e51b815260206004820152601c60248201527b165bdd48185c9948185b1c9958591e481c185c9d1a58da5c185d195960221b6044820152606490fd5b60405162461bcd60e51b81526020600482015260166024820152754769766561776179206973206e6f742061637469766560501b6044820152606490fd5b3461001b57604036600319011261001b57610d8d611065565b602435906001600160401b03821161001b57610db06100209236906004016111d9565b906119ac565b3461001b57602036600319011261001b576001600160401b03610dd7611065565b166000526003602052610b35610dfa600860406000200160405192838092611826565b60405180916020820160208352815180915260206040840192019060005b818110610e26575050500390f35b82516001600160a01b0316845285945060209384019390920191600101610e18565b3461001b57604036600319011261001b57610e61611065565b6024356001600160401b038116919082810361001b5790911561104f575b6001600160401b031680610e92816111c2565b92610ea0604051948561119f565b818452601f19610eaf836111c2565b0160005b8181106110315750506001600160401b039081169190910290811690810361070d575b6001600160401b03811682811015610fc95780610fb7916000526003602052604060002060ff600960405192610f0b84611183565b80546001600160a01b0390811685526001820154166020850152600281015460408086019190915251610f4581610b358160038601611294565b606085015260048101546080850152600581015460a0850152600681015460c0850152604051610f7c81610b358160078601611826565b60e0850152604051610f9581610b358160088601611826565b6101008501520154161515610120820152610fb08287611869565b5284611869565b506001016001600160401b0316610ed6565b836040518091602082016020835281518091526040830190602060408260051b8601019301916000905b82821061100257505050500390f35b919360019193955060206110218192603f198a820301865288516110b8565b9601920192018594939192610ff3565b60209192935061103f611247565b8282880101520190839291610eb3565b50506001546000906001600160401b0316610e7f565b600435906001600160401b038216820361001b57565b906020808351928381520192019060005b8181106110995750505090565b82516001600160a01b031684526020938401939092019160010161108c565b90610140810160018060a01b03835116825260018060a01b03602084015116602083015260408301516040830152606083015190610140606084015281518091526020610160840192019060005b81811061116a5750505061012061115f61114b82936080870151608087015260a087015160a087015260c087015160c087015260e087015186820360e088015261107b565b61010086015185820361010087015261107b565b930151151591015290565b825160ff16845260209384019390920191600101611106565b61014081019081106001600160401b0382111761075d57604052565b601f909101601f19168101906001600160401b0382119082101761075d57604052565b6001600160401b03811161075d5760051b60200190565b9080601f8301121561001b578135906111f1826111c2565b926111ff604051948561119f565b82845260208085019360051b82010191821161001b57602001915b8183106112275750505090565b82356001600160a01b038116810361001b5781526020928301920161121a565b6040519061125482611183565b6000610120838281528260208201528260408201526060808201528260808201528260a08201528260c0820152606060e082015260606101008201520152565b8054808352600091825260208083209301925b81601f840110611684575491818110611670575b818110611659575b818110611642575b81811061162b575b818110611615575b8181106115fe575b8181106115e7575b8181106115d0575b8181106115b9575b8181106115a2575b81811061158b575b818110611574575b81811061155d575b818110611546575b81811061152f575b818110611518575b818110611501575b8181106114ea575b8181106114d3575b8181106114bc575b8181106114a5575b81811061148e575b818110611477575b818110611460575b818110611449575b818110611432575b81811061141b575b818110611404575b8181106113ed575b8181106113d6575b8181106113bf575b106113b4575090565b60f81c815260200190565b92602060019160ff8560f01c1681520193016113ab565b92602060019160ff8560e81c1681520193016113a3565b92602060019160ff8560e01c16815201930161139b565b92602060019160ff8560d81c168152019301611393565b92602060019160ff8560d01c16815201930161138b565b92602060019160ff8560c81c168152019301611383565b92602060019160ff8560c01c16815201930161137b565b92602060019160ff8560b81c168152019301611373565b92602060019160ff8560b01c16815201930161136b565b92602060019160ff8560a81c168152019301611363565b92602060019160ff8560a01c16815201930161135b565b92602060019160ff8560981c168152019301611353565b92602060019160ff8560901c16815201930161134b565b92602060019160ff8560881c168152019301611343565b92602060019160ff8560801c16815201930161133b565b92602060019160ff8560781c168152019301611333565b92602060019160ff8560701c16815201930161132b565b92602060019160ff8560681c168152019301611323565b92602060019160ff8560601c16815201930161131b565b92602060019160ff8560581c168152019301611313565b92602060019160ff8560501c16815201930161130b565b92602060019160ff8560481c168152019301611303565b92602060019160ff8560401c1681520193016112fb565b92602060019160ff8560381c1681520193016112f3565b92602060019160ff8560301c1681520193016112eb565b92602060019160ff8560281c1681520193016112e3565b92602060019160ff85831c1681520193016112db565b92602060019160ff8560181c1681520193016112d3565b92602060019160ff8560101c1681520193016112cb565b92602060019160ff8560081c1681520193016112c3565b92602060019160ff851681520193016112bb565b926001610400602092865460ff8116825260ff8160081c168583015260ff8160101c16604083015260ff8160181c16606083015260ff81861c16608083015260ff8160281c1660a083015260ff8160301c1660c083015260ff8160381c1660e083015260ff8160401c1661010083015260ff8160481c1661012083015260ff8160501c1661014083015260ff8160581c1661016083015260ff8160601c1661018083015260ff8160681c166101a083015260ff8160701c166101c083015260ff8160781c166101e083015260ff8160801c1661020083015260ff8160881c1661022083015260ff8160901c1661024083015260ff8160981c1661026083015260ff8160a01c1661028083015260ff8160a81c166102a083015260ff8160b01c166102c083015260ff8160b81c166102e083015260ff8160c01c1661030083015260ff8160c81c1661032083015260ff8160d01c1661034083015260ff8160d81c1661036083015260ff8160e01c1661038083015260ff8160e81c166103a083015260ff8160f01c166103c083015260f81c6103e08201520194019201916112a7565b906020825491828152019160005260206000209060005b81811061184a5750505090565b82546001600160a01b031684526020909301926001928301920161183d565b805182101561187d5760209160051b010190565b634e487b7160e01b600052603260045260246000fd5b805490600160401b82101561075d576001820180825582101561187d576000908152602090200180546001600160a01b0319166001600160a01b03909216919091179055565b6001600160401b03909116815260406020820181905282546001600160a01b039081169183019190915260018301541660608201526002820154608082015261014060a082015261016060ff600961198961197361193e610180870160038901611294565b600488015460c0880152600588015460e08801526006880154610100880152868103603f190161012088015260078801611826565b858103603f190161014087015260088701611826565b94015416151591015290565b8181106119a0575050565b60008155600101611995565b91909160018060401b03811660005260036020526040600020906005820154421115611bc65760088201938454611b8d576002546001600160a01b03163303611b515760098301805460ff191690556007830154600384015490811115611a6e5750506001820154600283015483549495600080516020611d8083398151915295611a5a939192611a49926001600160a01b039283169216611ce0565b83546001600160a01b031690611893565b611a69604051928392836118d9565b0390a1565b815103611b15578051906001600160401b03821161075d57600160401b821161075d576020908654838855808410611af8575b50019460005260206000209460005b828110611adb57505050600080516020611d80833981519152929350611a69604051928392836118d9565b81516001600160a01b031681880155602090910190600101611ab0565b611b0f908860005284846000209182019101611995565b38611aa1565b60405162461bcd60e51b815260206004820152601460248201527315dc9bdb99c81dda5b9b995c9cc8185b5bdd5b9d60621b6044820152606490fd5b60405162461bcd60e51b81526020600482015260146024820152732cb7ba9030b932b713ba103a34329037bbb732b960611b6044820152606490fd5b60405162461bcd60e51b815260206004820152601160248201527011da5d99585dd85e481a5cc8195b991959607a1b6044820152606490fd5b60405162461bcd60e51b815260206004820152601560248201527411da5d99585dd85e481a5cc81b9bdd08195b991959605a1b6044820152606490fd5b15611c0a57565b60405162461bcd60e51b815260206004820152600c60248201526b2bb937b7339039b2b73232b960a11b6044820152606490fd5b9190820180921161070d57565b9081602091031261001b5751801515810361001b5790565b6001600160a01b039091168152602081019190915260400190565b6001600160a01b0391821681526020810192909252909116604082015260600190565b3d15611cdb573d906001600160401b03821161075d5760405191611ccf601f8201601f19166020018461119f565b82523d6000602084013e565b606090565b9091906001600160a01b031680611d0b5750600080809381935af1611d03611ca1565b501561001b57565b91611d3192602092600060405180968195829463a9059cbb60e01b845260048401611c63565b03925af1801561038457611d425750565b611d5a9060203d60201161037d57610370818361119f565b50565b600260005414611d6e576002600055565b633ee5aeb560e01b60005260046000fdfe04c28ec0338a332133e6498addd8448c2a3391e5266cc871da83916c27ee191d9a9c2f752930c6b65ffe6835d58a652f85b2e0d2ce30c65872c1598efeced2bda2646970667358221220d0c38d07df61636986288328384bff80ade332a6c92d5c72e8751480e0102cb264736f6c634300081c0033",
  "linkReferences": {},
  "deployedLinkReferences": {}
}