{
  "_format": "hh-sol-artifact-1",
  "contractName": "Payments",
  "sourceName": "contracts/Payment.sol",
  "abi": [
    {
      "inputs": [],
      "stateMutability": "nonpayable",
      "type": "constructor"
    },
    {
      "inputs": [],
      "name": "ReentrancyGuardReentrantCall",
      "type": "error"
    },
    {
      "anonymous": false,
      "inputs": [
        {
          "indexed": false,
          "internalType": "address",
          "name": "user",
          "type": "address"
        },
        {
          "indexed": false,
          "internalType": "uint8",
          "name": "amount",
          "type": "uint8"
        },
        {
          "indexed": false,
          "internalType": "uint256",
          "name": "price",
          "type": "uint256"
        },
        {
          "indexed": false,
          "internalType": "contract IERC20",
          "name": "token",
          "type": "address"
        },
        {
          "indexed": false,
          "internalType": "uint256",
          "name": "id",
          "type": "uint256"
        }
      ],
      "name": "newAiToken",
      "type": "event"
    },
    {
      "anonymous": false,
      "inputs": [
        {
          "indexed": false,
          "internalType": "address",
          "name": "from",
          "type": "address"
        },
        {
          "indexed": false,
          "internalType": "address",
          "name": "to",
          "type": "address"
        },
        {
          "indexed": false,
          "internalType": "uint256",
          "name": "amount",
          "type": "uint256"
        },
        {
          "indexed": false,
          "internalType": "contract IERC20",
          "name": "token",
          "type": "address"
        },
        {
          "indexed": false,
          "internalType": "uint256",
          "name": "id",
          "type": "uint256"
        }
      ],
      "name": "newDonation",
      "type": "event"
    },
    {
      "anonymous": false,
      "inputs": [
        {
          "indexed": false,
          "internalType": "address",
          "name": "user",
          "type": "address"
        },
        {
          "indexed": false,
          "internalType": "address",
          "name": "seller",
          "type": "address"
        },
        {
          "indexed": false,
          "internalType": "uint16",
          "name": "itemId",
          "type": "uint16"
        },
        {
          "indexed": false,
          "internalType": "uint256",
          "name": "price",
          "type": "uint256"
        },
        {
          "indexed": false,
          "internalType": "contract IERC20",
          "name": "token",
          "type": "address"
        },
        {
          "indexed": false,
          "internalType": "uint256",
          "name": "id",
          "type": "uint256"
        }
      ],
      "name": "newItem",
      "type": "event"
    },
    {
      "anonymous": false,
      "inputs": [
        {
          "indexed": false,
          "internalType": "address",
          "name": "user",
          "type": "address"
        },
        {
          "indexed": false,
          "internalType": "uint8",
          "name": "month",
          "type": "uint8"
        },
        {
          "indexed": false,
          "internalType": "uint256",
          "name": "price",
          "type": "uint256"
        },
        {
          "indexed": false,
          "internalType": "contract IERC20",
          "name": "token",
          "type": "address"
        },
        {
          "indexed": false,
          "internalType": "uint256",
          "name": "id",
          "type": "uint256"
        }
      ],
      "name": "newPremium",
      "type": "event"
    },
    {
      "anonymous": false,
      "inputs": [
        {
          "indexed": false,
          "internalType": "address",
          "name": "user",
          "type": "address"
        },
        {
          "indexed": false,
          "internalType": "address",
          "name": "subscribeTo",
          "type": "address"
        },
        {
          "indexed": false,
          "internalType": "uint8",
          "name": "month",
          "type": "uint8"
        },
        {
          "indexed": false,
          "internalType": "uint8",
          "name": "level",
          "type": "uint8"
        },
        {
          "indexed": false,
          "internalType": "uint256",
          "name": "price",
          "type": "uint256"
        },
        {
          "indexed": false,
          "internalType": "contract IERC20",
          "name": "token",
          "type": "address"
        },
        {
          "indexed": false,
          "internalType": "uint256",
          "name": "id",
          "type": "uint256"
        }
      ],
      "name": "newSubToUser",
      "type": "event"
    },
    {
      "stateMutability": "nonpayable",
      "type": "fallback"
    },
    {
      "inputs": [
        {
          "internalType": "address",
          "name": "_to",
          "type": "address"
        },
        {
          "internalType": "uint8",
          "name": "_amount",
          "type": "uint8"
        },
        {
          "internalType": "contract IERC20",
          "name": "_token",
          "type": "address"
        }
      ],
      "name": "buyAiToken",
      "outputs": [],
      "stateMutability": "payable",
      "type": "function"
    },
    {
      "inputs": [
        {
          "internalType": "address",
          "name": "_to",
          "type": "address"
        },
        {
          "internalType": "address",
          "name": "_seller",
          "type": "address"
        },
        {
          "internalType": "uint16",
          "name": "_itemId",
          "type": "uint16"
        },
        {
          "internalType": "contract IERC20",
          "name": "_token",
          "type": "address"
        }
      ],
      "name": "buyItem",
      "outputs": [],
      "stateMutability": "payable",
      "type": "function"
    },
    {
      "inputs": [
        {
          "internalType": "address",
          "name": "_to",
          "type": "address"
        },
        {
          "internalType": "uint8",
          "name": "_month",
          "type": "uint8"
        },
        {
          "internalType": "contract IERC20",
          "name": "_token",
          "type": "address"
        }
      ],
      "name": "buyPremium",
      "outputs": [],
      "stateMutability": "payable",
      "type": "function"
    },
    {
      "inputs": [
        {
          "internalType": "address",
          "name": "_to",
          "type": "address"
        },
        {
          "internalType": "address",
          "name": "_user",
          "type": "address"
        },
        {
          "internalType": "uint8",
          "name": "_month",
          "type": "uint8"
        },
        {
          "internalType": "uint8",
          "name": "_level",
          "type": "uint8"
        },
        {
          "internalType": "contract IERC20",
          "name": "_token",
          "type": "address"
        }
      ],
      "name": "buySubToUser",
      "outputs": [],
      "stateMutability": "payable",
      "type": "function"
    },
    {
      "inputs": [
        {
          "internalType": "address",
          "name": "_owner",
          "type": "address"
        }
      ],
      "name": "chagneOwner",
      "outputs": [],
      "stateMutability": "nonpayable",
      "type": "function"
    },
    {
      "inputs": [
        {
          "internalType": "uint16",
          "name": "_fee",
          "type": "uint16"
        }
      ],
      "name": "changeFee",
      "outputs": [],
      "stateMutability": "nonpayable",
      "type": "function"
    },
    {
      "inputs": [
        {
          "internalType": "contract IERC20",
          "name": "_token",
          "type": "address"
        },
        {
          "internalType": "uint16",
          "name": "_id",
          "type": "uint16"
        },
        {
          "internalType": "uint256",
          "name": "_price",
          "type": "uint256"
        }
      ],
      "name": "changeItemPrice",
      "outputs": [],
      "stateMutability": "nonpayable",
      "type": "function"
    },
    {
      "inputs": [
        {
          "internalType": "address",
          "name": "_user",
          "type": "address"
        },
        {
          "internalType": "uint16",
          "name": "_fee",
          "type": "uint16"
        }
      ],
      "name": "changePersonalFee",
      "outputs": [],
      "stateMutability": "nonpayable",
      "type": "function"
    },
    {
      "inputs": [
        {
          "internalType": "contract IERC20",
          "name": "_token",
          "type": "address"
        },
        {
          "internalType": "uint256",
          "name": "_premiumPrice",
          "type": "uint256"
        },
        {
          "internalType": "uint256",
          "name": "_aiPrice",
          "type": "uint256"
        }
      ],
      "name": "changeTokenPrices",
      "outputs": [],
      "stateMutability": "nonpayable",
      "type": "function"
    },
    {
      "inputs": [
        {
          "internalType": "contract IERC20",
          "name": "_token",
          "type": "address"
        },
        {
          "internalType": "uint8",
          "name": "_level",
          "type": "uint8"
        },
        {
          "internalType": "uint256",
          "name": "_price",
          "type": "uint256"
        }
      ],
      "name": "changeUserSubPrice",
      "outputs": [],
      "stateMutability": "nonpayable",
      "type": "function"
    },
    {
      "inputs": [
        {
          "internalType": "address",
          "name": "_user",
          "type": "address"
        },
        {
          "internalType": "uint256",
          "name": "_amount",
          "type": "uint256"
        },
        {
          "internalType": "contract IERC20",
          "name": "_token",
          "type": "address"
        }
      ],
      "name": "donation",
      "outputs": [],
      "stateMutability": "payable",
      "type": "function"
    },
    {
      "inputs": [
        {
          "internalType": "contract IERC20",
          "name": "_token",
          "type": "address"
        }
      ],
      "name": "getTokenPrices",
      "outputs": [
        {
          "internalType": "uint256",
          "name": "_premiumPrice",
          "type": "uint256"
        },
        {
          "internalType": "uint256",
          "name": "_aiPrice",
          "type": "uint256"
        }
      ],
      "stateMutability": "view",
      "type": "function"
    },
    {
      "inputs": [
        {
          "internalType": "address",
          "name": "_user",
          "type": "address"
        },
        {
          "internalType": "uint8",
          "name": "_level",
          "type": "uint8"
        },
        {
          "internalType": "contract IERC20",
          "name": "_token",
          "type": "address"
        }
      ],
      "name": "getUserLevelPrice",
      "outputs": [
        {
          "internalType": "uint256",
          "name": "_subLevelPrice",
          "type": "uint256"
        }
      ],
      "stateMutability": "view",
      "type": "function"
    },
    {
      "inputs": [],
      "name": "owner",
      "outputs": [
        {
          "internalType": "address payable",
          "name": "",
          "type": "address"
        }
      ],
      "stateMutability": "view",
      "type": "function"
    },
    {
      "inputs": [
        {
          "internalType": "address",
          "name": "",
          "type": "address"
        }
      ],
      "name": "personalFee",
      "outputs": [
        {
          "internalType": "uint16",
          "name": "",
          "type": "uint16"
        }
      ],
      "stateMutability": "view",
      "type": "function"
    },
    {
      "inputs": [
        {
          "internalType": "contract IERC20",
          "name": "_token",
          "type": "address"
        },
        {
          "internalType": "uint256",
          "name": "_amount",
          "type": "uint256"
        }
      ],
      "name": "withdraw",
      "outputs": [],
      "stateMutability": "nonpayable",
      "type": "function"
    },
    {
      "stateMutability": "payable",
      "type": "receive"
    }
  ],
  "bytecode": "0x60808060405234603c5760016000556002805462010000600160b01b0319163360101b62010000600160b01b0316179055610fa790816100428239f35b600080fdfe60806040526004361015610022575b3615610020573461001b57005b600080fd5b005b60003560e01c806310aa9d3414610bbd5780631c61ed9214610ac657806331829ff1146108ad5780633407facd14610867578063392f0403146107fa578063402af311146107975780634b5ad09e1461073d5780636d558bb2146105585780637849e367146104d757806387311b9a1461043a5780638da5cb5b1461040d578063ab17f1eb146103c1578063cc6533dd14610383578063ded97a9d14610212578063f0aecbc8146101b45763f3fef3a30361000e573461001b57604036600319011261001b576100f0610c3d565b6002546024359160109190911c6001600160a01b031690610112338314610d93565b6001600160a01b0316908161014d57505060025460009182918291829160101c6001600160a01b03165af1610145610e7e565b501561001b57005b916044602092936000604051958694859363a9059cbb60e01b8552600485015260248401525af180156101a85761018057005b6100209060203d6020116101a1575b6101998183610e2d565b810190610e66565b503d61018f565b6040513d6000823e3d90fd5b3461001b57606036600319011261001b576101cd610c3d565b6101e560018060a01b0360025460101c163314610d93565b6001600160a01b031660009081526004602090815260408083206024359055600390915290206044359055005b606036600319011261001b57610340610229610c3d565b7fb349e4993cef149e70b6e1c4b249cbf8571c7df1605d213ad5152c245e9e24dc610252610c69565b61025a610c53565b92610263610ebd565b61033860ff8316600181148015610379575b801561036f575b8015610365575b801561035b575b61029390610d08565b6102d860018060a01b038716918260005260046020526102b96040600020541515610d4b565b6102c4331515610d93565b826000526004602052604060002054610dce565b901561034a575b6002546102fa9060101c6001600160a01b0316338389610edf565b600154604080516001600160a01b03958616815260ff90961660208701528501919091529190941660608301526080820181905292819060a0820190565b0390a1610ce3565b6001908155600055005b61035681341015610de1565b6102df565b50600c811461028a565b5060098114610283565b506006811461027c565b5060038114610275565b3461001b57602036600319011261001b576001600160a01b036103a4610c3d565b166000526005602052602061ffff60406000205416604051908152f35b3461001b57602036600319011261001b5760406001600160a01b036103e4610c3d565b168060005260046020528160002054906000526003602052816000205482519182526020820152f35b3461001b57600036600319011261001b5760025460405160109190911c6001600160a01b03168152602090f35b606036600319011261001b57610340610451610c3d565b7f1aa13d83d0941f18b84ec5bd2489673b21a33087534ea39f9c2f69d8ffebf26561047a610c69565b610482610c53565b9261048b610ebd565b61033860018060a01b0385168060005260036020526104b06040600020541515610d4b565b6104bb331515610d93565b8060005260036020526102d860406000205460ff861690610dce565b3461001b57606036600319011261001b576104f0610c3d565b6104f8610c8f565b6001600160a01b03821660009081526004602052604090205461051c901515610ca0565b33600052600660205261ffff6040600020911660005260205260406000209060018060a01b031660005260205260406000206044359055600080f35b608036600319011261001b5761056c610c3d565b610574610c79565b6044359161ffff831680930361001b57606435926001600160a01b0384169081850361001b576105a2610ebd565b60018060a01b0384169384600052600660205260406000208260005260205260406000208360005260205260406000205495836000526004602052604060002054151580610734575b6105f490610ca0565b33600052600560205261ffff6040600020541615600014610715576103e861062561ffff80600254165b1689610dce565b049184156106bb575b9261068960c0959361034099936106727ff75bfe060373b450661e4e6eb654aad71847df6d54c2e9818b7ab96462ee101e99973361066c8589610e20565b84610edf565b60025460101c6001600160a01b0316913391610edf565b600154966040519460018060a01b0316855260208501526040840152606083015260808201528360a0820152a1610ce3565b9690939194928134106106d35792949193909661062e565b60405162461bcd60e51b815260206004820152601a6024820152794e6f7420656e6f7567682065746820746f20627579206974656d60301b6044820152606490fd5b3360005260056020526103e861062561ffff806040600020541661061e565b508615156105eb565b3461001b57602036600319011261001b57610756610c3d565b6002549061077233601084901c6001600160a01b031614610d93565b62010000600160b01b031990911660109190911b62010000600160b01b031617600255005b3461001b57604036600319011261001b576107b0610c3d565b6107b8610c8f565b906107d160018060a01b0360025460101c163314610d93565b60018060a01b0316600052600560205261ffff6040600020911661ffff19825416179055600080f35b3461001b57606036600319011261001b57610813610c3d565b61081b610c69565b610823610c53565b9160018060a01b0316600052600760205260ff6040600020911660005260205260406000209060018060a01b03166000526020526020604060002054604051908152f35b3461001b57602036600319011261001b5760043561ffff811680910361001b576002546108a233601083901c6001600160a01b031614610d93565b61ffff191617600255005b60a036600319011261001b576108c1610c3d565b6108c9610c79565b60443560ff811680910361001b576064359060ff821680920361001b57608435936001600160a01b03851680860361001b57610340957f1b011d73e7df1d8680c86a339410375bb01ae38e38411fc30c0912d61e2a4aa89460e09461092c610ebd565b600181148015610abc575b8015610ab2575b8015610aa8575b8015610a9e575b61095590610d08565b610a1d60018060a01b03891698896000526007602052604060002084600052602052604060002086600052602052604060002054151580610a87575b61099a90610d4b565b6109a5331515610d93565b8960005260076020526040600020846000526020526040600020866000526020526109d583604060002054610dce565b9433600052600560205261ffff6040600020541615600014610a65576106726103e8610a0961ffff80600254161689610dce565b04928815610a54575b3361066c858a610e20565b600154976040519560018060a01b03168652602086015260408501526060840152608083015260a08201528360c0820152a1610ce3565b610a6088341015610de1565b610a12565b3360005260056020526106726103e8610a0961ffff806040600020541661061e565b506000868152600460205260409020541515610991565b50600c811461094c565b5060098114610945565b506006811461093e565b5060038114610937565b606036600319011261001b57610ada610c3d565b610ae2610c53565b90610aeb610ebd565b6001600160a01b03821660008181526004602052604090205460243592919015610b8157610340938115610b79575b9160a091610b4c827f5a2f1ad79d3b13290e448ad9be056a7e0663f2109e69b98665aa82cc884cb73b95873391610edf565b6001549460405192338452600180861b0316602084015260408301526060820152836080820152a1610ce3565b349350610b1a565b60405162461bcd60e51b815260206004820152601460248201527331b0b713ba103ab9b2903a3434b9903a37b5b2b760611b6044820152606490fd5b3461001b57606036600319011261001b57610bd6610c3d565b610bde610c69565b6001600160a01b038216600090815260046020526040902054610c02901515610ca0565b33600052600760205260ff6040600020911660005260205260406000209060018060a01b031660005260205260406000206044359055600080f35b600435906001600160a01b038216820361001b57565b604435906001600160a01b038216820361001b57565b6024359060ff8216820361001b57565b602435906001600160a01b038216820361001b57565b6024359061ffff8216820361001b57565b15610ca757565b60405162461bcd60e51b815260206004820152601460248201527321b0b713ba103ab9b2903a3434b9903a37b5b2b760611b6044820152606490fd5b6000198114610cf25760010190565b634e487b7160e01b600052601160045260246000fd5b15610d0f57565b60405162461bcd60e51b8152602060048201526014602482015273086d0dedee6ca40c6dee4e4cac6e840dadedce8d60631b6044820152606490fd5b15610d5257565b60405162461bcd60e51b815260206004820152601960248201527821b0b713ba103830bc903bb4ba34103a3434b9903a37b5b2b760391b6044820152606490fd5b15610d9a57565b60405162461bcd60e51b815260206004820152600c60248201526b2bb937b7339039b2b73232b960a11b6044820152606490fd5b81810292918115918404141715610cf257565b15610de857565b60405162461bcd60e51b815260206004820152601060248201526f15dc9bdb99c8195d1a08185b5bdd5b9d60821b6044820152606490fd5b91908203918211610cf257565b601f909101601f19168101906001600160401b03821190821017610e5057604052565b634e487b7160e01b600052604160045260246000fd5b9081602091031261001b5751801515810361001b5790565b3d15610eb8573d906001600160401b038211610e505760405191610eac601f8201601f191660200184610e2d565b82523d6000602084013e565b606090565b600260005414610ece576002600055565b633ee5aeb560e01b60005260046000fd5b909291906001600160a01b031680610f0c575050600080809381935af1610f04610e7e565b501561001b57565b6040516323b872dd60e01b81526001600160a01b0392831660048201529190921660248201526044810192909252602090829060649082906000905af180156101a857610f565750565b610f6e9060203d6020116101a1576101998183610e2d565b5056fea26469706673582212209690ab42ca69dc01686dc29c08bb4ced4d92e21b15589494528c202cbcf3470164736f6c634300081c0033",
  "linkReferences": {},
  "deployedLinkReferences": {}
}